{
	"contracts/LiskGarden.sol": {
		"LiskGarden": {
			"abi": [
				{
					"inputs": [],
					"stateMutability": "nonpayable",
					"type": "constructor"
				},
				{
					"anonymous": false,
					"inputs": [
						{
							"indexed": true,
							"internalType": "uint256",
							"name": "plantId",
							"type": "uint256"
						}
					],
					"name": "PlantDied",
					"type": "event"
				},
				{
					"anonymous": false,
					"inputs": [
						{
							"indexed": true,
							"internalType": "uint256",
							"name": "plantId",
							"type": "uint256"
						},
						{
							"indexed": true,
							"internalType": "address",
							"name": "owner",
							"type": "address"
						},
						{
							"indexed": false,
							"internalType": "uint256",
							"name": "reward",
							"type": "uint256"
						}
					],
					"name": "PlantHarvested",
					"type": "event"
				},
				{
					"anonymous": false,
					"inputs": [
						{
							"indexed": true,
							"internalType": "address",
							"name": "owner",
							"type": "address"
						},
						{
							"indexed": true,
							"internalType": "uint256",
							"name": "plantId",
							"type": "uint256"
						}
					],
					"name": "PlantSeeded",
					"type": "event"
				},
				{
					"anonymous": false,
					"inputs": [
						{
							"indexed": true,
							"internalType": "uint256",
							"name": "plantId",
							"type": "uint256"
						},
						{
							"indexed": false,
							"internalType": "uint8",
							"name": "newWaterLevel",
							"type": "uint8"
						}
					],
					"name": "PlantWatered",
					"type": "event"
				},
				{
					"anonymous": false,
					"inputs": [
						{
							"indexed": true,
							"internalType": "uint256",
							"name": "plantId",
							"type": "uint256"
						},
						{
							"indexed": false,
							"internalType": "enum LiskGarden.GrowthStage",
							"name": "newStage",
							"type": "uint8"
						}
					],
					"name": "StageAdvanced",
					"type": "event"
				},
				{
					"inputs": [],
					"name": "HARVEST_REWARD",
					"outputs": [
						{
							"internalType": "uint256",
							"name": "",
							"type": "uint256"
						}
					],
					"stateMutability": "view",
					"type": "function"
				},
				{
					"inputs": [],
					"name": "PLANT_PRICE",
					"outputs": [
						{
							"internalType": "uint256",
							"name": "",
							"type": "uint256"
						}
					],
					"stateMutability": "view",
					"type": "function"
				},
				{
					"inputs": [],
					"name": "STAGE_DURATION",
					"outputs": [
						{
							"internalType": "uint256",
							"name": "",
							"type": "uint256"
						}
					],
					"stateMutability": "view",
					"type": "function"
				},
				{
					"inputs": [],
					"name": "WATER_DEPLETION_RATE",
					"outputs": [
						{
							"internalType": "uint8",
							"name": "",
							"type": "uint8"
						}
					],
					"stateMutability": "view",
					"type": "function"
				},
				{
					"inputs": [],
					"name": "WATER_DEPLETION_TIME",
					"outputs": [
						{
							"internalType": "uint256",
							"name": "",
							"type": "uint256"
						}
					],
					"stateMutability": "view",
					"type": "function"
				},
				{
					"inputs": [
						{
							"internalType": "uint256",
							"name": "plantId",
							"type": "uint256"
						}
					],
					"name": "calculateWaterLevel",
					"outputs": [
						{
							"internalType": "uint8",
							"name": "",
							"type": "uint8"
						}
					],
					"stateMutability": "view",
					"type": "function"
				},
				{
					"inputs": [
						{
							"internalType": "uint256",
							"name": "plantId",
							"type": "uint256"
						}
					],
					"name": "getPlant",
					"outputs": [
						{
							"components": [
								{
									"internalType": "uint256",
									"name": "id",
									"type": "uint256"
								},
								{
									"internalType": "address",
									"name": "owner",
									"type": "address"
								},
								{
									"internalType": "bool",
									"name": "exists",
									"type": "bool"
								},
								{
									"internalType": "bool",
									"name": "isAlive",
									"type": "bool"
								},
								{
									"internalType": "enum LiskGarden.GrowthStage",
									"name": "stage",
									"type": "uint8"
								},
								{
									"internalType": "uint256",
									"name": "plantedTime",
									"type": "uint256"
								},
								{
									"internalType": "uint256",
									"name": "lastWatered",
									"type": "uint256"
								},
								{
									"internalType": "uint8",
									"name": "waterLevel",
									"type": "uint8"
								}
							],
							"internalType": "struct LiskGarden.Plant",
							"name": "",
							"type": "tuple"
						}
					],
					"stateMutability": "view",
					"type": "function"
				},
				{
					"inputs": [
						{
							"internalType": "address",
							"name": "user",
							"type": "address"
						}
					],
					"name": "getUserPlants",
					"outputs": [
						{
							"internalType": "uint256[]",
							"name": "",
							"type": "uint256[]"
						}
					],
					"stateMutability": "view",
					"type": "function"
				},
				{
					"inputs": [
						{
							"internalType": "uint256",
							"name": "plantId",
							"type": "uint256"
						}
					],
					"name": "harvestPlant",
					"outputs": [],
					"stateMutability": "nonpayable",
					"type": "function"
				},
				{
					"inputs": [],
					"name": "owner",
					"outputs": [
						{
							"internalType": "address",
							"name": "",
							"type": "address"
						}
					],
					"stateMutability": "view",
					"type": "function"
				},
				{
					"inputs": [],
					"name": "plantCounter",
					"outputs": [
						{
							"internalType": "uint256",
							"name": "",
							"type": "uint256"
						}
					],
					"stateMutability": "view",
					"type": "function"
				},
				{
					"inputs": [],
					"name": "plantSeed",
					"outputs": [
						{
							"internalType": "uint256",
							"name": "",
							"type": "uint256"
						}
					],
					"stateMutability": "payable",
					"type": "function"
				},
				{
					"inputs": [
						{
							"internalType": "uint256",
							"name": "",
							"type": "uint256"
						}
					],
					"name": "plants",
					"outputs": [
						{
							"internalType": "uint256",
							"name": "id",
							"type": "uint256"
						},
						{
							"internalType": "address",
							"name": "owner",
							"type": "address"
						},
						{
							"internalType": "bool",
							"name": "exists",
							"type": "bool"
						},
						{
							"internalType": "bool",
							"name": "isAlive",
							"type": "bool"
						},
						{
							"internalType": "enum LiskGarden.GrowthStage",
							"name": "stage",
							"type": "uint8"
						},
						{
							"internalType": "uint256",
							"name": "plantedTime",
							"type": "uint256"
						},
						{
							"internalType": "uint256",
							"name": "lastWatered",
							"type": "uint256"
						},
						{
							"internalType": "uint8",
							"name": "waterLevel",
							"type": "uint8"
						}
					],
					"stateMutability": "view",
					"type": "function"
				},
				{
					"inputs": [
						{
							"internalType": "uint256",
							"name": "plantId",
							"type": "uint256"
						}
					],
					"name": "updatePlantStage",
					"outputs": [],
					"stateMutability": "nonpayable",
					"type": "function"
				},
				{
					"inputs": [
						{
							"internalType": "uint256",
							"name": "plantId",
							"type": "uint256"
						}
					],
					"name": "waterPlant",
					"outputs": [],
					"stateMutability": "nonpayable",
					"type": "function"
				},
				{
					"inputs": [],
					"name": "withdraw",
					"outputs": [],
					"stateMutability": "nonpayable",
					"type": "function"
				},
				{
					"stateMutability": "payable",
					"type": "receive"
				}
			],
			"devdoc": {
				"kind": "dev",
				"methods": {},
				"version": 1
			},
			"evm": {
				"assembly": "    /* \"contracts/LiskGarden.sol\":58:5999  contract LiskGarden {... */\n  mstore(0x40, 0x80)\n    /* \"contracts/LiskGarden.sol\":1184:1259  constructor() {... */\n  callvalue\n  dup1\n  iszero\n  tag_1\n  jumpi\n  revert(0x00, 0x00)\ntag_1:\n  pop\n    /* \"contracts/LiskGarden.sol\":1216:1226  msg.sender */\n  caller\n    /* \"contracts/LiskGarden.sol\":1208:1213  owner */\n  0x03\n  0x00\n    /* \"contracts/LiskGarden.sol\":1208:1226  owner = msg.sender */\n  0x0100\n  exp\n  dup2\n  sload\n  dup2\n  0xffffffffffffffffffffffffffffffffffffffff\n  mul\n  not\n  and\n  swap1\n  dup4\n  0xffffffffffffffffffffffffffffffffffffffff\n  and\n  mul\n  or\n  swap1\n  sstore\n  pop\n    /* \"contracts/LiskGarden.sol\":1251:1252  0 */\n  0x00\n    /* \"contracts/LiskGarden.sol\":1236:1248  plantCounter */\n  0x02\n    /* \"contracts/LiskGarden.sol\":1236:1252  plantCounter = 0 */\n  dup2\n  swap1\n  sstore\n  pop\n    /* \"contracts/LiskGarden.sol\":58:5999  contract LiskGarden {... */\n  dataSize(sub_0)\n  dup1\n  dataOffset(sub_0)\n  0x00\n  codecopy\n  0x00\n  return\nstop\n\nsub_0: assembly {\n        /* \"contracts/LiskGarden.sol\":58:5999  contract LiskGarden {... */\n      mstore(0x40, 0x80)\n      jumpi(tag_1, lt(calldatasize, 0x04))\n      shr(0xe0, calldataload(0x00))\n      dup1\n      0x8dd2361c\n      gt\n      tag_19\n      jumpi\n      dup1\n      0xcfc9a5f8\n      gt\n      tag_20\n      jumpi\n      dup1\n      0xcfc9a5f8\n      eq\n      tag_15\n      jumpi\n      dup1\n      0xddd42596\n      eq\n      tag_16\n      jumpi\n      dup1\n      0xe38f8448\n      eq\n      tag_17\n      jumpi\n      dup1\n      0xed0b1f5f\n      eq\n      tag_18\n      jumpi\n      jump(tag_2)\n    tag_20:\n      dup1\n      0x8dd2361c\n      eq\n      tag_11\n      jumpi\n      dup1\n      0x9886bcfa\n      eq\n      tag_12\n      jumpi\n      dup1\n      0x9c471749\n      eq\n      tag_13\n      jumpi\n      dup1\n      0xbacb5ebd\n      eq\n      tag_14\n      jumpi\n      jump(tag_2)\n    tag_19:\n      dup1\n      0x754e150d\n      gt\n      tag_21\n      jumpi\n      dup1\n      0x754e150d\n      eq\n      tag_7\n      jumpi\n      dup1\n      0x7ed4c5be\n      eq\n      tag_8\n      jumpi\n      dup1\n      0x891c0785\n      eq\n      tag_9\n      jumpi\n      dup1\n      0x8da5cb5b\n      eq\n      tag_10\n      jumpi\n      jump(tag_2)\n    tag_21:\n      dup1\n      0x30cec0eb\n      eq\n      tag_3\n      jumpi\n      dup1\n      0x3ccfd60b\n      eq\n      tag_4\n      jumpi\n      dup1\n      0x51f9efde\n      eq\n      tag_5\n      jumpi\n      dup1\n      0x74119a38\n      eq\n      tag_6\n      jumpi\n      jump(tag_2)\n    tag_1:\n      jumpi(tag_2, calldatasize)\n      stop\n    tag_2:\n      revert(0x00, 0x00)\n        /* \"contracts/LiskGarden.sol\":5516:5634  function getUserPlants(address user) external view returns (uint256[] memory) {... */\n    tag_3:\n      callvalue\n      dup1\n      iszero\n      tag_24\n      jumpi\n      revert(0x00, 0x00)\n    tag_24:\n      pop\n      tag_25\n      0x04\n      dup1\n      calldatasize\n      sub\n      dup2\n      add\n      swap1\n      tag_26\n      swap2\n      swap1\n      tag_27\n      jump\t// in\n    tag_26:\n      tag_28\n      jump\t// in\n    tag_25:\n      mload(0x40)\n      tag_29\n      swap2\n      swap1\n      tag_30\n      jump\t// in\n    tag_29:\n      mload(0x40)\n      dup1\n      swap2\n      sub\n      swap1\n      return\n        /* \"contracts/LiskGarden.sol\":5688:5962  function withdraw() external {... */\n    tag_4:\n      callvalue\n      dup1\n      iszero\n      tag_31\n      jumpi\n      revert(0x00, 0x00)\n    tag_31:\n      pop\n      tag_32\n      tag_33\n      jump\t// in\n    tag_32:\n      stop\n        /* \"contracts/LiskGarden.sol\":637:687  uint256 public constant STAGE_DURATION = 1 minutes */\n    tag_5:\n      callvalue\n      dup1\n      iszero\n      tag_34\n      jumpi\n      revert(0x00, 0x00)\n    tag_34:\n      pop\n      tag_35\n      tag_36\n      jump\t// in\n    tag_35:\n      mload(0x40)\n      tag_37\n      swap2\n      swap1\n      tag_38\n      jump\t// in\n    tag_37:\n      mload(0x40)\n      dup1\n      swap2\n      sub\n      swap1\n      return\n        /* \"contracts/LiskGarden.sol\":1265:1906  function plantSeed() external payable returns (uint256) {... */\n    tag_6:\n      tag_39\n      tag_40\n      jump\t// in\n    tag_39:\n      mload(0x40)\n      tag_41\n      swap2\n      swap1\n      tag_38\n      jump\t// in\n    tag_41:\n      mload(0x40)\n      dup1\n      swap2\n      sub\n      swap1\n      return\n        /* \"contracts/LiskGarden.sol\":1912:2570  function calculateWaterLevel(uint256 plantId) public view returns (uint8) {... */\n    tag_7:\n      callvalue\n      dup1\n      iszero\n      tag_42\n      jumpi\n      revert(0x00, 0x00)\n    tag_42:\n      pop\n      tag_43\n      0x04\n      dup1\n      calldatasize\n      sub\n      dup2\n      add\n      swap1\n      tag_44\n      swap2\n      swap1\n      tag_45\n      jump\t// in\n    tag_44:\n      tag_46\n      jump\t// in\n    tag_43:\n      mload(0x40)\n      tag_47\n      swap2\n      swap1\n      tag_48\n      jump\t// in\n    tag_47:\n      mload(0x40)\n      dup1\n      swap2\n      sub\n      swap1\n      return\n        /* \"contracts/LiskGarden.sol\":693:750  uint256 public constant WATER_DEPLETION_TIME = 30 seconds */\n    tag_8:\n      callvalue\n      dup1\n      iszero\n      tag_49\n      jumpi\n      revert(0x00, 0x00)\n    tag_49:\n      pop\n      tag_50\n      tag_51\n      jump\t// in\n    tag_50:\n      mload(0x40)\n      tag_52\n      swap2\n      swap1\n      tag_38\n      jump\t// in\n    tag_52:\n      mload(0x40)\n      dup1\n      swap2\n      sub\n      swap1\n      return\n        /* \"contracts/LiskGarden.sol\":579:631  uint256 public constant HARVEST_REWARD = 0.003 ether */\n    tag_9:\n      callvalue\n      dup1\n      iszero\n      tag_53\n      jumpi\n      revert(0x00, 0x00)\n    tag_53:\n      pop\n      tag_54\n      tag_55\n      jump\t// in\n    tag_54:\n      mload(0x40)\n      tag_56\n      swap2\n      swap1\n      tag_38\n      jump\t// in\n    tag_56:\n      mload(0x40)\n      dup1\n      swap2\n      sub\n      swap1\n      return\n        /* \"contracts/LiskGarden.sol\":497:517  address public owner */\n    tag_10:\n      callvalue\n      dup1\n      iszero\n      tag_57\n      jumpi\n      revert(0x00, 0x00)\n    tag_57:\n      pop\n      tag_58\n      tag_59\n      jump\t// in\n    tag_58:\n      mload(0x40)\n      tag_60\n      swap2\n      swap1\n      tag_61\n      jump\t// in\n    tag_60:\n      mload(0x40)\n      dup1\n      swap2\n      sub\n      swap1\n      return\n        /* \"contracts/LiskGarden.sol\":365:404  mapping(uint256 => Plant) public plants */\n    tag_11:\n      callvalue\n      dup1\n      iszero\n      tag_62\n      jumpi\n      revert(0x00, 0x00)\n    tag_62:\n      pop\n      tag_63\n      0x04\n      dup1\n      calldatasize\n      sub\n      dup2\n      add\n      swap1\n      tag_64\n      swap2\n      swap1\n      tag_45\n      jump\t// in\n    tag_64:\n      tag_65\n      jump\t// in\n    tag_63:\n      mload(0x40)\n      tag_66\n      swap9\n      swap8\n      swap7\n      swap6\n      swap5\n      swap4\n      swap3\n      swap2\n      swap1\n      tag_67\n      jump\t// in\n    tag_66:\n      mload(0x40)\n      dup1\n      swap2\n      sub\n      swap1\n      return\n        /* \"contracts/LiskGarden.sol\":2978:3517  function waterPlant(uint256 plantId) external {... */\n    tag_12:\n      callvalue\n      dup1\n      iszero\n      tag_68\n      jumpi\n      revert(0x00, 0x00)\n    tag_68:\n      pop\n      tag_69\n      0x04\n      dup1\n      calldatasize\n      sub\n      dup2\n      add\n      swap1\n      tag_70\n      swap2\n      swap1\n      tag_45\n      jump\t// in\n    tag_70:\n      tag_71\n      jump\t// in\n    tag_69:\n      stop\n        /* \"contracts/LiskGarden.sol\":464:491  uint256 public plantCounter */\n    tag_13:\n      callvalue\n      dup1\n      iszero\n      tag_72\n      jumpi\n      revert(0x00, 0x00)\n    tag_72:\n      pop\n      tag_73\n      tag_74\n      jump\t// in\n    tag_73:\n      mload(0x40)\n      tag_75\n      swap2\n      swap1\n      tag_38\n      jump\t// in\n    tag_75:\n      mload(0x40)\n      dup1\n      swap2\n      sub\n      swap1\n      return\n        /* \"contracts/LiskGarden.sol\":756:803  uint8  public constant WATER_DEPLETION_RATE = 2 */\n    tag_14:\n      callvalue\n      dup1\n      iszero\n      tag_76\n      jumpi\n      revert(0x00, 0x00)\n    tag_76:\n      pop\n      tag_77\n      tag_78\n      jump\t// in\n    tag_77:\n      mload(0x40)\n      tag_79\n      swap2\n      swap1\n      tag_48\n      jump\t// in\n    tag_79:\n      mload(0x40)\n      dup1\n      swap2\n      sub\n      swap1\n      return\n        /* \"contracts/LiskGarden.sol\":524:573  uint256 public constant PLANT_PRICE = 0.001 ether */\n    tag_15:\n      callvalue\n      dup1\n      iszero\n      tag_80\n      jumpi\n      revert(0x00, 0x00)\n    tag_80:\n      pop\n      tag_81\n      tag_82\n      jump\t// in\n    tag_81:\n      mload(0x40)\n      tag_83\n      swap2\n      swap1\n      tag_38\n      jump\t// in\n    tag_83:\n      mload(0x40)\n      dup1\n      swap2\n      sub\n      swap1\n      return\n        /* \"contracts/LiskGarden.sol\":3523:4279  function updatePlantStage(uint256 plantId) public {... */\n    tag_16:\n      callvalue\n      dup1\n      iszero\n      tag_84\n      jumpi\n      revert(0x00, 0x00)\n    tag_84:\n      pop\n      tag_85\n      0x04\n      dup1\n      calldatasize\n      sub\n      dup2\n      add\n      swap1\n      tag_86\n      swap2\n      swap1\n      tag_45\n      jump\t// in\n    tag_86:\n      tag_87\n      jump\t// in\n    tag_85:\n      stop\n        /* \"contracts/LiskGarden.sol\":4285:5128  function harvestPlant(uint256 plantId) external {... */\n    tag_17:\n      callvalue\n      dup1\n      iszero\n      tag_88\n      jumpi\n      revert(0x00, 0x00)\n    tag_88:\n      pop\n      tag_89\n      0x04\n      dup1\n      calldatasize\n      sub\n      dup2\n      add\n      swap1\n      tag_90\n      swap2\n      swap1\n      tag_45\n      jump\t// in\n    tag_90:\n      tag_91\n      jump\t// in\n    tag_89:\n      stop\n        /* \"contracts/LiskGarden.sol\":5137:5454  function getPlant(uint256 plantId) external view returns (Plant memory) {... */\n    tag_18:\n      callvalue\n      dup1\n      iszero\n      tag_92\n      jumpi\n      revert(0x00, 0x00)\n    tag_92:\n      pop\n      tag_93\n      0x04\n      dup1\n      calldatasize\n      sub\n      dup2\n      add\n      swap1\n      tag_94\n      swap2\n      swap1\n      tag_45\n      jump\t// in\n    tag_94:\n      tag_95\n      jump\t// in\n    tag_93:\n      mload(0x40)\n      tag_96\n      swap2\n      swap1\n      tag_97\n      jump\t// in\n    tag_96:\n      mload(0x40)\n      dup1\n      swap2\n      sub\n      swap1\n      return\n        /* \"contracts/LiskGarden.sol\":5516:5634  function getUserPlants(address user) external view returns (uint256[] memory) {... */\n    tag_28:\n        /* \"contracts/LiskGarden.sol\":5576:5592  uint256[] memory */\n      0x60\n        /* \"contracts/LiskGarden.sol\":5611:5621  userPlants */\n      0x01\n        /* \"contracts/LiskGarden.sol\":5611:5627  userPlants[user] */\n      0x00\n        /* \"contracts/LiskGarden.sol\":5622:5626  user */\n      dup4\n        /* \"contracts/LiskGarden.sol\":5611:5627  userPlants[user] */\n      0xffffffffffffffffffffffffffffffffffffffff\n      and\n      0xffffffffffffffffffffffffffffffffffffffff\n      and\n      dup2\n      mstore\n      0x20\n      add\n      swap1\n      dup2\n      mstore\n      0x20\n      add\n      0x00\n      keccak256\n        /* \"contracts/LiskGarden.sol\":5604:5627  return userPlants[user] */\n      dup1\n      sload\n      dup1\n      0x20\n      mul\n      0x20\n      add\n      mload(0x40)\n      swap1\n      dup2\n      add\n      0x40\n      mstore\n      dup1\n      swap3\n      swap2\n      swap1\n      dup2\n      dup2\n      mstore\n      0x20\n      add\n      dup3\n      dup1\n      sload\n      dup1\n      iszero\n      tag_99\n      jumpi\n      0x20\n      mul\n      dup3\n      add\n      swap2\n      swap1\n      0x00\n      mstore\n      keccak256(0x00, 0x20)\n      swap1\n    tag_100:\n      dup2\n      sload\n      dup2\n      mstore\n      0x20\n      add\n      swap1\n      0x01\n      add\n      swap1\n      dup1\n      dup4\n      gt\n      tag_100\n      jumpi\n    tag_99:\n      pop\n      pop\n      pop\n      pop\n      pop\n      swap1\n      pop\n        /* \"contracts/LiskGarden.sol\":5516:5634  function getUserPlants(address user) external view returns (uint256[] memory) {... */\n      swap2\n      swap1\n      pop\n      jump\t// out\n        /* \"contracts/LiskGarden.sol\":5688:5962  function withdraw() external {... */\n    tag_33:\n        /* \"contracts/LiskGarden.sol\":5749:5754  owner */\n      0x03\n      0x00\n      swap1\n      sload\n      swap1\n      0x0100\n      exp\n      swap1\n      div\n      0xffffffffffffffffffffffffffffffffffffffff\n      and\n        /* \"contracts/LiskGarden.sol\":5735:5754  msg.sender == owner */\n      0xffffffffffffffffffffffffffffffffffffffff\n      and\n        /* \"contracts/LiskGarden.sol\":5735:5745  msg.sender */\n      caller\n        /* \"contracts/LiskGarden.sol\":5735:5754  msg.sender == owner */\n      0xffffffffffffffffffffffffffffffffffffffff\n      and\n      eq\n        /* \"contracts/LiskGarden.sol\":5727:5769  require(msg.sender == owner, \"Only owner\") */\n      tag_102\n      jumpi\n      mload(0x40)\n      0x08c379a000000000000000000000000000000000000000000000000000000000\n      dup2\n      mstore\n      0x04\n      add\n      tag_103\n      swap1\n      tag_104\n      jump\t// in\n    tag_103:\n      mload(0x40)\n      dup1\n      swap2\n      sub\n      swap1\n      revert\n    tag_102:\n        /* \"contracts/LiskGarden.sol\":5779:5790  uint256 bal */\n      0x00\n        /* \"contracts/LiskGarden.sol\":5793:5814  address(this).balance */\n      selfbalance\n        /* \"contracts/LiskGarden.sol\":5779:5814  uint256 bal = address(this).balance */\n      swap1\n      pop\n        /* \"contracts/LiskGarden.sol\":5838:5839  0 */\n      0x00\n        /* \"contracts/LiskGarden.sol\":5832:5835  bal */\n      dup2\n        /* \"contracts/LiskGarden.sol\":5832:5839  bal > 0 */\n      gt\n        /* \"contracts/LiskGarden.sol\":5824:5864  require(bal > 0, \"No funds to withdraw\") */\n      tag_105\n      jumpi\n      mload(0x40)\n      0x08c379a000000000000000000000000000000000000000000000000000000000\n      dup2\n      mstore\n      0x04\n      add\n      tag_106\n      swap1\n      tag_107\n      jump\t// in\n    tag_106:\n      mload(0x40)\n      dup1\n      swap2\n      sub\n      swap1\n      revert\n    tag_105:\n        /* \"contracts/LiskGarden.sol\":5876:5883  bool ok */\n      0x00\n        /* \"contracts/LiskGarden.sol\":5889:5894  owner */\n      0x03\n      0x00\n      swap1\n      sload\n      swap1\n      0x0100\n      exp\n      swap1\n      div\n      0xffffffffffffffffffffffffffffffffffffffff\n      and\n        /* \"contracts/LiskGarden.sol\":5889:5899  owner.call */\n      0xffffffffffffffffffffffffffffffffffffffff\n      and\n        /* \"contracts/LiskGarden.sol\":5907:5910  bal */\n      dup3\n        /* \"contracts/LiskGarden.sol\":5889:5915  owner.call{value: bal}(\"\") */\n      mload(0x40)\n      tag_108\n      swap1\n      tag_109\n      jump\t// in\n    tag_108:\n      0x00\n      mload(0x40)\n      dup1\n      dup4\n      sub\n      dup2\n      dup6\n      dup8\n      gas\n      call\n      swap3\n      pop\n      pop\n      pop\n      returndatasize\n      dup1\n      0x00\n      dup2\n      eq\n      tag_112\n      jumpi\n      mload(0x40)\n      swap2\n      pop\n      and(add(returndatasize, 0x3f), not(0x1f))\n      dup3\n      add\n      0x40\n      mstore\n      returndatasize\n      dup3\n      mstore\n      returndatasize\n      0x00\n      0x20\n      dup5\n      add\n      returndatacopy\n      jump(tag_111)\n    tag_112:\n      0x60\n      swap2\n      pop\n    tag_111:\n      pop\n        /* \"contracts/LiskGarden.sol\":5875:5915  (bool ok, ) = owner.call{value: bal}(\"\") */\n      pop\n      swap1\n      pop\n        /* \"contracts/LiskGarden.sol\":5933:5935  ok */\n      dup1\n        /* \"contracts/LiskGarden.sol\":5925:5955  require(ok, \"Withdraw failed\") */\n      tag_113\n      jumpi\n      mload(0x40)\n      0x08c379a000000000000000000000000000000000000000000000000000000000\n      dup2\n      mstore\n      0x04\n      add\n      tag_114\n      swap1\n      tag_115\n      jump\t// in\n    tag_114:\n      mload(0x40)\n      dup1\n      swap2\n      sub\n      swap1\n      revert\n    tag_113:\n        /* \"contracts/LiskGarden.sol\":5717:5962  {... */\n      pop\n      pop\n        /* \"contracts/LiskGarden.sol\":5688:5962  function withdraw() external {... */\n      jump\t// out\n        /* \"contracts/LiskGarden.sol\":637:687  uint256 public constant STAGE_DURATION = 1 minutes */\n    tag_36:\n        /* \"contracts/LiskGarden.sol\":678:687  1 minutes */\n      0x3c\n        /* \"contracts/LiskGarden.sol\":637:687  uint256 public constant STAGE_DURATION = 1 minutes */\n      dup2\n      jump\t// out\n        /* \"contracts/LiskGarden.sol\":1265:1906  function plantSeed() external payable returns (uint256) {... */\n    tag_40:\n        /* \"contracts/LiskGarden.sol\":1312:1319  uint256 */\n      0x00\n        /* \"contracts/LiskGarden.sol\":562:573  0.001 ether */\n      0x038d7ea4c68000\n        /* \"contracts/LiskGarden.sol\":1339:1348  msg.value */\n      callvalue\n        /* \"contracts/LiskGarden.sol\":1339:1363  msg.value >= PLANT_PRICE */\n      lt\n      iszero\n        /* \"contracts/LiskGarden.sol\":1331:1391  require(msg.value >= PLANT_PRICE, \"Not enough ETH to plant\") */\n      tag_117\n      jumpi\n      mload(0x40)\n      0x08c379a000000000000000000000000000000000000000000000000000000000\n      dup2\n      mstore\n      0x04\n      add\n      tag_118\n      swap1\n      tag_119\n      jump\t// in\n    tag_118:\n      mload(0x40)\n      dup1\n      swap2\n      sub\n      swap1\n      revert\n    tag_117:\n        /* \"contracts/LiskGarden.sol\":1418:1419  1 */\n      0x01\n        /* \"contracts/LiskGarden.sol\":1402:1414  plantCounter */\n      0x02\n      0x00\n        /* \"contracts/LiskGarden.sol\":1402:1419  plantCounter += 1 */\n      dup3\n      dup3\n      sload\n      tag_120\n      swap2\n      swap1\n      tag_121\n      jump\t// in\n    tag_120:\n      swap3\n      pop\n      pop\n      dup2\n      swap1\n      sstore\n      pop\n        /* \"contracts/LiskGarden.sol\":1429:1442  uint256 newId */\n      0x00\n        /* \"contracts/LiskGarden.sol\":1445:1457  plantCounter */\n      sload(0x02)\n        /* \"contracts/LiskGarden.sol\":1429:1457  uint256 newId = plantCounter */\n      swap1\n      pop\n        /* \"contracts/LiskGarden.sol\":1468:1482  Plant memory p */\n      0x00\n        /* \"contracts/LiskGarden.sol\":1485:1759  Plant({... */\n      mload(0x40)\n      dup1\n      0x0100\n      add\n      0x40\n      mstore\n      dup1\n        /* \"contracts/LiskGarden.sol\":1509:1514  newId */\n      dup4\n        /* \"contracts/LiskGarden.sol\":1485:1759  Plant({... */\n      dup2\n      mstore\n      0x20\n      add\n        /* \"contracts/LiskGarden.sol\":1535:1545  msg.sender */\n      caller\n        /* \"contracts/LiskGarden.sol\":1485:1759  Plant({... */\n      0xffffffffffffffffffffffffffffffffffffffff\n      and\n      dup2\n      mstore\n      0x20\n      add\n        /* \"contracts/LiskGarden.sol\":1567:1571  true */\n      0x01\n        /* \"contracts/LiskGarden.sol\":1485:1759  Plant({... */\n      iszero\n      iszero\n      dup2\n      mstore\n      0x20\n      add\n        /* \"contracts/LiskGarden.sol\":1594:1598  true */\n      0x01\n        /* \"contracts/LiskGarden.sol\":1485:1759  Plant({... */\n      iszero\n      iszero\n      dup2\n      mstore\n      0x20\n      add\n        /* \"contracts/LiskGarden.sol\":1619:1635  GrowthStage.SEED */\n      0x00\n        /* \"contracts/LiskGarden.sol\":1485:1759  Plant({... */\n      0x03\n      dup2\n      gt\n      iszero\n      tag_122\n      jumpi\n      tag_123\n      tag_124\n      jump\t// in\n    tag_123:\n    tag_122:\n      dup2\n      mstore\n      0x20\n      add\n        /* \"contracts/LiskGarden.sol\":1662:1677  block.timestamp */\n      timestamp\n        /* \"contracts/LiskGarden.sol\":1485:1759  Plant({... */\n      dup2\n      mstore\n      0x20\n      add\n        /* \"contracts/LiskGarden.sol\":1704:1719  block.timestamp */\n      timestamp\n        /* \"contracts/LiskGarden.sol\":1485:1759  Plant({... */\n      dup2\n      mstore\n      0x20\n      add\n        /* \"contracts/LiskGarden.sol\":1745:1748  100 */\n      0x64\n        /* \"contracts/LiskGarden.sol\":1485:1759  Plant({... */\n      0xff\n      and\n      dup2\n      mstore\n      pop\n        /* \"contracts/LiskGarden.sol\":1468:1759  Plant memory p = Plant({... */\n      swap1\n      pop\n        /* \"contracts/LiskGarden.sol\":1786:1787  p */\n      dup1\n        /* \"contracts/LiskGarden.sol\":1770:1776  plants */\n      0x00\n        /* \"contracts/LiskGarden.sol\":1770:1783  plants[newId] */\n      0x00\n        /* \"contracts/LiskGarden.sol\":1777:1782  newId */\n      dup5\n        /* \"contracts/LiskGarden.sol\":1770:1783  plants[newId] */\n      dup2\n      mstore\n      0x20\n      add\n      swap1\n      dup2\n      mstore\n      0x20\n      add\n      0x00\n      keccak256\n        /* \"contracts/LiskGarden.sol\":1770:1787  plants[newId] = p */\n      0x00\n      dup3\n      add\n      mload\n      dup2\n      0x00\n      add\n      sstore\n      0x20\n      dup3\n      add\n      mload\n      dup2\n      0x01\n      add\n      exp(0x0100, 0x00)\n      dup2\n      sload\n      dup2\n      0xffffffffffffffffffffffffffffffffffffffff\n      mul\n      not\n      and\n      swap1\n      dup4\n      0xffffffffffffffffffffffffffffffffffffffff\n      and\n      mul\n      or\n      swap1\n      sstore\n      pop\n      0x40\n      dup3\n      add\n      mload\n      dup2\n      0x01\n      add\n      exp(0x0100, 0x14)\n      dup2\n      sload\n      dup2\n      0xff\n      mul\n      not\n      and\n      swap1\n      dup4\n      iszero\n      iszero\n      mul\n      or\n      swap1\n      sstore\n      pop\n      0x60\n      dup3\n      add\n      mload\n      dup2\n      0x01\n      add\n      exp(0x0100, 0x15)\n      dup2\n      sload\n      dup2\n      0xff\n      mul\n      not\n      and\n      swap1\n      dup4\n      iszero\n      iszero\n      mul\n      or\n      swap1\n      sstore\n      pop\n      0x80\n      dup3\n      add\n      mload\n      dup2\n      0x01\n      add\n      exp(0x0100, 0x16)\n      dup2\n      sload\n      dup2\n      0xff\n      mul\n      not\n      and\n      swap1\n      dup4\n      0x03\n      dup2\n      gt\n      iszero\n      tag_125\n      jumpi\n      tag_126\n      tag_124\n      jump\t// in\n    tag_126:\n    tag_125:\n      mul\n      or\n      swap1\n      sstore\n      pop\n      0xa0\n      dup3\n      add\n      mload\n      dup2\n      0x02\n      add\n      sstore\n      0xc0\n      dup3\n      add\n      mload\n      dup2\n      0x03\n      add\n      sstore\n      0xe0\n      dup3\n      add\n      mload\n      dup2\n      0x04\n      add\n      exp(0x0100, 0x00)\n      dup2\n      sload\n      dup2\n      0xff\n      mul\n      not\n      and\n      swap1\n      dup4\n      0xff\n      and\n      mul\n      or\n      swap1\n      sstore\n      pop\n      swap1\n      pop\n      pop\n        /* \"contracts/LiskGarden.sol\":1797:1807  userPlants */\n      0x01\n        /* \"contracts/LiskGarden.sol\":1797:1819  userPlants[msg.sender] */\n      0x00\n        /* \"contracts/LiskGarden.sol\":1808:1818  msg.sender */\n      caller\n        /* \"contracts/LiskGarden.sol\":1797:1819  userPlants[msg.sender] */\n      0xffffffffffffffffffffffffffffffffffffffff\n      and\n      0xffffffffffffffffffffffffffffffffffffffff\n      and\n      dup2\n      mstore\n      0x20\n      add\n      swap1\n      dup2\n      mstore\n      0x20\n      add\n      0x00\n      keccak256\n        /* \"contracts/LiskGarden.sol\":1825:1830  newId */\n      dup3\n        /* \"contracts/LiskGarden.sol\":1797:1831  userPlants[msg.sender].push(newId) */\n      swap1\n      dup1\n      0x01\n      dup2\n      sload\n      add\n      dup1\n      dup3\n      sstore\n      dup1\n      swap2\n      pop\n      pop\n      0x01\n      swap1\n      sub\n      swap1\n      0x00\n      mstore\n      keccak256(0x00, 0x20)\n      add\n      0x00\n      swap1\n      swap2\n      swap1\n      swap2\n      swap1\n      swap2\n      pop\n      sstore\n        /* \"contracts/LiskGarden.sol\":1871:1876  newId */\n      dup2\n        /* \"contracts/LiskGarden.sol\":1859:1869  msg.sender */\n      caller\n        /* \"contracts/LiskGarden.sol\":1847:1877  PlantSeeded(msg.sender, newId) */\n      0xffffffffffffffffffffffffffffffffffffffff\n      and\n      0x4f5b22082ac57121703b0b6c1203ef527cfbfa5069616fee6deb979d124adbf0\n      mload(0x40)\n      mload(0x40)\n      dup1\n      swap2\n      sub\n      swap1\n      log3\n        /* \"contracts/LiskGarden.sol\":1894:1899  newId */\n      dup2\n        /* \"contracts/LiskGarden.sol\":1887:1899  return newId */\n      swap3\n      pop\n      pop\n      pop\n        /* \"contracts/LiskGarden.sol\":1265:1906  function plantSeed() external payable returns (uint256) {... */\n      swap1\n      jump\t// out\n        /* \"contracts/LiskGarden.sol\":1912:2570  function calculateWaterLevel(uint256 plantId) public view returns (uint8) {... */\n    tag_46:\n        /* \"contracts/LiskGarden.sol\":1979:1984  uint8 */\n      0x00\n        /* \"contracts/LiskGarden.sol\":1996:2015  Plant storage plant */\n      0x00\n        /* \"contracts/LiskGarden.sol\":2018:2024  plants */\n      0x00\n        /* \"contracts/LiskGarden.sol\":2018:2033  plants[plantId] */\n      0x00\n        /* \"contracts/LiskGarden.sol\":2025:2032  plantId */\n      dup5\n        /* \"contracts/LiskGarden.sol\":2018:2033  plants[plantId] */\n      dup2\n      mstore\n      0x20\n      add\n      swap1\n      dup2\n      mstore\n      0x20\n      add\n      0x00\n      keccak256\n        /* \"contracts/LiskGarden.sol\":1996:2033  Plant storage plant = plants[plantId] */\n      swap1\n      pop\n        /* \"contracts/LiskGarden.sol\":2048:2053  plant */\n      dup1\n        /* \"contracts/LiskGarden.sol\":2048:2060  plant.exists */\n      0x01\n      add\n      0x14\n      swap1\n      sload\n      swap1\n      0x0100\n      exp\n      swap1\n      div\n      0xff\n      and\n        /* \"contracts/LiskGarden.sol\":2047:2060  !plant.exists */\n      iszero\n        /* \"contracts/LiskGarden.sol\":2047:2078  !plant.exists || !plant.isAlive */\n      dup1\n      tag_129\n      jumpi\n      pop\n        /* \"contracts/LiskGarden.sol\":2065:2070  plant */\n      dup1\n        /* \"contracts/LiskGarden.sol\":2065:2078  plant.isAlive */\n      0x01\n      add\n      0x15\n      swap1\n      sload\n      swap1\n      0x0100\n      exp\n      swap1\n      div\n      0xff\n      and\n        /* \"contracts/LiskGarden.sol\":2064:2078  !plant.isAlive */\n      iszero\n        /* \"contracts/LiskGarden.sol\":2047:2078  !plant.exists || !plant.isAlive */\n    tag_129:\n        /* \"contracts/LiskGarden.sol\":2043:2113  if (!plant.exists || !plant.isAlive) {... */\n      iszero\n      tag_130\n      jumpi\n        /* \"contracts/LiskGarden.sol\":2101:2102  0 */\n      0x00\n        /* \"contracts/LiskGarden.sol\":2094:2102  return 0 */\n      swap2\n      pop\n      pop\n      jump(tag_128)\n        /* \"contracts/LiskGarden.sol\":2043:2113  if (!plant.exists || !plant.isAlive) {... */\n    tag_130:\n        /* \"contracts/LiskGarden.sol\":2123:2138  uint256 elapsed */\n      0x00\n        /* \"contracts/LiskGarden.sol\":2159:2164  plant */\n      dup2\n        /* \"contracts/LiskGarden.sol\":2159:2176  plant.lastWatered */\n      0x03\n      add\n      sload\n        /* \"contracts/LiskGarden.sol\":2141:2156  block.timestamp */\n      timestamp\n        /* \"contracts/LiskGarden.sol\":2141:2176  block.timestamp - plant.lastWatered */\n      tag_131\n      swap2\n      swap1\n      tag_132\n      jump\t// in\n    tag_131:\n        /* \"contracts/LiskGarden.sol\":2123:2176  uint256 elapsed = block.timestamp - plant.lastWatered */\n      swap1\n      pop\n        /* \"contracts/LiskGarden.sol\":2186:2203  uint256 intervals */\n      0x00\n        /* \"contracts/LiskGarden.sol\":740:750  30 seconds */\n      0x1e\n        /* \"contracts/LiskGarden.sol\":2206:2213  elapsed */\n      dup3\n        /* \"contracts/LiskGarden.sol\":2206:2236  elapsed / WATER_DEPLETION_TIME */\n      tag_133\n      swap2\n      swap1\n      tag_134\n      jump\t// in\n    tag_133:\n        /* \"contracts/LiskGarden.sol\":2186:2236  uint256 intervals = elapsed / WATER_DEPLETION_TIME */\n      swap1\n      pop\n        /* \"contracts/LiskGarden.sol\":2247:2264  uint256 waterLost */\n      0x00\n        /* \"contracts/LiskGarden.sol\":802:803  2 */\n      0x02\n        /* \"contracts/LiskGarden.sol\":2279:2308  uint256(WATER_DEPLETION_RATE) */\n      0xff\n      and\n        /* \"contracts/LiskGarden.sol\":2267:2276  intervals */\n      dup3\n        /* \"contracts/LiskGarden.sol\":2267:2308  intervals * uint256(WATER_DEPLETION_RATE) */\n      tag_135\n      swap2\n      swap1\n      tag_136\n      jump\t// in\n    tag_135:\n        /* \"contracts/LiskGarden.sol\":2247:2308  uint256 waterLost = intervals * uint256(WATER_DEPLETION_RATE) */\n      swap1\n      pop\n        /* \"contracts/LiskGarden.sol\":2336:2341  plant */\n      dup4\n        /* \"contracts/LiskGarden.sol\":2336:2352  plant.waterLevel */\n      0x04\n      add\n      0x00\n      swap1\n      sload\n      swap1\n      0x0100\n      exp\n      swap1\n      div\n      0xff\n      and\n        /* \"contracts/LiskGarden.sol\":2323:2352  waterLost >= plant.waterLevel */\n      0xff\n      and\n        /* \"contracts/LiskGarden.sol\":2323:2332  waterLost */\n      dup2\n        /* \"contracts/LiskGarden.sol\":2323:2352  waterLost >= plant.waterLevel */\n      lt\n        /* \"contracts/LiskGarden.sol\":2319:2564  if (waterLost >= plant.waterLevel) {... */\n      tag_137\n      jumpi\n        /* \"contracts/LiskGarden.sol\":2375:2376  0 */\n      0x00\n        /* \"contracts/LiskGarden.sol\":2368:2376  return 0 */\n      swap5\n      pop\n      pop\n      pop\n      pop\n      pop\n      jump(tag_128)\n        /* \"contracts/LiskGarden.sol\":2319:2564  if (waterLost >= plant.waterLevel) {... */\n    tag_137:\n        /* \"contracts/LiskGarden.sol\":2407:2423  uint256 newLevel */\n      0x00\n        /* \"contracts/LiskGarden.sol\":2454:2463  waterLost */\n      dup2\n        /* \"contracts/LiskGarden.sol\":2434:2439  plant */\n      dup6\n        /* \"contracts/LiskGarden.sol\":2434:2450  plant.waterLevel */\n      0x04\n      add\n      0x00\n      swap1\n      sload\n      swap1\n      0x0100\n      exp\n      swap1\n      div\n      0xff\n      and\n        /* \"contracts/LiskGarden.sol\":2426:2451  uint256(plant.waterLevel) */\n      0xff\n      and\n        /* \"contracts/LiskGarden.sol\":2426:2463  uint256(plant.waterLevel) - waterLost */\n      tag_139\n      swap2\n      swap1\n      tag_132\n      jump\t// in\n    tag_139:\n        /* \"contracts/LiskGarden.sol\":2407:2463  uint256 newLevel = uint256(plant.waterLevel) - waterLost */\n      swap1\n      pop\n        /* \"contracts/LiskGarden.sol\":2492:2495  100 */\n      0x64\n        /* \"contracts/LiskGarden.sol\":2481:2489  newLevel */\n      dup2\n        /* \"contracts/LiskGarden.sol\":2481:2495  newLevel > 100 */\n      gt\n        /* \"contracts/LiskGarden.sol\":2477:2507  if (newLevel > 100) return 100 */\n      iszero\n      tag_140\n      jumpi\n        /* \"contracts/LiskGarden.sol\":2504:2507  100 */\n      0x64\n        /* \"contracts/LiskGarden.sol\":2497:2507  return 100 */\n      swap6\n      pop\n      pop\n      pop\n      pop\n      pop\n      pop\n      jump(tag_128)\n        /* \"contracts/LiskGarden.sol\":2477:2507  if (newLevel > 100) return 100 */\n    tag_140:\n        /* \"contracts/LiskGarden.sol\":2544:2552  newLevel */\n      dup1\n        /* \"contracts/LiskGarden.sol\":2531:2553  return uint8(newLevel) */\n      swap6\n      pop\n      pop\n      pop\n      pop\n      pop\n      pop\n        /* \"contracts/LiskGarden.sol\":1912:2570  function calculateWaterLevel(uint256 plantId) public view returns (uint8) {... */\n    tag_128:\n      swap2\n      swap1\n      pop\n      jump\t// out\n        /* \"contracts/LiskGarden.sol\":693:750  uint256 public constant WATER_DEPLETION_TIME = 30 seconds */\n    tag_51:\n        /* \"contracts/LiskGarden.sol\":740:750  30 seconds */\n      0x1e\n        /* \"contracts/LiskGarden.sol\":693:750  uint256 public constant WATER_DEPLETION_TIME = 30 seconds */\n      dup2\n      jump\t// out\n        /* \"contracts/LiskGarden.sol\":579:631  uint256 public constant HARVEST_REWARD = 0.003 ether */\n    tag_55:\n        /* \"contracts/LiskGarden.sol\":620:631  0.003 ether */\n      0x0aa87bee538000\n        /* \"contracts/LiskGarden.sol\":579:631  uint256 public constant HARVEST_REWARD = 0.003 ether */\n      dup2\n      jump\t// out\n        /* \"contracts/LiskGarden.sol\":497:517  address public owner */\n    tag_59:\n      0x03\n      0x00\n      swap1\n      sload\n      swap1\n      0x0100\n      exp\n      swap1\n      div\n      0xffffffffffffffffffffffffffffffffffffffff\n      and\n      dup2\n      jump\t// out\n        /* \"contracts/LiskGarden.sol\":365:404  mapping(uint256 => Plant) public plants */\n    tag_65:\n      mstore(0x20, 0x00)\n      dup1\n      0x00\n      mstore\n      keccak256(0x00, 0x40)\n      0x00\n      swap2\n      pop\n      swap1\n      pop\n      dup1\n      0x00\n      add\n      sload\n      swap1\n      dup1\n      0x01\n      add\n      0x00\n      swap1\n      sload\n      swap1\n      0x0100\n      exp\n      swap1\n      div\n      0xffffffffffffffffffffffffffffffffffffffff\n      and\n      swap1\n      dup1\n      0x01\n      add\n      0x14\n      swap1\n      sload\n      swap1\n      0x0100\n      exp\n      swap1\n      div\n      0xff\n      and\n      swap1\n      dup1\n      0x01\n      add\n      0x15\n      swap1\n      sload\n      swap1\n      0x0100\n      exp\n      swap1\n      div\n      0xff\n      and\n      swap1\n      dup1\n      0x01\n      add\n      0x16\n      swap1\n      sload\n      swap1\n      0x0100\n      exp\n      swap1\n      div\n      0xff\n      and\n      swap1\n      dup1\n      0x02\n      add\n      sload\n      swap1\n      dup1\n      0x03\n      add\n      sload\n      swap1\n      dup1\n      0x04\n      add\n      0x00\n      swap1\n      sload\n      swap1\n      0x0100\n      exp\n      swap1\n      div\n      0xff\n      and\n      swap1\n      pop\n      dup9\n      jump\t// out\n        /* \"contracts/LiskGarden.sol\":2978:3517  function waterPlant(uint256 plantId) external {... */\n    tag_71:\n        /* \"contracts/LiskGarden.sol\":3034:3053  Plant storage plant */\n      0x00\n        /* \"contracts/LiskGarden.sol\":3056:3062  plants */\n      0x00\n        /* \"contracts/LiskGarden.sol\":3056:3071  plants[plantId] */\n      0x00\n        /* \"contracts/LiskGarden.sol\":3063:3070  plantId */\n      dup4\n        /* \"contracts/LiskGarden.sol\":3056:3071  plants[plantId] */\n      dup2\n      mstore\n      0x20\n      add\n      swap1\n      dup2\n      mstore\n      0x20\n      add\n      0x00\n      keccak256\n        /* \"contracts/LiskGarden.sol\":3034:3071  Plant storage plant = plants[plantId] */\n      swap1\n      pop\n        /* \"contracts/LiskGarden.sol\":3089:3094  plant */\n      dup1\n        /* \"contracts/LiskGarden.sol\":3089:3101  plant.exists */\n      0x01\n      add\n      0x14\n      swap1\n      sload\n      swap1\n      0x0100\n      exp\n      swap1\n      div\n      0xff\n      and\n        /* \"contracts/LiskGarden.sol\":3081:3126  require(plant.exists, \"Plant does not exist\") */\n      tag_142\n      jumpi\n      mload(0x40)\n      0x08c379a000000000000000000000000000000000000000000000000000000000\n      dup2\n      mstore\n      0x04\n      add\n      tag_143\n      swap1\n      tag_144\n      jump\t// in\n    tag_143:\n      mload(0x40)\n      dup1\n      swap2\n      sub\n      swap1\n      revert\n    tag_142:\n        /* \"contracts/LiskGarden.sol\":3159:3169  msg.sender */\n      caller\n        /* \"contracts/LiskGarden.sol\":3144:3169  plant.owner == msg.sender */\n      0xffffffffffffffffffffffffffffffffffffffff\n      and\n        /* \"contracts/LiskGarden.sol\":3144:3149  plant */\n      dup2\n        /* \"contracts/LiskGarden.sol\":3144:3155  plant.owner */\n      0x01\n      add\n      0x00\n      swap1\n      sload\n      swap1\n      0x0100\n      exp\n      swap1\n      div\n      0xffffffffffffffffffffffffffffffffffffffff\n      and\n        /* \"contracts/LiskGarden.sol\":3144:3169  plant.owner == msg.sender */\n      0xffffffffffffffffffffffffffffffffffffffff\n      and\n      eq\n        /* \"contracts/LiskGarden.sol\":3136:3194  require(plant.owner == msg.sender, \"Only owner can water\") */\n      tag_145\n      jumpi\n      mload(0x40)\n      0x08c379a000000000000000000000000000000000000000000000000000000000\n      dup2\n      mstore\n      0x04\n      add\n      tag_146\n      swap1\n      tag_147\n      jump\t// in\n    tag_146:\n      mload(0x40)\n      dup1\n      swap2\n      sub\n      swap1\n      revert\n    tag_145:\n        /* \"contracts/LiskGarden.sol\":3212:3217  plant */\n      dup1\n        /* \"contracts/LiskGarden.sol\":3212:3225  plant.isAlive */\n      0x01\n      add\n      0x15\n      swap1\n      sload\n      swap1\n      0x0100\n      exp\n      swap1\n      div\n      0xff\n      and\n        /* \"contracts/LiskGarden.sol\":3204:3243  require(plant.isAlive, \"Plant is dead\") */\n      tag_148\n      jumpi\n      mload(0x40)\n      0x08c379a000000000000000000000000000000000000000000000000000000000\n      dup2\n      mstore\n      0x04\n      add\n      tag_149\n      swap1\n      tag_150\n      jump\t// in\n    tag_149:\n      mload(0x40)\n      dup1\n      swap2\n      sub\n      swap1\n      revert\n    tag_148:\n        /* \"contracts/LiskGarden.sol\":3254:3279  updateWaterLevel(plantId) */\n      tag_151\n        /* \"contracts/LiskGarden.sol\":3271:3278  plantId */\n      dup3\n        /* \"contracts/LiskGarden.sol\":3254:3270  updateWaterLevel */\n      tag_152\n        /* \"contracts/LiskGarden.sol\":3254:3279  updateWaterLevel(plantId) */\n      jump\t// in\n    tag_151:\n        /* \"contracts/LiskGarden.sol\":3297:3302  plant */\n      dup1\n        /* \"contracts/LiskGarden.sol\":3297:3310  plant.isAlive */\n      0x01\n      add\n      0x15\n      swap1\n      sload\n      swap1\n      0x0100\n      exp\n      swap1\n      div\n      0xff\n      and\n        /* \"contracts/LiskGarden.sol\":3289:3341  require(plant.isAlive, \"Plant died before watering\") */\n      tag_153\n      jumpi\n      mload(0x40)\n      0x08c379a000000000000000000000000000000000000000000000000000000000\n      dup2\n      mstore\n      0x04\n      add\n      tag_154\n      swap1\n      tag_155\n      jump\t// in\n    tag_154:\n      mload(0x40)\n      dup1\n      swap2\n      sub\n      swap1\n      revert\n    tag_153:\n        /* \"contracts/LiskGarden.sol\":3371:3374  100 */\n      0x64\n        /* \"contracts/LiskGarden.sol\":3352:3357  plant */\n      dup2\n        /* \"contracts/LiskGarden.sol\":3352:3368  plant.waterLevel */\n      0x04\n      add\n      0x00\n        /* \"contracts/LiskGarden.sol\":3352:3374  plant.waterLevel = 100 */\n      0x0100\n      exp\n      dup2\n      sload\n      dup2\n      0xff\n      mul\n      not\n      and\n      swap1\n      dup4\n      0xff\n      and\n      mul\n      or\n      swap1\n      sstore\n      pop\n        /* \"contracts/LiskGarden.sol\":3404:3419  block.timestamp */\n      timestamp\n        /* \"contracts/LiskGarden.sol\":3384:3389  plant */\n      dup2\n        /* \"contracts/LiskGarden.sol\":3384:3401  plant.lastWatered */\n      0x03\n      add\n        /* \"contracts/LiskGarden.sol\":3384:3419  plant.lastWatered = block.timestamp */\n      dup2\n      swap1\n      sstore\n      pop\n        /* \"contracts/LiskGarden.sol\":3448:3455  plantId */\n      dup2\n        /* \"contracts/LiskGarden.sol\":3435:3474  PlantWatered(plantId, plant.waterLevel) */\n      0xd4b742b9ba48fffa1f14267075a7793851770764117c423fd0a6550dfc8cb574\n        /* \"contracts/LiskGarden.sol\":3457:3462  plant */\n      dup3\n        /* \"contracts/LiskGarden.sol\":3457:3473  plant.waterLevel */\n      0x04\n      add\n      0x00\n      swap1\n      sload\n      swap1\n      0x0100\n      exp\n      swap1\n      div\n      0xff\n      and\n        /* \"contracts/LiskGarden.sol\":3435:3474  PlantWatered(plantId, plant.waterLevel) */\n      mload(0x40)\n      tag_156\n      swap2\n      swap1\n      tag_48\n      jump\t// in\n    tag_156:\n      mload(0x40)\n      dup1\n      swap2\n      sub\n      swap1\n      log2\n        /* \"contracts/LiskGarden.sol\":3485:3510  updatePlantStage(plantId) */\n      tag_157\n        /* \"contracts/LiskGarden.sol\":3502:3509  plantId */\n      dup3\n        /* \"contracts/LiskGarden.sol\":3485:3501  updatePlantStage */\n      tag_87\n        /* \"contracts/LiskGarden.sol\":3485:3510  updatePlantStage(plantId) */\n      jump\t// in\n    tag_157:\n        /* \"contracts/LiskGarden.sol\":3024:3517  {... */\n      pop\n        /* \"contracts/LiskGarden.sol\":2978:3517  function waterPlant(uint256 plantId) external {... */\n      pop\n      jump\t// out\n        /* \"contracts/LiskGarden.sol\":464:491  uint256 public plantCounter */\n    tag_74:\n      sload(0x02)\n      dup2\n      jump\t// out\n        /* \"contracts/LiskGarden.sol\":756:803  uint8  public constant WATER_DEPLETION_RATE = 2 */\n    tag_78:\n        /* \"contracts/LiskGarden.sol\":802:803  2 */\n      0x02\n        /* \"contracts/LiskGarden.sol\":756:803  uint8  public constant WATER_DEPLETION_RATE = 2 */\n      dup2\n      jump\t// out\n        /* \"contracts/LiskGarden.sol\":524:573  uint256 public constant PLANT_PRICE = 0.001 ether */\n    tag_82:\n        /* \"contracts/LiskGarden.sol\":562:573  0.001 ether */\n      0x038d7ea4c68000\n        /* \"contracts/LiskGarden.sol\":524:573  uint256 public constant PLANT_PRICE = 0.001 ether */\n      dup2\n      jump\t// out\n        /* \"contracts/LiskGarden.sol\":3523:4279  function updatePlantStage(uint256 plantId) public {... */\n    tag_87:\n        /* \"contracts/LiskGarden.sol\":3583:3602  Plant storage plant */\n      0x00\n        /* \"contracts/LiskGarden.sol\":3605:3611  plants */\n      0x00\n        /* \"contracts/LiskGarden.sol\":3605:3620  plants[plantId] */\n      0x00\n        /* \"contracts/LiskGarden.sol\":3612:3619  plantId */\n      dup4\n        /* \"contracts/LiskGarden.sol\":3605:3620  plants[plantId] */\n      dup2\n      mstore\n      0x20\n      add\n      swap1\n      dup2\n      mstore\n      0x20\n      add\n      0x00\n      keccak256\n        /* \"contracts/LiskGarden.sol\":3583:3620  Plant storage plant = plants[plantId] */\n      swap1\n      pop\n        /* \"contracts/LiskGarden.sol\":3635:3640  plant */\n      dup1\n        /* \"contracts/LiskGarden.sol\":3635:3647  plant.exists */\n      0x01\n      add\n      0x14\n      swap1\n      sload\n      swap1\n      0x0100\n      exp\n      swap1\n      div\n      0xff\n      and\n        /* \"contracts/LiskGarden.sol\":3634:3647  !plant.exists */\n      iszero\n        /* \"contracts/LiskGarden.sol\":3634:3665  !plant.exists || !plant.isAlive */\n      dup1\n      tag_159\n      jumpi\n      pop\n        /* \"contracts/LiskGarden.sol\":3652:3657  plant */\n      dup1\n        /* \"contracts/LiskGarden.sol\":3652:3665  plant.isAlive */\n      0x01\n      add\n      0x15\n      swap1\n      sload\n      swap1\n      0x0100\n      exp\n      swap1\n      div\n      0xff\n      and\n        /* \"contracts/LiskGarden.sol\":3651:3665  !plant.isAlive */\n      iszero\n        /* \"contracts/LiskGarden.sol\":3634:3665  !plant.exists || !plant.isAlive */\n    tag_159:\n        /* \"contracts/LiskGarden.sol\":3630:3674  if (!plant.exists || !plant.isAlive) return; */\n      iszero\n      tag_160\n      jumpi\n        /* \"contracts/LiskGarden.sol\":3667:3674  return; */\n      pop\n      jump(tag_158)\n        /* \"contracts/LiskGarden.sol\":3630:3674  if (!plant.exists || !plant.isAlive) return; */\n    tag_160:\n        /* \"contracts/LiskGarden.sol\":3684:3699  uint256 elapsed */\n      0x00\n        /* \"contracts/LiskGarden.sol\":3720:3725  plant */\n      dup2\n        /* \"contracts/LiskGarden.sol\":3720:3737  plant.plantedTime */\n      0x02\n      add\n      sload\n        /* \"contracts/LiskGarden.sol\":3702:3717  block.timestamp */\n      timestamp\n        /* \"contracts/LiskGarden.sol\":3702:3737  block.timestamp - plant.plantedTime */\n      tag_161\n      swap2\n      swap1\n      tag_132\n      jump\t// in\n    tag_161:\n        /* \"contracts/LiskGarden.sol\":3684:3737  uint256 elapsed = block.timestamp - plant.plantedTime */\n      swap1\n      pop\n        /* \"contracts/LiskGarden.sol\":3747:3765  uint256 stageIndex */\n      0x00\n        /* \"contracts/LiskGarden.sol\":678:687  1 minutes */\n      0x3c\n        /* \"contracts/LiskGarden.sol\":3768:3775  elapsed */\n      dup3\n        /* \"contracts/LiskGarden.sol\":3768:3792  elapsed / STAGE_DURATION */\n      tag_162\n      swap2\n      swap1\n      tag_134\n      jump\t// in\n    tag_162:\n        /* \"contracts/LiskGarden.sol\":3747:3792  uint256 stageIndex = elapsed / STAGE_DURATION */\n      swap1\n      pop\n        /* \"contracts/LiskGarden.sol\":3821:3822  3 */\n      0x03\n        /* \"contracts/LiskGarden.sol\":3807:3817  stageIndex */\n      dup2\n        /* \"contracts/LiskGarden.sol\":3807:3822  stageIndex >= 3 */\n      lt\n        /* \"contracts/LiskGarden.sol\":3803:4273  if (stageIndex >= 3) {... */\n      tag_163\n      jumpi\n        /* \"contracts/LiskGarden.sol\":3857:3877  GrowthStage.BLOOMING */\n      0x03\n        /* \"contracts/LiskGarden.sol\":3842:3877  plant.stage != GrowthStage.BLOOMING */\n      dup1\n      dup2\n      gt\n      iszero\n      tag_164\n      jumpi\n      tag_165\n      tag_124\n      jump\t// in\n    tag_165:\n    tag_164:\n        /* \"contracts/LiskGarden.sol\":3842:3847  plant */\n      dup4\n        /* \"contracts/LiskGarden.sol\":3842:3853  plant.stage */\n      0x01\n      add\n      0x16\n      swap1\n      sload\n      swap1\n      0x0100\n      exp\n      swap1\n      div\n      0xff\n      and\n        /* \"contracts/LiskGarden.sol\":3842:3877  plant.stage != GrowthStage.BLOOMING */\n      0x03\n      dup2\n      gt\n      iszero\n      tag_166\n      jumpi\n      tag_167\n      tag_124\n      jump\t// in\n    tag_167:\n    tag_166:\n      eq\n        /* \"contracts/LiskGarden.sol\":3838:4004  if (plant.stage != GrowthStage.BLOOMING) {... */\n      tag_168\n      jumpi\n        /* \"contracts/LiskGarden.sol\":3911:3931  GrowthStage.BLOOMING */\n      0x03\n        /* \"contracts/LiskGarden.sol\":3897:3902  plant */\n      dup4\n        /* \"contracts/LiskGarden.sol\":3897:3908  plant.stage */\n      0x01\n      add\n      0x16\n        /* \"contracts/LiskGarden.sol\":3897:3931  plant.stage = GrowthStage.BLOOMING */\n      0x0100\n      exp\n      dup2\n      sload\n      dup2\n      0xff\n      mul\n      not\n      and\n      swap1\n      dup4\n      0x03\n      dup2\n      gt\n      iszero\n      tag_169\n      jumpi\n      tag_170\n      tag_124\n      jump\t// in\n    tag_170:\n    tag_169:\n      mul\n      or\n      swap1\n      sstore\n      pop\n        /* \"contracts/LiskGarden.sol\":3968:3975  plantId */\n      dup4\n        /* \"contracts/LiskGarden.sol\":3954:3989  StageAdvanced(plantId, plant.stage) */\n      0x338b8976706f9da67298dddfa1ea4ff7d99cce68b9ca39c4f348994f8e2124a8\n        /* \"contracts/LiskGarden.sol\":3977:3982  plant */\n      dup5\n        /* \"contracts/LiskGarden.sol\":3977:3988  plant.stage */\n      0x01\n      add\n      0x16\n      swap1\n      sload\n      swap1\n      0x0100\n      exp\n      swap1\n      div\n      0xff\n      and\n        /* \"contracts/LiskGarden.sol\":3954:3989  StageAdvanced(plantId, plant.stage) */\n      mload(0x40)\n      tag_171\n      swap2\n      swap1\n      tag_172\n      jump\t// in\n    tag_171:\n      mload(0x40)\n      dup1\n      swap2\n      sub\n      swap1\n      log2\n        /* \"contracts/LiskGarden.sol\":3838:4004  if (plant.stage != GrowthStage.BLOOMING) {... */\n    tag_168:\n        /* \"contracts/LiskGarden.sol\":4017:4024  return; */\n      pop\n      pop\n      pop\n      jump(tag_158)\n        /* \"contracts/LiskGarden.sol\":3803:4273  if (stageIndex >= 3) {... */\n    tag_163:\n        /* \"contracts/LiskGarden.sol\":4054:4074  GrowthStage newStage */\n      0x00\n        /* \"contracts/LiskGarden.sol\":4095:4105  stageIndex */\n      dup2\n        /* \"contracts/LiskGarden.sol\":4077:4107  GrowthStage(uint8(stageIndex)) */\n      0xff\n      and\n      0x03\n      dup2\n      gt\n      iszero\n      tag_174\n      jumpi\n      tag_175\n      tag_124\n      jump\t// in\n    tag_175:\n    tag_174:\n        /* \"contracts/LiskGarden.sol\":4054:4107  GrowthStage newStage = GrowthStage(uint8(stageIndex)) */\n      swap1\n      pop\n        /* \"contracts/LiskGarden.sol\":4137:4142  plant */\n      dup4\n        /* \"contracts/LiskGarden.sol\":4137:4148  plant.stage */\n      0x01\n      add\n      0x16\n      swap1\n      sload\n      swap1\n      0x0100\n      exp\n      swap1\n      div\n      0xff\n      and\n        /* \"contracts/LiskGarden.sol\":4125:4148  newStage != plant.stage */\n      0x03\n      dup2\n      gt\n      iszero\n      tag_176\n      jumpi\n      tag_177\n      tag_124\n      jump\t// in\n    tag_177:\n    tag_176:\n        /* \"contracts/LiskGarden.sol\":4125:4133  newStage */\n      dup2\n        /* \"contracts/LiskGarden.sol\":4125:4148  newStage != plant.stage */\n      0x03\n      dup2\n      gt\n      iszero\n      tag_178\n      jumpi\n      tag_179\n      tag_124\n      jump\t// in\n    tag_179:\n    tag_178:\n      eq\n        /* \"contracts/LiskGarden.sol\":4121:4263  if (newStage != plant.stage) {... */\n      tag_180\n      jumpi\n        /* \"contracts/LiskGarden.sol\":4182:4190  newStage */\n      dup1\n        /* \"contracts/LiskGarden.sol\":4168:4173  plant */\n      dup5\n        /* \"contracts/LiskGarden.sol\":4168:4179  plant.stage */\n      0x01\n      add\n      0x16\n        /* \"contracts/LiskGarden.sol\":4168:4190  plant.stage = newStage */\n      0x0100\n      exp\n      dup2\n      sload\n      dup2\n      0xff\n      mul\n      not\n      and\n      swap1\n      dup4\n      0x03\n      dup2\n      gt\n      iszero\n      tag_181\n      jumpi\n      tag_182\n      tag_124\n      jump\t// in\n    tag_182:\n    tag_181:\n      mul\n      or\n      swap1\n      sstore\n      pop\n        /* \"contracts/LiskGarden.sol\":4227:4234  plantId */\n      dup5\n        /* \"contracts/LiskGarden.sol\":4213:4248  StageAdvanced(plantId, plant.stage) */\n      0x338b8976706f9da67298dddfa1ea4ff7d99cce68b9ca39c4f348994f8e2124a8\n        /* \"contracts/LiskGarden.sol\":4236:4241  plant */\n      dup6\n        /* \"contracts/LiskGarden.sol\":4236:4247  plant.stage */\n      0x01\n      add\n      0x16\n      swap1\n      sload\n      swap1\n      0x0100\n      exp\n      swap1\n      div\n      0xff\n      and\n        /* \"contracts/LiskGarden.sol\":4213:4248  StageAdvanced(plantId, plant.stage) */\n      mload(0x40)\n      tag_183\n      swap2\n      swap1\n      tag_172\n      jump\t// in\n    tag_183:\n      mload(0x40)\n      dup1\n      swap2\n      sub\n      swap1\n      log2\n        /* \"contracts/LiskGarden.sol\":4121:4263  if (newStage != plant.stage) {... */\n    tag_180:\n        /* \"contracts/LiskGarden.sol\":4040:4273  {... */\n      pop\n        /* \"contracts/LiskGarden.sol\":3573:4279  {... */\n      pop\n      pop\n      pop\n        /* \"contracts/LiskGarden.sol\":3523:4279  function updatePlantStage(uint256 plantId) public {... */\n    tag_158:\n      pop\n      jump\t// out\n        /* \"contracts/LiskGarden.sol\":4285:5128  function harvestPlant(uint256 plantId) external {... */\n    tag_91:\n        /* \"contracts/LiskGarden.sol\":4343:4362  Plant storage plant */\n      0x00\n        /* \"contracts/LiskGarden.sol\":4365:4371  plants */\n      0x00\n        /* \"contracts/LiskGarden.sol\":4365:4380  plants[plantId] */\n      0x00\n        /* \"contracts/LiskGarden.sol\":4372:4379  plantId */\n      dup4\n        /* \"contracts/LiskGarden.sol\":4365:4380  plants[plantId] */\n      dup2\n      mstore\n      0x20\n      add\n      swap1\n      dup2\n      mstore\n      0x20\n      add\n      0x00\n      keccak256\n        /* \"contracts/LiskGarden.sol\":4343:4380  Plant storage plant = plants[plantId] */\n      swap1\n      pop\n        /* \"contracts/LiskGarden.sol\":4398:4403  plant */\n      dup1\n        /* \"contracts/LiskGarden.sol\":4398:4410  plant.exists */\n      0x01\n      add\n      0x14\n      swap1\n      sload\n      swap1\n      0x0100\n      exp\n      swap1\n      div\n      0xff\n      and\n        /* \"contracts/LiskGarden.sol\":4390:4435  require(plant.exists, \"Plant does not exist\") */\n      tag_185\n      jumpi\n      mload(0x40)\n      0x08c379a000000000000000000000000000000000000000000000000000000000\n      dup2\n      mstore\n      0x04\n      add\n      tag_186\n      swap1\n      tag_144\n      jump\t// in\n    tag_186:\n      mload(0x40)\n      dup1\n      swap2\n      sub\n      swap1\n      revert\n    tag_185:\n        /* \"contracts/LiskGarden.sol\":4468:4478  msg.sender */\n      caller\n        /* \"contracts/LiskGarden.sol\":4453:4478  plant.owner == msg.sender */\n      0xffffffffffffffffffffffffffffffffffffffff\n      and\n        /* \"contracts/LiskGarden.sol\":4453:4458  plant */\n      dup2\n        /* \"contracts/LiskGarden.sol\":4453:4464  plant.owner */\n      0x01\n      add\n      0x00\n      swap1\n      sload\n      swap1\n      0x0100\n      exp\n      swap1\n      div\n      0xffffffffffffffffffffffffffffffffffffffff\n      and\n        /* \"contracts/LiskGarden.sol\":4453:4478  plant.owner == msg.sender */\n      0xffffffffffffffffffffffffffffffffffffffff\n      and\n      eq\n        /* \"contracts/LiskGarden.sol\":4445:4505  require(plant.owner == msg.sender, \"Only owner can harvest\") */\n      tag_187\n      jumpi\n      mload(0x40)\n      0x08c379a000000000000000000000000000000000000000000000000000000000\n      dup2\n      mstore\n      0x04\n      add\n      tag_188\n      swap1\n      tag_189\n      jump\t// in\n    tag_188:\n      mload(0x40)\n      dup1\n      swap2\n      sub\n      swap1\n      revert\n    tag_187:\n        /* \"contracts/LiskGarden.sol\":4523:4528  plant */\n      dup1\n        /* \"contracts/LiskGarden.sol\":4523:4536  plant.isAlive */\n      0x01\n      add\n      0x15\n      swap1\n      sload\n      swap1\n      0x0100\n      exp\n      swap1\n      div\n      0xff\n      and\n        /* \"contracts/LiskGarden.sol\":4515:4554  require(plant.isAlive, \"Plant is dead\") */\n      tag_190\n      jumpi\n      mload(0x40)\n      0x08c379a000000000000000000000000000000000000000000000000000000000\n      dup2\n      mstore\n      0x04\n      add\n      tag_191\n      swap1\n      tag_150\n      jump\t// in\n    tag_191:\n      mload(0x40)\n      dup1\n      swap2\n      sub\n      swap1\n      revert\n    tag_190:\n        /* \"contracts/LiskGarden.sol\":4565:4590  updateWaterLevel(plantId) */\n      tag_192\n        /* \"contracts/LiskGarden.sol\":4582:4589  plantId */\n      dup3\n        /* \"contracts/LiskGarden.sol\":4565:4581  updateWaterLevel */\n      tag_152\n        /* \"contracts/LiskGarden.sol\":4565:4590  updateWaterLevel(plantId) */\n      jump\t// in\n    tag_192:\n        /* \"contracts/LiskGarden.sol\":4608:4613  plant */\n      dup1\n        /* \"contracts/LiskGarden.sol\":4608:4621  plant.isAlive */\n      0x01\n      add\n      0x15\n      swap1\n      sload\n      swap1\n      0x0100\n      exp\n      swap1\n      div\n      0xff\n      and\n        /* \"contracts/LiskGarden.sol\":4600:4651  require(plant.isAlive, \"Plant died before harvest\") */\n      tag_193\n      jumpi\n      mload(0x40)\n      0x08c379a000000000000000000000000000000000000000000000000000000000\n      dup2\n      mstore\n      0x04\n      add\n      tag_194\n      swap1\n      tag_195\n      jump\t// in\n    tag_194:\n      mload(0x40)\n      dup1\n      swap2\n      sub\n      swap1\n      revert\n    tag_193:\n        /* \"contracts/LiskGarden.sol\":4662:4687  updatePlantStage(plantId) */\n      tag_196\n        /* \"contracts/LiskGarden.sol\":4679:4686  plantId */\n      dup3\n        /* \"contracts/LiskGarden.sol\":4662:4678  updatePlantStage */\n      tag_87\n        /* \"contracts/LiskGarden.sol\":4662:4687  updatePlantStage(plantId) */\n      jump\t// in\n    tag_196:\n        /* \"contracts/LiskGarden.sol\":4720:4740  GrowthStage.BLOOMING */\n      0x03\n        /* \"contracts/LiskGarden.sol\":4705:4740  plant.stage == GrowthStage.BLOOMING */\n      dup1\n      dup2\n      gt\n      iszero\n      tag_197\n      jumpi\n      tag_198\n      tag_124\n      jump\t// in\n    tag_198:\n    tag_197:\n        /* \"contracts/LiskGarden.sol\":4705:4710  plant */\n      dup2\n        /* \"contracts/LiskGarden.sol\":4705:4716  plant.stage */\n      0x01\n      add\n      0x16\n      swap1\n      sload\n      swap1\n      0x0100\n      exp\n      swap1\n      div\n      0xff\n      and\n        /* \"contracts/LiskGarden.sol\":4705:4740  plant.stage == GrowthStage.BLOOMING */\n      0x03\n      dup2\n      gt\n      iszero\n      tag_199\n      jumpi\n      tag_200\n      tag_124\n      jump\t// in\n    tag_200:\n    tag_199:\n      eq\n        /* \"contracts/LiskGarden.sol\":4697:4767  require(plant.stage == GrowthStage.BLOOMING, \"Plant not blooming yet\") */\n      tag_201\n      jumpi\n      mload(0x40)\n      0x08c379a000000000000000000000000000000000000000000000000000000000\n      dup2\n      mstore\n      0x04\n      add\n      tag_202\n      swap1\n      tag_203\n      jump\t// in\n    tag_202:\n      mload(0x40)\n      dup1\n      swap2\n      sub\n      swap1\n      revert\n    tag_201:\n        /* \"contracts/LiskGarden.sol\":4793:4798  false */\n      0x00\n        /* \"contracts/LiskGarden.sol\":4778:4783  plant */\n      dup2\n        /* \"contracts/LiskGarden.sol\":4778:4790  plant.exists */\n      0x01\n      add\n      0x14\n        /* \"contracts/LiskGarden.sol\":4778:4798  plant.exists = false */\n      0x0100\n      exp\n      dup2\n      sload\n      dup2\n      0xff\n      mul\n      not\n      and\n      swap1\n      dup4\n      iszero\n      iszero\n      mul\n      or\n      swap1\n      sstore\n      pop\n        /* \"contracts/LiskGarden.sol\":4824:4829  false */\n      0x00\n        /* \"contracts/LiskGarden.sol\":4808:4813  plant */\n      dup2\n        /* \"contracts/LiskGarden.sol\":4808:4821  plant.isAlive */\n      0x01\n      add\n      0x15\n        /* \"contracts/LiskGarden.sol\":4808:4829  plant.isAlive = false */\n      0x0100\n      exp\n      dup2\n      sload\n      dup2\n      0xff\n      mul\n      not\n      and\n      swap1\n      dup4\n      iszero\n      iszero\n      mul\n      or\n      swap1\n      sstore\n      pop\n        /* \"contracts/LiskGarden.sol\":4869:4879  msg.sender */\n      caller\n        /* \"contracts/LiskGarden.sol\":4845:4896  PlantHarvested(plantId, msg.sender, HARVEST_REWARD) */\n      0xffffffffffffffffffffffffffffffffffffffff\n      and\n        /* \"contracts/LiskGarden.sol\":4860:4867  plantId */\n      dup3\n        /* \"contracts/LiskGarden.sol\":4845:4896  PlantHarvested(plantId, msg.sender, HARVEST_REWARD) */\n      0x79f2138ea100070ff95b59c265da7aa3c7a0f61595fe1bb2f5fda2762f398847\n        /* \"contracts/LiskGarden.sol\":620:631  0.003 ether */\n      0x0aa87bee538000\n        /* \"contracts/LiskGarden.sol\":4845:4896  PlantHarvested(plantId, msg.sender, HARVEST_REWARD) */\n      mload(0x40)\n      tag_204\n      swap2\n      swap1\n      tag_38\n      jump\t// in\n    tag_204:\n      mload(0x40)\n      dup1\n      swap2\n      sub\n      swap1\n      log3\n        /* \"contracts/LiskGarden.sol\":620:631  0.003 ether */\n      0x0aa87bee538000\n        /* \"contracts/LiskGarden.sol\":4915:4936  address(this).balance */\n      selfbalance\n        /* \"contracts/LiskGarden.sol\":4915:4954  address(this).balance >= HARVEST_REWARD */\n      lt\n      iszero\n        /* \"contracts/LiskGarden.sol\":4907:5001  require(address(this).balance >= HARVEST_REWARD, \"Contract has insufficient funds for reward\") */\n      tag_205\n      jumpi\n      mload(0x40)\n      0x08c379a000000000000000000000000000000000000000000000000000000000\n      dup2\n      mstore\n      0x04\n      add\n      tag_206\n      swap1\n      tag_207\n      jump\t// in\n    tag_206:\n      mload(0x40)\n      dup1\n      swap2\n      sub\n      swap1\n      revert\n    tag_205:\n        /* \"contracts/LiskGarden.sol\":5012:5021  bool sent */\n      0x00\n        /* \"contracts/LiskGarden.sol\":5027:5037  msg.sender */\n      caller\n        /* \"contracts/LiskGarden.sol\":5027:5042  msg.sender.call */\n      0xffffffffffffffffffffffffffffffffffffffff\n      and\n        /* \"contracts/LiskGarden.sol\":620:631  0.003 ether */\n      0x0aa87bee538000\n        /* \"contracts/LiskGarden.sol\":5027:5069  msg.sender.call{value: HARVEST_REWARD}(\"\") */\n      mload(0x40)\n      tag_208\n      swap1\n      tag_109\n      jump\t// in\n    tag_208:\n      0x00\n      mload(0x40)\n      dup1\n      dup4\n      sub\n      dup2\n      dup6\n      dup8\n      gas\n      call\n      swap3\n      pop\n      pop\n      pop\n      returndatasize\n      dup1\n      0x00\n      dup2\n      eq\n      tag_211\n      jumpi\n      mload(0x40)\n      swap2\n      pop\n      and(add(returndatasize, 0x3f), not(0x1f))\n      dup3\n      add\n      0x40\n      mstore\n      returndatasize\n      dup3\n      mstore\n      returndatasize\n      0x00\n      0x20\n      dup5\n      add\n      returndatacopy\n      jump(tag_210)\n    tag_211:\n      0x60\n      swap2\n      pop\n    tag_210:\n      pop\n        /* \"contracts/LiskGarden.sol\":5011:5069  (bool sent, ) = msg.sender.call{value: HARVEST_REWARD}(\"\") */\n      pop\n      swap1\n      pop\n        /* \"contracts/LiskGarden.sol\":5087:5091  sent */\n      dup1\n        /* \"contracts/LiskGarden.sol\":5079:5121  require(sent, \"Failed to transfer reward\") */\n      tag_212\n      jumpi\n      mload(0x40)\n      0x08c379a000000000000000000000000000000000000000000000000000000000\n      dup2\n      mstore\n      0x04\n      add\n      tag_213\n      swap1\n      tag_214\n      jump\t// in\n    tag_213:\n      mload(0x40)\n      dup1\n      swap2\n      sub\n      swap1\n      revert\n    tag_212:\n        /* \"contracts/LiskGarden.sol\":4333:5128  {... */\n      pop\n      pop\n        /* \"contracts/LiskGarden.sol\":4285:5128  function harvestPlant(uint256 plantId) external {... */\n      pop\n      jump\t// out\n        /* \"contracts/LiskGarden.sol\":5137:5454  function getPlant(uint256 plantId) external view returns (Plant memory) {... */\n    tag_95:\n        /* \"contracts/LiskGarden.sol\":5195:5207  Plant memory */\n      tag_215\n      tag_216\n      jump\t// in\n    tag_215:\n        /* \"contracts/LiskGarden.sol\":5219:5234  Plant storage p */\n      0x00\n        /* \"contracts/LiskGarden.sol\":5237:5243  plants */\n      0x00\n        /* \"contracts/LiskGarden.sol\":5237:5252  plants[plantId] */\n      0x00\n        /* \"contracts/LiskGarden.sol\":5244:5251  plantId */\n      dup5\n        /* \"contracts/LiskGarden.sol\":5237:5252  plants[plantId] */\n      dup2\n      mstore\n      0x20\n      add\n      swap1\n      dup2\n      mstore\n      0x20\n      add\n      0x00\n      keccak256\n        /* \"contracts/LiskGarden.sol\":5219:5252  Plant storage p = plants[plantId] */\n      swap1\n      pop\n        /* \"contracts/LiskGarden.sol\":5278:5279  0 */\n      0x00\n        /* \"contracts/LiskGarden.sol\":5270:5271  p */\n      dup2\n        /* \"contracts/LiskGarden.sol\":5270:5274  p.id */\n      0x00\n      add\n      sload\n        /* \"contracts/LiskGarden.sol\":5270:5279  p.id != 0 */\n      eq\n      iszero\n        /* \"contracts/LiskGarden.sol\":5270:5299  p.id != 0 || p.exists == true */\n      dup1\n      tag_218\n      jumpi\n      pop\n        /* \"contracts/LiskGarden.sol\":5295:5299  true */\n      0x01\n        /* \"contracts/LiskGarden.sol\":5283:5299  p.exists == true */\n      iszero\n      iszero\n        /* \"contracts/LiskGarden.sol\":5283:5284  p */\n      dup2\n        /* \"contracts/LiskGarden.sol\":5283:5291  p.exists */\n      0x01\n      add\n      0x14\n      swap1\n      sload\n      swap1\n      0x0100\n      exp\n      swap1\n      div\n      0xff\n      and\n        /* \"contracts/LiskGarden.sol\":5283:5299  p.exists == true */\n      iszero\n      iszero\n      eq\n        /* \"contracts/LiskGarden.sol\":5270:5299  p.id != 0 || p.exists == true */\n    tag_218:\n        /* \"contracts/LiskGarden.sol\":5270:5321  p.id != 0 || p.exists == true || p.lastWatered != 0 */\n      dup1\n      tag_219\n      jumpi\n      pop\n        /* \"contracts/LiskGarden.sol\":5320:5321  0 */\n      0x00\n        /* \"contracts/LiskGarden.sol\":5303:5304  p */\n      dup2\n        /* \"contracts/LiskGarden.sol\":5303:5316  p.lastWatered */\n      0x03\n      add\n      sload\n        /* \"contracts/LiskGarden.sol\":5303:5321  p.lastWatered != 0 */\n      eq\n      iszero\n        /* \"contracts/LiskGarden.sol\":5270:5321  p.id != 0 || p.exists == true || p.lastWatered != 0 */\n    tag_219:\n        /* \"contracts/LiskGarden.sol\":5262:5346  require(p.id != 0 || p.exists == true || p.lastWatered != 0, \"Plant does not exist\") */\n      tag_220\n      jumpi\n      mload(0x40)\n      0x08c379a000000000000000000000000000000000000000000000000000000000\n      dup2\n      mstore\n      0x04\n      add\n      tag_221\n      swap1\n      tag_144\n      jump\t// in\n    tag_221:\n      mload(0x40)\n      dup1\n      swap2\n      sub\n      swap1\n      revert\n    tag_220:\n        /* \"contracts/LiskGarden.sol\":5357:5371  Plant memory m */\n      0x00\n        /* \"contracts/LiskGarden.sol\":5374:5375  p */\n      dup2\n        /* \"contracts/LiskGarden.sol\":5357:5375  Plant memory m = p */\n      mload(0x40)\n      dup1\n      0x0100\n      add\n      0x40\n      mstore\n      swap1\n      dup2\n      0x00\n      dup3\n      add\n      sload\n      dup2\n      mstore\n      0x20\n      add\n      0x01\n      dup3\n      add\n      0x00\n      swap1\n      sload\n      swap1\n      0x0100\n      exp\n      swap1\n      div\n      0xffffffffffffffffffffffffffffffffffffffff\n      and\n      0xffffffffffffffffffffffffffffffffffffffff\n      and\n      0xffffffffffffffffffffffffffffffffffffffff\n      and\n      dup2\n      mstore\n      0x20\n      add\n      0x01\n      dup3\n      add\n      0x14\n      swap1\n      sload\n      swap1\n      0x0100\n      exp\n      swap1\n      div\n      0xff\n      and\n      iszero\n      iszero\n      iszero\n      iszero\n      dup2\n      mstore\n      0x20\n      add\n      0x01\n      dup3\n      add\n      0x15\n      swap1\n      sload\n      swap1\n      0x0100\n      exp\n      swap1\n      div\n      0xff\n      and\n      iszero\n      iszero\n      iszero\n      iszero\n      dup2\n      mstore\n      0x20\n      add\n      0x01\n      dup3\n      add\n      0x16\n      swap1\n      sload\n      swap1\n      0x0100\n      exp\n      swap1\n      div\n      0xff\n      and\n      0x03\n      dup2\n      gt\n      iszero\n      tag_222\n      jumpi\n      tag_223\n      tag_124\n      jump\t// in\n    tag_223:\n    tag_222:\n      0x03\n      dup2\n      gt\n      iszero\n      tag_224\n      jumpi\n      tag_225\n      tag_124\n      jump\t// in\n    tag_225:\n    tag_224:\n      dup2\n      mstore\n      0x20\n      add\n      0x02\n      dup3\n      add\n      sload\n      dup2\n      mstore\n      0x20\n      add\n      0x03\n      dup3\n      add\n      sload\n      dup2\n      mstore\n      0x20\n      add\n      0x04\n      dup3\n      add\n      0x00\n      swap1\n      sload\n      swap1\n      0x0100\n      exp\n      swap1\n      div\n      0xff\n      and\n      0xff\n      and\n      0xff\n      and\n      dup2\n      mstore\n      pop\n      pop\n      swap1\n      pop\n        /* \"contracts/LiskGarden.sol\":5400:5428  calculateWaterLevel(plantId) */\n      tag_226\n        /* \"contracts/LiskGarden.sol\":5420:5427  plantId */\n      dup5\n        /* \"contracts/LiskGarden.sol\":5400:5419  calculateWaterLevel */\n      tag_46\n        /* \"contracts/LiskGarden.sol\":5400:5428  calculateWaterLevel(plantId) */\n      jump\t// in\n    tag_226:\n        /* \"contracts/LiskGarden.sol\":5385:5386  m */\n      dup2\n        /* \"contracts/LiskGarden.sol\":5385:5397  m.waterLevel */\n      0xe0\n      add\n        /* \"contracts/LiskGarden.sol\":5385:5428  m.waterLevel = calculateWaterLevel(plantId) */\n      swap1\n      0xff\n      and\n      swap1\n      dup2\n      0xff\n      and\n      dup2\n      mstore\n      pop\n      pop\n        /* \"contracts/LiskGarden.sol\":5446:5447  m */\n      dup1\n        /* \"contracts/LiskGarden.sol\":5439:5447  return m */\n      swap3\n      pop\n      pop\n      pop\n        /* \"contracts/LiskGarden.sol\":5137:5454  function getPlant(uint256 plantId) external view returns (Plant memory) {... */\n      swap2\n      swap1\n      pop\n      jump\t// out\n        /* \"contracts/LiskGarden.sol\":2576:2972  function updateWaterLevel(uint256 plantId) internal {... */\n    tag_152:\n        /* \"contracts/LiskGarden.sol\":2638:2657  Plant storage plant */\n      0x00\n        /* \"contracts/LiskGarden.sol\":2660:2666  plants */\n      0x00\n        /* \"contracts/LiskGarden.sol\":2660:2675  plants[plantId] */\n      0x00\n        /* \"contracts/LiskGarden.sol\":2667:2674  plantId */\n      dup4\n        /* \"contracts/LiskGarden.sol\":2660:2675  plants[plantId] */\n      dup2\n      mstore\n      0x20\n      add\n      swap1\n      dup2\n      mstore\n      0x20\n      add\n      0x00\n      keccak256\n        /* \"contracts/LiskGarden.sol\":2638:2675  Plant storage plant = plants[plantId] */\n      swap1\n      pop\n        /* \"contracts/LiskGarden.sol\":2690:2695  plant */\n      dup1\n        /* \"contracts/LiskGarden.sol\":2690:2702  plant.exists */\n      0x01\n      add\n      0x14\n      swap1\n      sload\n      swap1\n      0x0100\n      exp\n      swap1\n      div\n      0xff\n      and\n        /* \"contracts/LiskGarden.sol\":2689:2702  !plant.exists */\n      iszero\n        /* \"contracts/LiskGarden.sol\":2689:2720  !plant.exists || !plant.isAlive */\n      dup1\n      tag_228\n      jumpi\n      pop\n        /* \"contracts/LiskGarden.sol\":2707:2712  plant */\n      dup1\n        /* \"contracts/LiskGarden.sol\":2707:2720  plant.isAlive */\n      0x01\n      add\n      0x15\n      swap1\n      sload\n      swap1\n      0x0100\n      exp\n      swap1\n      div\n      0xff\n      and\n        /* \"contracts/LiskGarden.sol\":2706:2720  !plant.isAlive */\n      iszero\n        /* \"contracts/LiskGarden.sol\":2689:2720  !plant.exists || !plant.isAlive */\n    tag_228:\n        /* \"contracts/LiskGarden.sol\":2685:2729  if (!plant.exists || !plant.isAlive) return; */\n      iszero\n      tag_229\n      jumpi\n        /* \"contracts/LiskGarden.sol\":2722:2729  return; */\n      pop\n      jump(tag_227)\n        /* \"contracts/LiskGarden.sol\":2685:2729  if (!plant.exists || !plant.isAlive) return; */\n    tag_229:\n        /* \"contracts/LiskGarden.sol\":2739:2752  uint8 current */\n      0x00\n        /* \"contracts/LiskGarden.sol\":2755:2783  calculateWaterLevel(plantId) */\n      tag_230\n        /* \"contracts/LiskGarden.sol\":2775:2782  plantId */\n      dup4\n        /* \"contracts/LiskGarden.sol\":2755:2774  calculateWaterLevel */\n      tag_46\n        /* \"contracts/LiskGarden.sol\":2755:2783  calculateWaterLevel(plantId) */\n      jump\t// in\n    tag_230:\n        /* \"contracts/LiskGarden.sol\":2739:2783  uint8 current = calculateWaterLevel(plantId) */\n      swap1\n      pop\n        /* \"contracts/LiskGarden.sol\":2812:2819  current */\n      dup1\n        /* \"contracts/LiskGarden.sol\":2793:2798  plant */\n      dup3\n        /* \"contracts/LiskGarden.sol\":2793:2809  plant.waterLevel */\n      0x04\n      add\n      0x00\n        /* \"contracts/LiskGarden.sol\":2793:2819  plant.waterLevel = current */\n      0x0100\n      exp\n      dup2\n      sload\n      dup2\n      0xff\n      mul\n      not\n      and\n      swap1\n      dup4\n      0xff\n      and\n      mul\n      or\n      swap1\n      sstore\n      pop\n        /* \"contracts/LiskGarden.sol\":2845:2846  0 */\n      0x00\n        /* \"contracts/LiskGarden.sol\":2834:2841  current */\n      dup2\n        /* \"contracts/LiskGarden.sol\":2834:2846  current == 0 */\n      0xff\n      and\n      sub\n        /* \"contracts/LiskGarden.sol\":2830:2966  if (current == 0) {... */\n      tag_231\n      jumpi\n        /* \"contracts/LiskGarden.sol\":2878:2883  false */\n      0x00\n        /* \"contracts/LiskGarden.sol\":2862:2867  plant */\n      dup3\n        /* \"contracts/LiskGarden.sol\":2862:2875  plant.isAlive */\n      0x01\n      add\n      0x15\n        /* \"contracts/LiskGarden.sol\":2862:2883  plant.isAlive = false */\n      0x0100\n      exp\n      dup2\n      sload\n      dup2\n      0xff\n      mul\n      not\n      and\n      swap1\n      dup4\n      iszero\n      iszero\n      mul\n      or\n      swap1\n      sstore\n      pop\n        /* \"contracts/LiskGarden.sol\":2912:2917  false */\n      0x00\n        /* \"contracts/LiskGarden.sol\":2897:2902  plant */\n      dup3\n        /* \"contracts/LiskGarden.sol\":2897:2909  plant.exists */\n      0x01\n      add\n      0x14\n        /* \"contracts/LiskGarden.sol\":2897:2917  plant.exists = false */\n      0x0100\n      exp\n      dup2\n      sload\n      dup2\n      0xff\n      mul\n      not\n      and\n      swap1\n      dup4\n      iszero\n      iszero\n      mul\n      or\n      swap1\n      sstore\n      pop\n        /* \"contracts/LiskGarden.sol\":2947:2954  plantId */\n      dup3\n        /* \"contracts/LiskGarden.sol\":2937:2955  PlantDied(plantId) */\n      0xcc296a21951f3e57f21afb08547d835a0a9f0f06cc2867009cbe0cae44d36be9\n      mload(0x40)\n      mload(0x40)\n      dup1\n      swap2\n      sub\n      swap1\n      log2\n        /* \"contracts/LiskGarden.sol\":2830:2966  if (current == 0) {... */\n    tag_231:\n        /* \"contracts/LiskGarden.sol\":2628:2972  {... */\n      pop\n      pop\n        /* \"contracts/LiskGarden.sol\":2576:2972  function updateWaterLevel(uint256 plantId) internal {... */\n    tag_227:\n      pop\n      jump\t// out\n    tag_216:\n      mload(0x40)\n      dup1\n      0x0100\n      add\n      0x40\n      mstore\n      dup1\n      0x00\n      dup2\n      mstore\n      0x20\n      add\n      and(0xffffffffffffffffffffffffffffffffffffffff, 0x00)\n      dup2\n      mstore\n      0x20\n      add\n      iszero(iszero(0x00))\n      dup2\n      mstore\n      0x20\n      add\n      iszero(iszero(0x00))\n      dup2\n      mstore\n      0x20\n      add\n      0x00\n      0x03\n      dup2\n      gt\n      iszero\n      tag_232\n      jumpi\n      tag_233\n      tag_124\n      jump\t// in\n    tag_233:\n    tag_232:\n      dup2\n      mstore\n      0x20\n      add\n      0x00\n      dup2\n      mstore\n      0x20\n      add\n      0x00\n      dup2\n      mstore\n      0x20\n      add\n      and(0xff, 0x00)\n      dup2\n      mstore\n      pop\n      swap1\n      jump\t// out\n        /* \"#utility.yul\":88:205   */\n    tag_235:\n        /* \"#utility.yul\":197:198   */\n      0x00\n        /* \"#utility.yul\":194:195   */\n      0x00\n        /* \"#utility.yul\":187:199   */\n      revert\n        /* \"#utility.yul\":334:460   */\n    tag_237:\n        /* \"#utility.yul\":371:378   */\n      0x00\n        /* \"#utility.yul\":411:453   */\n      0xffffffffffffffffffffffffffffffffffffffff\n        /* \"#utility.yul\":404:409   */\n      dup3\n        /* \"#utility.yul\":400:454   */\n      and\n        /* \"#utility.yul\":389:454   */\n      swap1\n      pop\n        /* \"#utility.yul\":334:460   */\n      swap2\n      swap1\n      pop\n      jump\t// out\n        /* \"#utility.yul\":466:562   */\n    tag_238:\n        /* \"#utility.yul\":503:510   */\n      0x00\n        /* \"#utility.yul\":532:556   */\n      tag_304\n        /* \"#utility.yul\":550:555   */\n      dup3\n        /* \"#utility.yul\":532:556   */\n      tag_237\n      jump\t// in\n    tag_304:\n        /* \"#utility.yul\":521:556   */\n      swap1\n      pop\n        /* \"#utility.yul\":466:562   */\n      swap2\n      swap1\n      pop\n      jump\t// out\n        /* \"#utility.yul\":568:690   */\n    tag_239:\n        /* \"#utility.yul\":641:665   */\n      tag_306\n        /* \"#utility.yul\":659:664   */\n      dup2\n        /* \"#utility.yul\":641:665   */\n      tag_238\n      jump\t// in\n    tag_306:\n        /* \"#utility.yul\":634:639   */\n      dup2\n        /* \"#utility.yul\":631:666   */\n      eq\n        /* \"#utility.yul\":621:684   */\n      tag_307\n      jumpi\n        /* \"#utility.yul\":680:681   */\n      0x00\n        /* \"#utility.yul\":677:678   */\n      0x00\n        /* \"#utility.yul\":670:682   */\n      revert\n        /* \"#utility.yul\":621:684   */\n    tag_307:\n        /* \"#utility.yul\":568:690   */\n      pop\n      jump\t// out\n        /* \"#utility.yul\":696:835   */\n    tag_240:\n        /* \"#utility.yul\":742:747   */\n      0x00\n        /* \"#utility.yul\":780:786   */\n      dup2\n        /* \"#utility.yul\":767:787   */\n      calldataload\n        /* \"#utility.yul\":758:787   */\n      swap1\n      pop\n        /* \"#utility.yul\":796:829   */\n      tag_309\n        /* \"#utility.yul\":823:828   */\n      dup2\n        /* \"#utility.yul\":796:829   */\n      tag_239\n      jump\t// in\n    tag_309:\n        /* \"#utility.yul\":696:835   */\n      swap3\n      swap2\n      pop\n      pop\n      jump\t// out\n        /* \"#utility.yul\":841:1170   */\n    tag_27:\n        /* \"#utility.yul\":900:906   */\n      0x00\n        /* \"#utility.yul\":949:951   */\n      0x20\n        /* \"#utility.yul\":937:946   */\n      dup3\n        /* \"#utility.yul\":928:935   */\n      dup5\n        /* \"#utility.yul\":924:947   */\n      sub\n        /* \"#utility.yul\":920:952   */\n      slt\n        /* \"#utility.yul\":917:1036   */\n      iszero\n      tag_311\n      jumpi\n        /* \"#utility.yul\":955:1034   */\n      tag_312\n      tag_235\n      jump\t// in\n    tag_312:\n        /* \"#utility.yul\":917:1036   */\n    tag_311:\n        /* \"#utility.yul\":1075:1076   */\n      0x00\n        /* \"#utility.yul\":1100:1153   */\n      tag_313\n        /* \"#utility.yul\":1145:1152   */\n      dup5\n        /* \"#utility.yul\":1136:1142   */\n      dup3\n        /* \"#utility.yul\":1125:1134   */\n      dup6\n        /* \"#utility.yul\":1121:1143   */\n      add\n        /* \"#utility.yul\":1100:1153   */\n      tag_240\n      jump\t// in\n    tag_313:\n        /* \"#utility.yul\":1090:1153   */\n      swap2\n      pop\n        /* \"#utility.yul\":1046:1163   */\n      pop\n        /* \"#utility.yul\":841:1170   */\n      swap3\n      swap2\n      pop\n      pop\n      jump\t// out\n        /* \"#utility.yul\":1176:1290   */\n    tag_241:\n        /* \"#utility.yul\":1243:1249   */\n      0x00\n        /* \"#utility.yul\":1277:1282   */\n      dup2\n        /* \"#utility.yul\":1271:1283   */\n      mload\n        /* \"#utility.yul\":1261:1283   */\n      swap1\n      pop\n        /* \"#utility.yul\":1176:1290   */\n      swap2\n      swap1\n      pop\n      jump\t// out\n        /* \"#utility.yul\":1296:1480   */\n    tag_242:\n        /* \"#utility.yul\":1395:1406   */\n      0x00\n        /* \"#utility.yul\":1429:1435   */\n      dup3\n        /* \"#utility.yul\":1424:1427   */\n      dup3\n        /* \"#utility.yul\":1417:1436   */\n      mstore\n        /* \"#utility.yul\":1469:1473   */\n      0x20\n        /* \"#utility.yul\":1464:1467   */\n      dup3\n        /* \"#utility.yul\":1460:1474   */\n      add\n        /* \"#utility.yul\":1445:1474   */\n      swap1\n      pop\n        /* \"#utility.yul\":1296:1480   */\n      swap3\n      swap2\n      pop\n      pop\n      jump\t// out\n        /* \"#utility.yul\":1486:1618   */\n    tag_243:\n        /* \"#utility.yul\":1553:1557   */\n      0x00\n        /* \"#utility.yul\":1576:1579   */\n      dup2\n        /* \"#utility.yul\":1568:1579   */\n      swap1\n      pop\n        /* \"#utility.yul\":1606:1610   */\n      0x20\n        /* \"#utility.yul\":1601:1604   */\n      dup3\n        /* \"#utility.yul\":1597:1611   */\n      add\n        /* \"#utility.yul\":1589:1611   */\n      swap1\n      pop\n        /* \"#utility.yul\":1486:1618   */\n      swap2\n      swap1\n      pop\n      jump\t// out\n        /* \"#utility.yul\":1624:1701   */\n    tag_244:\n        /* \"#utility.yul\":1661:1668   */\n      0x00\n        /* \"#utility.yul\":1690:1695   */\n      dup2\n        /* \"#utility.yul\":1679:1695   */\n      swap1\n      pop\n        /* \"#utility.yul\":1624:1701   */\n      swap2\n      swap1\n      pop\n      jump\t// out\n        /* \"#utility.yul\":1707:1815   */\n    tag_245:\n        /* \"#utility.yul\":1784:1808   */\n      tag_319\n        /* \"#utility.yul\":1802:1807   */\n      dup2\n        /* \"#utility.yul\":1784:1808   */\n      tag_244\n      jump\t// in\n    tag_319:\n        /* \"#utility.yul\":1779:1782   */\n      dup3\n        /* \"#utility.yul\":1772:1809   */\n      mstore\n        /* \"#utility.yul\":1707:1815   */\n      pop\n      pop\n      jump\t// out\n        /* \"#utility.yul\":1821:2000   */\n    tag_246:\n        /* \"#utility.yul\":1890:1900   */\n      0x00\n        /* \"#utility.yul\":1911:1957   */\n      tag_321\n        /* \"#utility.yul\":1953:1956   */\n      dup4\n        /* \"#utility.yul\":1945:1951   */\n      dup4\n        /* \"#utility.yul\":1911:1957   */\n      tag_245\n      jump\t// in\n    tag_321:\n        /* \"#utility.yul\":1989:1993   */\n      0x20\n        /* \"#utility.yul\":1984:1987   */\n      dup4\n        /* \"#utility.yul\":1980:1994   */\n      add\n        /* \"#utility.yul\":1966:1994   */\n      swap1\n      pop\n        /* \"#utility.yul\":1821:2000   */\n      swap3\n      swap2\n      pop\n      pop\n      jump\t// out\n        /* \"#utility.yul\":2006:2119   */\n    tag_247:\n        /* \"#utility.yul\":2076:2080   */\n      0x00\n        /* \"#utility.yul\":2108:2112   */\n      0x20\n        /* \"#utility.yul\":2103:2106   */\n      dup3\n        /* \"#utility.yul\":2099:2113   */\n      add\n        /* \"#utility.yul\":2091:2113   */\n      swap1\n      pop\n        /* \"#utility.yul\":2006:2119   */\n      swap2\n      swap1\n      pop\n      jump\t// out\n        /* \"#utility.yul\":2155:2887   */\n    tag_248:\n        /* \"#utility.yul\":2274:2277   */\n      0x00\n        /* \"#utility.yul\":2303:2357   */\n      tag_324\n        /* \"#utility.yul\":2351:2356   */\n      dup3\n        /* \"#utility.yul\":2303:2357   */\n      tag_241\n      jump\t// in\n    tag_324:\n        /* \"#utility.yul\":2373:2459   */\n      tag_325\n        /* \"#utility.yul\":2452:2458   */\n      dup2\n        /* \"#utility.yul\":2447:2450   */\n      dup6\n        /* \"#utility.yul\":2373:2459   */\n      tag_242\n      jump\t// in\n    tag_325:\n        /* \"#utility.yul\":2366:2459   */\n      swap4\n      pop\n        /* \"#utility.yul\":2483:2539   */\n      tag_326\n        /* \"#utility.yul\":2533:2538   */\n      dup4\n        /* \"#utility.yul\":2483:2539   */\n      tag_243\n      jump\t// in\n    tag_326:\n        /* \"#utility.yul\":2562:2569   */\n      dup1\n        /* \"#utility.yul\":2593:2594   */\n      0x00\n        /* \"#utility.yul\":2578:2862   */\n    tag_327:\n        /* \"#utility.yul\":2603:2609   */\n      dup4\n        /* \"#utility.yul\":2600:2601   */\n      dup2\n        /* \"#utility.yul\":2597:2610   */\n      lt\n        /* \"#utility.yul\":2578:2862   */\n      iszero\n      tag_329\n      jumpi\n        /* \"#utility.yul\":2679:2685   */\n      dup2\n        /* \"#utility.yul\":2673:2686   */\n      mload\n        /* \"#utility.yul\":2706:2769   */\n      tag_330\n        /* \"#utility.yul\":2765:2768   */\n      dup9\n        /* \"#utility.yul\":2750:2763   */\n      dup3\n        /* \"#utility.yul\":2706:2769   */\n      tag_246\n      jump\t// in\n    tag_330:\n        /* \"#utility.yul\":2699:2769   */\n      swap8\n      pop\n        /* \"#utility.yul\":2792:2852   */\n      tag_331\n        /* \"#utility.yul\":2845:2851   */\n      dup4\n        /* \"#utility.yul\":2792:2852   */\n      tag_247\n      jump\t// in\n    tag_331:\n        /* \"#utility.yul\":2782:2852   */\n      swap3\n      pop\n        /* \"#utility.yul\":2638:2862   */\n      pop\n        /* \"#utility.yul\":2625:2626   */\n      0x01\n        /* \"#utility.yul\":2622:2623   */\n      dup2\n        /* \"#utility.yul\":2618:2627   */\n      add\n        /* \"#utility.yul\":2613:2627   */\n      swap1\n      pop\n        /* \"#utility.yul\":2578:2862   */\n      jump(tag_327)\n    tag_329:\n        /* \"#utility.yul\":2582:2596   */\n      pop\n        /* \"#utility.yul\":2878:2881   */\n      dup6\n        /* \"#utility.yul\":2871:2881   */\n      swap4\n      pop\n        /* \"#utility.yul\":2279:2887   */\n      pop\n      pop\n      pop\n        /* \"#utility.yul\":2155:2887   */\n      swap3\n      swap2\n      pop\n      pop\n      jump\t// out\n        /* \"#utility.yul\":2893:3266   */\n    tag_30:\n        /* \"#utility.yul\":3036:3040   */\n      0x00\n        /* \"#utility.yul\":3074:3076   */\n      0x20\n        /* \"#utility.yul\":3063:3072   */\n      dup3\n        /* \"#utility.yul\":3059:3077   */\n      add\n        /* \"#utility.yul\":3051:3077   */\n      swap1\n      pop\n        /* \"#utility.yul\":3123:3132   */\n      dup2\n        /* \"#utility.yul\":3117:3121   */\n      dup2\n        /* \"#utility.yul\":3113:3133   */\n      sub\n        /* \"#utility.yul\":3109:3110   */\n      0x00\n        /* \"#utility.yul\":3098:3107   */\n      dup4\n        /* \"#utility.yul\":3094:3111   */\n      add\n        /* \"#utility.yul\":3087:3134   */\n      mstore\n        /* \"#utility.yul\":3151:3259   */\n      tag_333\n        /* \"#utility.yul\":3254:3258   */\n      dup2\n        /* \"#utility.yul\":3245:3251   */\n      dup5\n        /* \"#utility.yul\":3151:3259   */\n      tag_248\n      jump\t// in\n    tag_333:\n        /* \"#utility.yul\":3143:3259   */\n      swap1\n      pop\n        /* \"#utility.yul\":2893:3266   */\n      swap3\n      swap2\n      pop\n      pop\n      jump\t// out\n        /* \"#utility.yul\":3272:3390   */\n    tag_249:\n        /* \"#utility.yul\":3359:3383   */\n      tag_335\n        /* \"#utility.yul\":3377:3382   */\n      dup2\n        /* \"#utility.yul\":3359:3383   */\n      tag_244\n      jump\t// in\n    tag_335:\n        /* \"#utility.yul\":3354:3357   */\n      dup3\n        /* \"#utility.yul\":3347:3384   */\n      mstore\n        /* \"#utility.yul\":3272:3390   */\n      pop\n      pop\n      jump\t// out\n        /* \"#utility.yul\":3396:3618   */\n    tag_38:\n        /* \"#utility.yul\":3489:3493   */\n      0x00\n        /* \"#utility.yul\":3527:3529   */\n      0x20\n        /* \"#utility.yul\":3516:3525   */\n      dup3\n        /* \"#utility.yul\":3512:3530   */\n      add\n        /* \"#utility.yul\":3504:3530   */\n      swap1\n      pop\n        /* \"#utility.yul\":3540:3611   */\n      tag_337\n        /* \"#utility.yul\":3608:3609   */\n      0x00\n        /* \"#utility.yul\":3597:3606   */\n      dup4\n        /* \"#utility.yul\":3593:3610   */\n      add\n        /* \"#utility.yul\":3584:3590   */\n      dup5\n        /* \"#utility.yul\":3540:3611   */\n      tag_249\n      jump\t// in\n    tag_337:\n        /* \"#utility.yul\":3396:3618   */\n      swap3\n      swap2\n      pop\n      pop\n      jump\t// out\n        /* \"#utility.yul\":3624:3746   */\n    tag_250:\n        /* \"#utility.yul\":3697:3721   */\n      tag_339\n        /* \"#utility.yul\":3715:3720   */\n      dup2\n        /* \"#utility.yul\":3697:3721   */\n      tag_244\n      jump\t// in\n    tag_339:\n        /* \"#utility.yul\":3690:3695   */\n      dup2\n        /* \"#utility.yul\":3687:3722   */\n      eq\n        /* \"#utility.yul\":3677:3740   */\n      tag_340\n      jumpi\n        /* \"#utility.yul\":3736:3737   */\n      0x00\n        /* \"#utility.yul\":3733:3734   */\n      0x00\n        /* \"#utility.yul\":3726:3738   */\n      revert\n        /* \"#utility.yul\":3677:3740   */\n    tag_340:\n        /* \"#utility.yul\":3624:3746   */\n      pop\n      jump\t// out\n        /* \"#utility.yul\":3752:3891   */\n    tag_251:\n        /* \"#utility.yul\":3798:3803   */\n      0x00\n        /* \"#utility.yul\":3836:3842   */\n      dup2\n        /* \"#utility.yul\":3823:3843   */\n      calldataload\n        /* \"#utility.yul\":3814:3843   */\n      swap1\n      pop\n        /* \"#utility.yul\":3852:3885   */\n      tag_342\n        /* \"#utility.yul\":3879:3884   */\n      dup2\n        /* \"#utility.yul\":3852:3885   */\n      tag_250\n      jump\t// in\n    tag_342:\n        /* \"#utility.yul\":3752:3891   */\n      swap3\n      swap2\n      pop\n      pop\n      jump\t// out\n        /* \"#utility.yul\":3897:4226   */\n    tag_45:\n        /* \"#utility.yul\":3956:3962   */\n      0x00\n        /* \"#utility.yul\":4005:4007   */\n      0x20\n        /* \"#utility.yul\":3993:4002   */\n      dup3\n        /* \"#utility.yul\":3984:3991   */\n      dup5\n        /* \"#utility.yul\":3980:4003   */\n      sub\n        /* \"#utility.yul\":3976:4008   */\n      slt\n        /* \"#utility.yul\":3973:4092   */\n      iszero\n      tag_344\n      jumpi\n        /* \"#utility.yul\":4011:4090   */\n      tag_345\n      tag_235\n      jump\t// in\n    tag_345:\n        /* \"#utility.yul\":3973:4092   */\n    tag_344:\n        /* \"#utility.yul\":4131:4132   */\n      0x00\n        /* \"#utility.yul\":4156:4209   */\n      tag_346\n        /* \"#utility.yul\":4201:4208   */\n      dup5\n        /* \"#utility.yul\":4192:4198   */\n      dup3\n        /* \"#utility.yul\":4181:4190   */\n      dup6\n        /* \"#utility.yul\":4177:4199   */\n      add\n        /* \"#utility.yul\":4156:4209   */\n      tag_251\n      jump\t// in\n    tag_346:\n        /* \"#utility.yul\":4146:4209   */\n      swap2\n      pop\n        /* \"#utility.yul\":4102:4219   */\n      pop\n        /* \"#utility.yul\":3897:4226   */\n      swap3\n      swap2\n      pop\n      pop\n      jump\t// out\n        /* \"#utility.yul\":4232:4318   */\n    tag_252:\n        /* \"#utility.yul\":4267:4274   */\n      0x00\n        /* \"#utility.yul\":4307:4311   */\n      0xff\n        /* \"#utility.yul\":4300:4305   */\n      dup3\n        /* \"#utility.yul\":4296:4312   */\n      and\n        /* \"#utility.yul\":4285:4312   */\n      swap1\n      pop\n        /* \"#utility.yul\":4232:4318   */\n      swap2\n      swap1\n      pop\n      jump\t// out\n        /* \"#utility.yul\":4324:4436   */\n    tag_253:\n        /* \"#utility.yul\":4407:4429   */\n      tag_349\n        /* \"#utility.yul\":4423:4428   */\n      dup2\n        /* \"#utility.yul\":4407:4429   */\n      tag_252\n      jump\t// in\n    tag_349:\n        /* \"#utility.yul\":4402:4405   */\n      dup3\n        /* \"#utility.yul\":4395:4430   */\n      mstore\n        /* \"#utility.yul\":4324:4436   */\n      pop\n      pop\n      jump\t// out\n        /* \"#utility.yul\":4442:4656   */\n    tag_48:\n        /* \"#utility.yul\":4531:4535   */\n      0x00\n        /* \"#utility.yul\":4569:4571   */\n      0x20\n        /* \"#utility.yul\":4558:4567   */\n      dup3\n        /* \"#utility.yul\":4554:4572   */\n      add\n        /* \"#utility.yul\":4546:4572   */\n      swap1\n      pop\n        /* \"#utility.yul\":4582:4649   */\n      tag_351\n        /* \"#utility.yul\":4646:4647   */\n      0x00\n        /* \"#utility.yul\":4635:4644   */\n      dup4\n        /* \"#utility.yul\":4631:4648   */\n      add\n        /* \"#utility.yul\":4622:4628   */\n      dup5\n        /* \"#utility.yul\":4582:4649   */\n      tag_253\n      jump\t// in\n    tag_351:\n        /* \"#utility.yul\":4442:4656   */\n      swap3\n      swap2\n      pop\n      pop\n      jump\t// out\n        /* \"#utility.yul\":4662:4780   */\n    tag_254:\n        /* \"#utility.yul\":4749:4773   */\n      tag_353\n        /* \"#utility.yul\":4767:4772   */\n      dup2\n        /* \"#utility.yul\":4749:4773   */\n      tag_238\n      jump\t// in\n    tag_353:\n        /* \"#utility.yul\":4744:4747   */\n      dup3\n        /* \"#utility.yul\":4737:4774   */\n      mstore\n        /* \"#utility.yul\":4662:4780   */\n      pop\n      pop\n      jump\t// out\n        /* \"#utility.yul\":4786:5008   */\n    tag_61:\n        /* \"#utility.yul\":4879:4883   */\n      0x00\n        /* \"#utility.yul\":4917:4919   */\n      0x20\n        /* \"#utility.yul\":4906:4915   */\n      dup3\n        /* \"#utility.yul\":4902:4920   */\n      add\n        /* \"#utility.yul\":4894:4920   */\n      swap1\n      pop\n        /* \"#utility.yul\":4930:5001   */\n      tag_355\n        /* \"#utility.yul\":4998:4999   */\n      0x00\n        /* \"#utility.yul\":4987:4996   */\n      dup4\n        /* \"#utility.yul\":4983:5000   */\n      add\n        /* \"#utility.yul\":4974:4980   */\n      dup5\n        /* \"#utility.yul\":4930:5001   */\n      tag_254\n      jump\t// in\n    tag_355:\n        /* \"#utility.yul\":4786:5008   */\n      swap3\n      swap2\n      pop\n      pop\n      jump\t// out\n        /* \"#utility.yul\":5014:5104   */\n    tag_255:\n        /* \"#utility.yul\":5048:5055   */\n      0x00\n        /* \"#utility.yul\":5091:5096   */\n      dup2\n        /* \"#utility.yul\":5084:5097   */\n      iszero\n        /* \"#utility.yul\":5077:5098   */\n      iszero\n        /* \"#utility.yul\":5066:5098   */\n      swap1\n      pop\n        /* \"#utility.yul\":5014:5104   */\n      swap2\n      swap1\n      pop\n      jump\t// out\n        /* \"#utility.yul\":5110:5219   */\n    tag_256:\n        /* \"#utility.yul\":5191:5212   */\n      tag_358\n        /* \"#utility.yul\":5206:5211   */\n      dup2\n        /* \"#utility.yul\":5191:5212   */\n      tag_255\n      jump\t// in\n    tag_358:\n        /* \"#utility.yul\":5186:5189   */\n      dup3\n        /* \"#utility.yul\":5179:5213   */\n      mstore\n        /* \"#utility.yul\":5110:5219   */\n      pop\n      pop\n      jump\t// out\n        /* \"#utility.yul\":5225:5405   */\n    tag_124:\n        /* \"#utility.yul\":5273:5350   */\n      0x4e487b7100000000000000000000000000000000000000000000000000000000\n        /* \"#utility.yul\":5270:5271   */\n      0x00\n        /* \"#utility.yul\":5263:5351   */\n      mstore\n        /* \"#utility.yul\":5370:5374   */\n      0x21\n        /* \"#utility.yul\":5367:5368   */\n      0x04\n        /* \"#utility.yul\":5360:5375   */\n      mstore\n        /* \"#utility.yul\":5394:5398   */\n      0x24\n        /* \"#utility.yul\":5391:5392   */\n      0x00\n        /* \"#utility.yul\":5384:5399   */\n      revert\n        /* \"#utility.yul\":5411:5529   */\n    tag_257:\n        /* \"#utility.yul\":5497:5498   */\n      0x04\n        /* \"#utility.yul\":5490:5495   */\n      dup2\n        /* \"#utility.yul\":5487:5499   */\n      lt\n        /* \"#utility.yul\":5477:5523   */\n      tag_361\n      jumpi\n        /* \"#utility.yul\":5503:5521   */\n      tag_362\n      tag_124\n      jump\t// in\n    tag_362:\n        /* \"#utility.yul\":5477:5523   */\n    tag_361:\n        /* \"#utility.yul\":5411:5529   */\n      pop\n      jump\t// out\n        /* \"#utility.yul\":5535:5672   */\n    tag_258:\n        /* \"#utility.yul\":5585:5592   */\n      0x00\n        /* \"#utility.yul\":5614:5619   */\n      dup2\n        /* \"#utility.yul\":5603:5619   */\n      swap1\n      pop\n        /* \"#utility.yul\":5620:5666   */\n      tag_364\n        /* \"#utility.yul\":5660:5665   */\n      dup3\n        /* \"#utility.yul\":5620:5666   */\n      tag_257\n      jump\t// in\n    tag_364:\n        /* \"#utility.yul\":5535:5672   */\n      swap2\n      swap1\n      pop\n      jump\t// out\n        /* \"#utility.yul\":5678:5815   */\n    tag_259:\n        /* \"#utility.yul\":5739:5748   */\n      0x00\n        /* \"#utility.yul\":5772:5809   */\n      tag_366\n        /* \"#utility.yul\":5803:5808   */\n      dup3\n        /* \"#utility.yul\":5772:5809   */\n      tag_258\n      jump\t// in\n    tag_366:\n        /* \"#utility.yul\":5759:5809   */\n      swap1\n      pop\n        /* \"#utility.yul\":5678:5815   */\n      swap2\n      swap1\n      pop\n      jump\t// out\n        /* \"#utility.yul\":5821:5974   */\n    tag_260:\n        /* \"#utility.yul\":5919:5967   */\n      tag_368\n        /* \"#utility.yul\":5961:5966   */\n      dup2\n        /* \"#utility.yul\":5919:5967   */\n      tag_259\n      jump\t// in\n    tag_368:\n        /* \"#utility.yul\":5914:5917   */\n      dup3\n        /* \"#utility.yul\":5907:5968   */\n      mstore\n        /* \"#utility.yul\":5821:5974   */\n      pop\n      pop\n      jump\t// out\n        /* \"#utility.yul\":5980:6967   */\n    tag_67:\n        /* \"#utility.yul\":6264:6268   */\n      0x00\n        /* \"#utility.yul\":6302:6305   */\n      0x0100\n        /* \"#utility.yul\":6291:6300   */\n      dup3\n        /* \"#utility.yul\":6287:6306   */\n      add\n        /* \"#utility.yul\":6279:6306   */\n      swap1\n      pop\n        /* \"#utility.yul\":6316:6387   */\n      tag_370\n        /* \"#utility.yul\":6384:6385   */\n      0x00\n        /* \"#utility.yul\":6373:6382   */\n      dup4\n        /* \"#utility.yul\":6369:6386   */\n      add\n        /* \"#utility.yul\":6360:6366   */\n      dup12\n        /* \"#utility.yul\":6316:6387   */\n      tag_249\n      jump\t// in\n    tag_370:\n        /* \"#utility.yul\":6397:6469   */\n      tag_371\n        /* \"#utility.yul\":6465:6467   */\n      0x20\n        /* \"#utility.yul\":6454:6463   */\n      dup4\n        /* \"#utility.yul\":6450:6468   */\n      add\n        /* \"#utility.yul\":6441:6447   */\n      dup11\n        /* \"#utility.yul\":6397:6469   */\n      tag_254\n      jump\t// in\n    tag_371:\n        /* \"#utility.yul\":6479:6545   */\n      tag_372\n        /* \"#utility.yul\":6541:6543   */\n      0x40\n        /* \"#utility.yul\":6530:6539   */\n      dup4\n        /* \"#utility.yul\":6526:6544   */\n      add\n        /* \"#utility.yul\":6517:6523   */\n      dup10\n        /* \"#utility.yul\":6479:6545   */\n      tag_256\n      jump\t// in\n    tag_372:\n        /* \"#utility.yul\":6555:6621   */\n      tag_373\n        /* \"#utility.yul\":6617:6619   */\n      0x60\n        /* \"#utility.yul\":6606:6615   */\n      dup4\n        /* \"#utility.yul\":6602:6620   */\n      add\n        /* \"#utility.yul\":6593:6599   */\n      dup9\n        /* \"#utility.yul\":6555:6621   */\n      tag_256\n      jump\t// in\n    tag_373:\n        /* \"#utility.yul\":6631:6715   */\n      tag_374\n        /* \"#utility.yul\":6710:6713   */\n      0x80\n        /* \"#utility.yul\":6699:6708   */\n      dup4\n        /* \"#utility.yul\":6695:6714   */\n      add\n        /* \"#utility.yul\":6686:6692   */\n      dup8\n        /* \"#utility.yul\":6631:6715   */\n      tag_260\n      jump\t// in\n    tag_374:\n        /* \"#utility.yul\":6725:6798   */\n      tag_375\n        /* \"#utility.yul\":6793:6796   */\n      0xa0\n        /* \"#utility.yul\":6782:6791   */\n      dup4\n        /* \"#utility.yul\":6778:6797   */\n      add\n        /* \"#utility.yul\":6769:6775   */\n      dup7\n        /* \"#utility.yul\":6725:6798   */\n      tag_249\n      jump\t// in\n    tag_375:\n        /* \"#utility.yul\":6808:6881   */\n      tag_376\n        /* \"#utility.yul\":6876:6879   */\n      0xc0\n        /* \"#utility.yul\":6865:6874   */\n      dup4\n        /* \"#utility.yul\":6861:6880   */\n      add\n        /* \"#utility.yul\":6852:6858   */\n      dup6\n        /* \"#utility.yul\":6808:6881   */\n      tag_249\n      jump\t// in\n    tag_376:\n        /* \"#utility.yul\":6891:6960   */\n      tag_377\n        /* \"#utility.yul\":6955:6958   */\n      0xe0\n        /* \"#utility.yul\":6944:6953   */\n      dup4\n        /* \"#utility.yul\":6940:6959   */\n      add\n        /* \"#utility.yul\":6931:6937   */\n      dup5\n        /* \"#utility.yul\":6891:6960   */\n      tag_253\n      jump\t// in\n    tag_377:\n        /* \"#utility.yul\":5980:6967   */\n      swap10\n      swap9\n      pop\n      pop\n      pop\n      pop\n      pop\n      pop\n      pop\n      pop\n      pop\n      jump\t// out\n        /* \"#utility.yul\":6973:7081   */\n    tag_261:\n        /* \"#utility.yul\":7050:7074   */\n      tag_379\n        /* \"#utility.yul\":7068:7073   */\n      dup2\n        /* \"#utility.yul\":7050:7074   */\n      tag_238\n      jump\t// in\n    tag_379:\n        /* \"#utility.yul\":7045:7048   */\n      dup3\n        /* \"#utility.yul\":7038:7075   */\n      mstore\n        /* \"#utility.yul\":6973:7081   */\n      pop\n      pop\n      jump\t// out\n        /* \"#utility.yul\":7087:7186   */\n    tag_262:\n        /* \"#utility.yul\":7158:7179   */\n      tag_381\n        /* \"#utility.yul\":7173:7178   */\n      dup2\n        /* \"#utility.yul\":7158:7179   */\n      tag_255\n      jump\t// in\n    tag_381:\n        /* \"#utility.yul\":7153:7156   */\n      dup3\n        /* \"#utility.yul\":7146:7180   */\n      mstore\n        /* \"#utility.yul\":7087:7186   */\n      pop\n      pop\n      jump\t// out\n        /* \"#utility.yul\":7192:7335   */\n    tag_263:\n        /* \"#utility.yul\":7280:7328   */\n      tag_383\n        /* \"#utility.yul\":7322:7327   */\n      dup2\n        /* \"#utility.yul\":7280:7328   */\n      tag_259\n      jump\t// in\n    tag_383:\n        /* \"#utility.yul\":7275:7278   */\n      dup3\n        /* \"#utility.yul\":7268:7329   */\n      mstore\n        /* \"#utility.yul\":7192:7335   */\n      pop\n      pop\n      jump\t// out\n        /* \"#utility.yul\":7341:7443   */\n    tag_264:\n        /* \"#utility.yul\":7414:7436   */\n      tag_385\n        /* \"#utility.yul\":7430:7435   */\n      dup2\n        /* \"#utility.yul\":7414:7436   */\n      tag_252\n      jump\t// in\n    tag_385:\n        /* \"#utility.yul\":7409:7412   */\n      dup3\n        /* \"#utility.yul\":7402:7437   */\n      mstore\n        /* \"#utility.yul\":7341:7443   */\n      pop\n      pop\n      jump\t// out\n        /* \"#utility.yul\":7507:9072   */\n    tag_265:\n        /* \"#utility.yul\":7646:7652   */\n      0x0100\n        /* \"#utility.yul\":7641:7644   */\n      dup3\n        /* \"#utility.yul\":7637:7653   */\n      add\n        /* \"#utility.yul\":7733:7737   */\n      0x00\n        /* \"#utility.yul\":7726:7731   */\n      dup3\n        /* \"#utility.yul\":7722:7738   */\n      add\n        /* \"#utility.yul\":7716:7739   */\n      mload\n        /* \"#utility.yul\":7752:7815   */\n      tag_387\n        /* \"#utility.yul\":7809:7813   */\n      0x00\n        /* \"#utility.yul\":7804:7807   */\n      dup6\n        /* \"#utility.yul\":7800:7814   */\n      add\n        /* \"#utility.yul\":7786:7798   */\n      dup3\n        /* \"#utility.yul\":7752:7815   */\n      tag_245\n      jump\t// in\n    tag_387:\n        /* \"#utility.yul\":7663:7825   */\n      pop\n        /* \"#utility.yul\":7908:7912   */\n      0x20\n        /* \"#utility.yul\":7901:7906   */\n      dup3\n        /* \"#utility.yul\":7897:7913   */\n      add\n        /* \"#utility.yul\":7891:7914   */\n      mload\n        /* \"#utility.yul\":7927:7990   */\n      tag_388\n        /* \"#utility.yul\":7984:7988   */\n      0x20\n        /* \"#utility.yul\":7979:7982   */\n      dup6\n        /* \"#utility.yul\":7975:7989   */\n      add\n        /* \"#utility.yul\":7961:7973   */\n      dup3\n        /* \"#utility.yul\":7927:7990   */\n      tag_261\n      jump\t// in\n    tag_388:\n        /* \"#utility.yul\":7835:8000   */\n      pop\n        /* \"#utility.yul\":8084:8088   */\n      0x40\n        /* \"#utility.yul\":8077:8082   */\n      dup3\n        /* \"#utility.yul\":8073:8089   */\n      add\n        /* \"#utility.yul\":8067:8090   */\n      mload\n        /* \"#utility.yul\":8103:8160   */\n      tag_389\n        /* \"#utility.yul\":8154:8158   */\n      0x40\n        /* \"#utility.yul\":8149:8152   */\n      dup6\n        /* \"#utility.yul\":8145:8159   */\n      add\n        /* \"#utility.yul\":8131:8143   */\n      dup3\n        /* \"#utility.yul\":8103:8160   */\n      tag_262\n      jump\t// in\n    tag_389:\n        /* \"#utility.yul\":8010:8170   */\n      pop\n        /* \"#utility.yul\":8255:8259   */\n      0x60\n        /* \"#utility.yul\":8248:8253   */\n      dup3\n        /* \"#utility.yul\":8244:8260   */\n      add\n        /* \"#utility.yul\":8238:8261   */\n      mload\n        /* \"#utility.yul\":8274:8331   */\n      tag_390\n        /* \"#utility.yul\":8325:8329   */\n      0x60\n        /* \"#utility.yul\":8320:8323   */\n      dup6\n        /* \"#utility.yul\":8316:8330   */\n      add\n        /* \"#utility.yul\":8302:8314   */\n      dup3\n        /* \"#utility.yul\":8274:8331   */\n      tag_262\n      jump\t// in\n    tag_390:\n        /* \"#utility.yul\":8180:8341   */\n      pop\n        /* \"#utility.yul\":8424:8428   */\n      0x80\n        /* \"#utility.yul\":8417:8422   */\n      dup3\n        /* \"#utility.yul\":8413:8429   */\n      add\n        /* \"#utility.yul\":8407:8430   */\n      mload\n        /* \"#utility.yul\":8443:8517   */\n      tag_391\n        /* \"#utility.yul\":8511:8515   */\n      0x80\n        /* \"#utility.yul\":8506:8509   */\n      dup6\n        /* \"#utility.yul\":8502:8516   */\n      add\n        /* \"#utility.yul\":8488:8500   */\n      dup3\n        /* \"#utility.yul\":8443:8517   */\n      tag_263\n      jump\t// in\n    tag_391:\n        /* \"#utility.yul\":8351:8527   */\n      pop\n        /* \"#utility.yul\":8616:8620   */\n      0xa0\n        /* \"#utility.yul\":8609:8614   */\n      dup3\n        /* \"#utility.yul\":8605:8621   */\n      add\n        /* \"#utility.yul\":8599:8622   */\n      mload\n        /* \"#utility.yul\":8635:8698   */\n      tag_392\n        /* \"#utility.yul\":8692:8696   */\n      0xa0\n        /* \"#utility.yul\":8687:8690   */\n      dup6\n        /* \"#utility.yul\":8683:8697   */\n      add\n        /* \"#utility.yul\":8669:8681   */\n      dup3\n        /* \"#utility.yul\":8635:8698   */\n      tag_245\n      jump\t// in\n    tag_392:\n        /* \"#utility.yul\":8537:8708   */\n      pop\n        /* \"#utility.yul\":8797:8801   */\n      0xc0\n        /* \"#utility.yul\":8790:8795   */\n      dup3\n        /* \"#utility.yul\":8786:8802   */\n      add\n        /* \"#utility.yul\":8780:8803   */\n      mload\n        /* \"#utility.yul\":8816:8879   */\n      tag_393\n        /* \"#utility.yul\":8873:8877   */\n      0xc0\n        /* \"#utility.yul\":8868:8871   */\n      dup6\n        /* \"#utility.yul\":8864:8878   */\n      add\n        /* \"#utility.yul\":8850:8862   */\n      dup3\n        /* \"#utility.yul\":8816:8879   */\n      tag_245\n      jump\t// in\n    tag_393:\n        /* \"#utility.yul\":8718:8889   */\n      pop\n        /* \"#utility.yul\":8977:8981   */\n      0xe0\n        /* \"#utility.yul\":8970:8975   */\n      dup3\n        /* \"#utility.yul\":8966:8982   */\n      add\n        /* \"#utility.yul\":8960:8983   */\n      mload\n        /* \"#utility.yul\":8996:9055   */\n      tag_394\n        /* \"#utility.yul\":9049:9053   */\n      0xe0\n        /* \"#utility.yul\":9044:9047   */\n      dup6\n        /* \"#utility.yul\":9040:9054   */\n      add\n        /* \"#utility.yul\":9026:9038   */\n      dup3\n        /* \"#utility.yul\":8996:9055   */\n      tag_264\n      jump\t// in\n    tag_394:\n        /* \"#utility.yul\":8899:9065   */\n      pop\n        /* \"#utility.yul\":7615:9072   */\n      pop\n        /* \"#utility.yul\":7507:9072   */\n      pop\n      pop\n      jump\t// out\n        /* \"#utility.yul\":9078:9385   */\n    tag_97:\n        /* \"#utility.yul\":9213:9217   */\n      0x00\n        /* \"#utility.yul\":9251:9254   */\n      0x0100\n        /* \"#utility.yul\":9240:9249   */\n      dup3\n        /* \"#utility.yul\":9236:9255   */\n      add\n        /* \"#utility.yul\":9228:9255   */\n      swap1\n      pop\n        /* \"#utility.yul\":9265:9378   */\n      tag_396\n        /* \"#utility.yul\":9375:9376   */\n      0x00\n        /* \"#utility.yul\":9364:9373   */\n      dup4\n        /* \"#utility.yul\":9360:9377   */\n      add\n        /* \"#utility.yul\":9351:9357   */\n      dup5\n        /* \"#utility.yul\":9265:9378   */\n      tag_265\n      jump\t// in\n    tag_396:\n        /* \"#utility.yul\":9078:9385   */\n      swap3\n      swap2\n      pop\n      pop\n      jump\t// out\n        /* \"#utility.yul\":9391:9560   */\n    tag_266:\n        /* \"#utility.yul\":9475:9486   */\n      0x00\n        /* \"#utility.yul\":9509:9515   */\n      dup3\n        /* \"#utility.yul\":9504:9507   */\n      dup3\n        /* \"#utility.yul\":9497:9516   */\n      mstore\n        /* \"#utility.yul\":9549:9553   */\n      0x20\n        /* \"#utility.yul\":9544:9547   */\n      dup3\n        /* \"#utility.yul\":9540:9554   */\n      add\n        /* \"#utility.yul\":9525:9554   */\n      swap1\n      pop\n        /* \"#utility.yul\":9391:9560   */\n      swap3\n      swap2\n      pop\n      pop\n      jump\t// out\n        /* \"#utility.yul\":9566:9726   */\n    tag_267:\n        /* \"#utility.yul\":9706:9718   */\n      0x4f6e6c79206f776e657200000000000000000000000000000000000000000000\n        /* \"#utility.yul\":9702:9703   */\n      0x00\n        /* \"#utility.yul\":9694:9700   */\n      dup3\n        /* \"#utility.yul\":9690:9704   */\n      add\n        /* \"#utility.yul\":9683:9719   */\n      mstore\n        /* \"#utility.yul\":9566:9726   */\n      pop\n      jump\t// out\n        /* \"#utility.yul\":9732:10098   */\n    tag_268:\n        /* \"#utility.yul\":9874:9877   */\n      0x00\n        /* \"#utility.yul\":9895:9962   */\n      tag_400\n        /* \"#utility.yul\":9959:9961   */\n      0x0a\n        /* \"#utility.yul\":9954:9957   */\n      dup4\n        /* \"#utility.yul\":9895:9962   */\n      tag_266\n      jump\t// in\n    tag_400:\n        /* \"#utility.yul\":9888:9962   */\n      swap2\n      pop\n        /* \"#utility.yul\":9971:10064   */\n      tag_401\n        /* \"#utility.yul\":10060:10063   */\n      dup3\n        /* \"#utility.yul\":9971:10064   */\n      tag_267\n      jump\t// in\n    tag_401:\n        /* \"#utility.yul\":10089:10091   */\n      0x20\n        /* \"#utility.yul\":10084:10087   */\n      dup3\n        /* \"#utility.yul\":10080:10092   */\n      add\n        /* \"#utility.yul\":10073:10092   */\n      swap1\n      pop\n        /* \"#utility.yul\":9732:10098   */\n      swap2\n      swap1\n      pop\n      jump\t// out\n        /* \"#utility.yul\":10104:10523   */\n    tag_104:\n        /* \"#utility.yul\":10270:10274   */\n      0x00\n        /* \"#utility.yul\":10308:10310   */\n      0x20\n        /* \"#utility.yul\":10297:10306   */\n      dup3\n        /* \"#utility.yul\":10293:10311   */\n      add\n        /* \"#utility.yul\":10285:10311   */\n      swap1\n      pop\n        /* \"#utility.yul\":10357:10366   */\n      dup2\n        /* \"#utility.yul\":10351:10355   */\n      dup2\n        /* \"#utility.yul\":10347:10367   */\n      sub\n        /* \"#utility.yul\":10343:10344   */\n      0x00\n        /* \"#utility.yul\":10332:10341   */\n      dup4\n        /* \"#utility.yul\":10328:10345   */\n      add\n        /* \"#utility.yul\":10321:10368   */\n      mstore\n        /* \"#utility.yul\":10385:10516   */\n      tag_403\n        /* \"#utility.yul\":10511:10515   */\n      dup2\n        /* \"#utility.yul\":10385:10516   */\n      tag_268\n      jump\t// in\n    tag_403:\n        /* \"#utility.yul\":10377:10516   */\n      swap1\n      pop\n        /* \"#utility.yul\":10104:10523   */\n      swap2\n      swap1\n      pop\n      jump\t// out\n        /* \"#utility.yul\":10529:10699   */\n    tag_269:\n        /* \"#utility.yul\":10669:10691   */\n      0x4e6f2066756e647320746f207769746864726177000000000000000000000000\n        /* \"#utility.yul\":10665:10666   */\n      0x00\n        /* \"#utility.yul\":10657:10663   */\n      dup3\n        /* \"#utility.yul\":10653:10667   */\n      add\n        /* \"#utility.yul\":10646:10692   */\n      mstore\n        /* \"#utility.yul\":10529:10699   */\n      pop\n      jump\t// out\n        /* \"#utility.yul\":10705:11071   */\n    tag_270:\n        /* \"#utility.yul\":10847:10850   */\n      0x00\n        /* \"#utility.yul\":10868:10935   */\n      tag_406\n        /* \"#utility.yul\":10932:10934   */\n      0x14\n        /* \"#utility.yul\":10927:10930   */\n      dup4\n        /* \"#utility.yul\":10868:10935   */\n      tag_266\n      jump\t// in\n    tag_406:\n        /* \"#utility.yul\":10861:10935   */\n      swap2\n      pop\n        /* \"#utility.yul\":10944:11037   */\n      tag_407\n        /* \"#utility.yul\":11033:11036   */\n      dup3\n        /* \"#utility.yul\":10944:11037   */\n      tag_269\n      jump\t// in\n    tag_407:\n        /* \"#utility.yul\":11062:11064   */\n      0x20\n        /* \"#utility.yul\":11057:11060   */\n      dup3\n        /* \"#utility.yul\":11053:11065   */\n      add\n        /* \"#utility.yul\":11046:11065   */\n      swap1\n      pop\n        /* \"#utility.yul\":10705:11071   */\n      swap2\n      swap1\n      pop\n      jump\t// out\n        /* \"#utility.yul\":11077:11496   */\n    tag_107:\n        /* \"#utility.yul\":11243:11247   */\n      0x00\n        /* \"#utility.yul\":11281:11283   */\n      0x20\n        /* \"#utility.yul\":11270:11279   */\n      dup3\n        /* \"#utility.yul\":11266:11284   */\n      add\n        /* \"#utility.yul\":11258:11284   */\n      swap1\n      pop\n        /* \"#utility.yul\":11330:11339   */\n      dup2\n        /* \"#utility.yul\":11324:11328   */\n      dup2\n        /* \"#utility.yul\":11320:11340   */\n      sub\n        /* \"#utility.yul\":11316:11317   */\n      0x00\n        /* \"#utility.yul\":11305:11314   */\n      dup4\n        /* \"#utility.yul\":11301:11318   */\n      add\n        /* \"#utility.yul\":11294:11341   */\n      mstore\n        /* \"#utility.yul\":11358:11489   */\n      tag_409\n        /* \"#utility.yul\":11484:11488   */\n      dup2\n        /* \"#utility.yul\":11358:11489   */\n      tag_270\n      jump\t// in\n    tag_409:\n        /* \"#utility.yul\":11350:11489   */\n      swap1\n      pop\n        /* \"#utility.yul\":11077:11496   */\n      swap2\n      swap1\n      pop\n      jump\t// out\n        /* \"#utility.yul\":11502:11649   */\n    tag_271:\n        /* \"#utility.yul\":11603:11614   */\n      0x00\n        /* \"#utility.yul\":11640:11643   */\n      dup2\n        /* \"#utility.yul\":11625:11643   */\n      swap1\n      pop\n        /* \"#utility.yul\":11502:11649   */\n      swap3\n      swap2\n      pop\n      pop\n      jump\t// out\n        /* \"#utility.yul\":11655:11769   */\n    tag_272:\n      pop\n      jump\t// out\n        /* \"#utility.yul\":11775:12173   */\n    tag_273:\n        /* \"#utility.yul\":11934:11937   */\n      0x00\n        /* \"#utility.yul\":11955:12038   */\n      tag_413\n        /* \"#utility.yul\":12036:12037   */\n      0x00\n        /* \"#utility.yul\":12031:12034   */\n      dup4\n        /* \"#utility.yul\":11955:12038   */\n      tag_271\n      jump\t// in\n    tag_413:\n        /* \"#utility.yul\":11948:12038   */\n      swap2\n      pop\n        /* \"#utility.yul\":12047:12140   */\n      tag_414\n        /* \"#utility.yul\":12136:12139   */\n      dup3\n        /* \"#utility.yul\":12047:12140   */\n      tag_272\n      jump\t// in\n    tag_414:\n        /* \"#utility.yul\":12165:12166   */\n      0x00\n        /* \"#utility.yul\":12160:12163   */\n      dup3\n        /* \"#utility.yul\":12156:12167   */\n      add\n        /* \"#utility.yul\":12149:12167   */\n      swap1\n      pop\n        /* \"#utility.yul\":11775:12173   */\n      swap2\n      swap1\n      pop\n      jump\t// out\n        /* \"#utility.yul\":12179:12558   */\n    tag_109:\n        /* \"#utility.yul\":12363:12366   */\n      0x00\n        /* \"#utility.yul\":12385:12532   */\n      tag_416\n        /* \"#utility.yul\":12528:12531   */\n      dup3\n        /* \"#utility.yul\":12385:12532   */\n      tag_273\n      jump\t// in\n    tag_416:\n        /* \"#utility.yul\":12378:12532   */\n      swap2\n      pop\n        /* \"#utility.yul\":12549:12552   */\n      dup2\n        /* \"#utility.yul\":12542:12552   */\n      swap1\n      pop\n        /* \"#utility.yul\":12179:12558   */\n      swap2\n      swap1\n      pop\n      jump\t// out\n        /* \"#utility.yul\":12564:12729   */\n    tag_274:\n        /* \"#utility.yul\":12704:12721   */\n      0x5769746864726177206661696c65640000000000000000000000000000000000\n        /* \"#utility.yul\":12700:12701   */\n      0x00\n        /* \"#utility.yul\":12692:12698   */\n      dup3\n        /* \"#utility.yul\":12688:12702   */\n      add\n        /* \"#utility.yul\":12681:12722   */\n      mstore\n        /* \"#utility.yul\":12564:12729   */\n      pop\n      jump\t// out\n        /* \"#utility.yul\":12735:13101   */\n    tag_275:\n        /* \"#utility.yul\":12877:12880   */\n      0x00\n        /* \"#utility.yul\":12898:12965   */\n      tag_419\n        /* \"#utility.yul\":12962:12964   */\n      0x0f\n        /* \"#utility.yul\":12957:12960   */\n      dup4\n        /* \"#utility.yul\":12898:12965   */\n      tag_266\n      jump\t// in\n    tag_419:\n        /* \"#utility.yul\":12891:12965   */\n      swap2\n      pop\n        /* \"#utility.yul\":12974:13067   */\n      tag_420\n        /* \"#utility.yul\":13063:13066   */\n      dup3\n        /* \"#utility.yul\":12974:13067   */\n      tag_274\n      jump\t// in\n    tag_420:\n        /* \"#utility.yul\":13092:13094   */\n      0x20\n        /* \"#utility.yul\":13087:13090   */\n      dup3\n        /* \"#utility.yul\":13083:13095   */\n      add\n        /* \"#utility.yul\":13076:13095   */\n      swap1\n      pop\n        /* \"#utility.yul\":12735:13101   */\n      swap2\n      swap1\n      pop\n      jump\t// out\n        /* \"#utility.yul\":13107:13526   */\n    tag_115:\n        /* \"#utility.yul\":13273:13277   */\n      0x00\n        /* \"#utility.yul\":13311:13313   */\n      0x20\n        /* \"#utility.yul\":13300:13309   */\n      dup3\n        /* \"#utility.yul\":13296:13314   */\n      add\n        /* \"#utility.yul\":13288:13314   */\n      swap1\n      pop\n        /* \"#utility.yul\":13360:13369   */\n      dup2\n        /* \"#utility.yul\":13354:13358   */\n      dup2\n        /* \"#utility.yul\":13350:13370   */\n      sub\n        /* \"#utility.yul\":13346:13347   */\n      0x00\n        /* \"#utility.yul\":13335:13344   */\n      dup4\n        /* \"#utility.yul\":13331:13348   */\n      add\n        /* \"#utility.yul\":13324:13371   */\n      mstore\n        /* \"#utility.yul\":13388:13519   */\n      tag_422\n        /* \"#utility.yul\":13514:13518   */\n      dup2\n        /* \"#utility.yul\":13388:13519   */\n      tag_275\n      jump\t// in\n    tag_422:\n        /* \"#utility.yul\":13380:13519   */\n      swap1\n      pop\n        /* \"#utility.yul\":13107:13526   */\n      swap2\n      swap1\n      pop\n      jump\t// out\n        /* \"#utility.yul\":13532:13705   */\n    tag_276:\n        /* \"#utility.yul\":13672:13697   */\n      0x4e6f7420656e6f7567682045544820746f20706c616e74000000000000000000\n        /* \"#utility.yul\":13668:13669   */\n      0x00\n        /* \"#utility.yul\":13660:13666   */\n      dup3\n        /* \"#utility.yul\":13656:13670   */\n      add\n        /* \"#utility.yul\":13649:13698   */\n      mstore\n        /* \"#utility.yul\":13532:13705   */\n      pop\n      jump\t// out\n        /* \"#utility.yul\":13711:14077   */\n    tag_277:\n        /* \"#utility.yul\":13853:13856   */\n      0x00\n        /* \"#utility.yul\":13874:13941   */\n      tag_425\n        /* \"#utility.yul\":13938:13940   */\n      0x17\n        /* \"#utility.yul\":13933:13936   */\n      dup4\n        /* \"#utility.yul\":13874:13941   */\n      tag_266\n      jump\t// in\n    tag_425:\n        /* \"#utility.yul\":13867:13941   */\n      swap2\n      pop\n        /* \"#utility.yul\":13950:14043   */\n      tag_426\n        /* \"#utility.yul\":14039:14042   */\n      dup3\n        /* \"#utility.yul\":13950:14043   */\n      tag_276\n      jump\t// in\n    tag_426:\n        /* \"#utility.yul\":14068:14070   */\n      0x20\n        /* \"#utility.yul\":14063:14066   */\n      dup3\n        /* \"#utility.yul\":14059:14071   */\n      add\n        /* \"#utility.yul\":14052:14071   */\n      swap1\n      pop\n        /* \"#utility.yul\":13711:14077   */\n      swap2\n      swap1\n      pop\n      jump\t// out\n        /* \"#utility.yul\":14083:14502   */\n    tag_119:\n        /* \"#utility.yul\":14249:14253   */\n      0x00\n        /* \"#utility.yul\":14287:14289   */\n      0x20\n        /* \"#utility.yul\":14276:14285   */\n      dup3\n        /* \"#utility.yul\":14272:14290   */\n      add\n        /* \"#utility.yul\":14264:14290   */\n      swap1\n      pop\n        /* \"#utility.yul\":14336:14345   */\n      dup2\n        /* \"#utility.yul\":14330:14334   */\n      dup2\n        /* \"#utility.yul\":14326:14346   */\n      sub\n        /* \"#utility.yul\":14322:14323   */\n      0x00\n        /* \"#utility.yul\":14311:14320   */\n      dup4\n        /* \"#utility.yul\":14307:14324   */\n      add\n        /* \"#utility.yul\":14300:14347   */\n      mstore\n        /* \"#utility.yul\":14364:14495   */\n      tag_428\n        /* \"#utility.yul\":14490:14494   */\n      dup2\n        /* \"#utility.yul\":14364:14495   */\n      tag_277\n      jump\t// in\n    tag_428:\n        /* \"#utility.yul\":14356:14495   */\n      swap1\n      pop\n        /* \"#utility.yul\":14083:14502   */\n      swap2\n      swap1\n      pop\n      jump\t// out\n        /* \"#utility.yul\":14508:14688   */\n    tag_278:\n        /* \"#utility.yul\":14556:14633   */\n      0x4e487b7100000000000000000000000000000000000000000000000000000000\n        /* \"#utility.yul\":14553:14554   */\n      0x00\n        /* \"#utility.yul\":14546:14634   */\n      mstore\n        /* \"#utility.yul\":14653:14657   */\n      0x11\n        /* \"#utility.yul\":14650:14651   */\n      0x04\n        /* \"#utility.yul\":14643:14658   */\n      mstore\n        /* \"#utility.yul\":14677:14681   */\n      0x24\n        /* \"#utility.yul\":14674:14675   */\n      0x00\n        /* \"#utility.yul\":14667:14682   */\n      revert\n        /* \"#utility.yul\":14694:14885   */\n    tag_121:\n        /* \"#utility.yul\":14734:14737   */\n      0x00\n        /* \"#utility.yul\":14753:14773   */\n      tag_431\n        /* \"#utility.yul\":14771:14772   */\n      dup3\n        /* \"#utility.yul\":14753:14773   */\n      tag_244\n      jump\t// in\n    tag_431:\n        /* \"#utility.yul\":14748:14773   */\n      swap2\n      pop\n        /* \"#utility.yul\":14787:14807   */\n      tag_432\n        /* \"#utility.yul\":14805:14806   */\n      dup4\n        /* \"#utility.yul\":14787:14807   */\n      tag_244\n      jump\t// in\n    tag_432:\n        /* \"#utility.yul\":14782:14807   */\n      swap3\n      pop\n        /* \"#utility.yul\":14830:14831   */\n      dup3\n        /* \"#utility.yul\":14827:14828   */\n      dup3\n        /* \"#utility.yul\":14823:14832   */\n      add\n        /* \"#utility.yul\":14816:14832   */\n      swap1\n      pop\n        /* \"#utility.yul\":14851:14854   */\n      dup1\n        /* \"#utility.yul\":14848:14849   */\n      dup3\n        /* \"#utility.yul\":14845:14855   */\n      gt\n        /* \"#utility.yul\":14842:14878   */\n      iszero\n      tag_433\n      jumpi\n        /* \"#utility.yul\":14858:14876   */\n      tag_434\n      tag_278\n      jump\t// in\n    tag_434:\n        /* \"#utility.yul\":14842:14878   */\n    tag_433:\n        /* \"#utility.yul\":14694:14885   */\n      swap3\n      swap2\n      pop\n      pop\n      jump\t// out\n        /* \"#utility.yul\":14891:15085   */\n    tag_132:\n        /* \"#utility.yul\":14931:14935   */\n      0x00\n        /* \"#utility.yul\":14951:14971   */\n      tag_436\n        /* \"#utility.yul\":14969:14970   */\n      dup3\n        /* \"#utility.yul\":14951:14971   */\n      tag_244\n      jump\t// in\n    tag_436:\n        /* \"#utility.yul\":14946:14971   */\n      swap2\n      pop\n        /* \"#utility.yul\":14985:15005   */\n      tag_437\n        /* \"#utility.yul\":15003:15004   */\n      dup4\n        /* \"#utility.yul\":14985:15005   */\n      tag_244\n      jump\t// in\n    tag_437:\n        /* \"#utility.yul\":14980:15005   */\n      swap3\n      pop\n        /* \"#utility.yul\":15029:15030   */\n      dup3\n        /* \"#utility.yul\":15026:15027   */\n      dup3\n        /* \"#utility.yul\":15022:15031   */\n      sub\n        /* \"#utility.yul\":15014:15031   */\n      swap1\n      pop\n        /* \"#utility.yul\":15053:15054   */\n      dup2\n        /* \"#utility.yul\":15047:15051   */\n      dup2\n        /* \"#utility.yul\":15044:15055   */\n      gt\n        /* \"#utility.yul\":15041:15078   */\n      iszero\n      tag_438\n      jumpi\n        /* \"#utility.yul\":15058:15076   */\n      tag_439\n      tag_278\n      jump\t// in\n    tag_439:\n        /* \"#utility.yul\":15041:15078   */\n    tag_438:\n        /* \"#utility.yul\":14891:15085   */\n      swap3\n      swap2\n      pop\n      pop\n      jump\t// out\n        /* \"#utility.yul\":15091:15271   */\n    tag_279:\n        /* \"#utility.yul\":15139:15216   */\n      0x4e487b7100000000000000000000000000000000000000000000000000000000\n        /* \"#utility.yul\":15136:15137   */\n      0x00\n        /* \"#utility.yul\":15129:15217   */\n      mstore\n        /* \"#utility.yul\":15236:15240   */\n      0x12\n        /* \"#utility.yul\":15233:15234   */\n      0x04\n        /* \"#utility.yul\":15226:15241   */\n      mstore\n        /* \"#utility.yul\":15260:15264   */\n      0x24\n        /* \"#utility.yul\":15257:15258   */\n      0x00\n        /* \"#utility.yul\":15250:15265   */\n      revert\n        /* \"#utility.yul\":15277:15462   */\n    tag_134:\n        /* \"#utility.yul\":15317:15318   */\n      0x00\n        /* \"#utility.yul\":15334:15354   */\n      tag_442\n        /* \"#utility.yul\":15352:15353   */\n      dup3\n        /* \"#utility.yul\":15334:15354   */\n      tag_244\n      jump\t// in\n    tag_442:\n        /* \"#utility.yul\":15329:15354   */\n      swap2\n      pop\n        /* \"#utility.yul\":15368:15388   */\n      tag_443\n        /* \"#utility.yul\":15386:15387   */\n      dup4\n        /* \"#utility.yul\":15368:15388   */\n      tag_244\n      jump\t// in\n    tag_443:\n        /* \"#utility.yul\":15363:15388   */\n      swap3\n      pop\n        /* \"#utility.yul\":15407:15408   */\n      dup3\n        /* \"#utility.yul\":15397:15432   */\n      tag_444\n      jumpi\n        /* \"#utility.yul\":15412:15430   */\n      tag_445\n      tag_279\n      jump\t// in\n    tag_445:\n        /* \"#utility.yul\":15397:15432   */\n    tag_444:\n        /* \"#utility.yul\":15454:15455   */\n      dup3\n        /* \"#utility.yul\":15451:15452   */\n      dup3\n        /* \"#utility.yul\":15447:15456   */\n      div\n        /* \"#utility.yul\":15442:15456   */\n      swap1\n      pop\n        /* \"#utility.yul\":15277:15462   */\n      swap3\n      swap2\n      pop\n      pop\n      jump\t// out\n        /* \"#utility.yul\":15468:15878   */\n    tag_136:\n        /* \"#utility.yul\":15508:15515   */\n      0x00\n        /* \"#utility.yul\":15531:15551   */\n      tag_447\n        /* \"#utility.yul\":15549:15550   */\n      dup3\n        /* \"#utility.yul\":15531:15551   */\n      tag_244\n      jump\t// in\n    tag_447:\n        /* \"#utility.yul\":15526:15551   */\n      swap2\n      pop\n        /* \"#utility.yul\":15565:15585   */\n      tag_448\n        /* \"#utility.yul\":15583:15584   */\n      dup4\n        /* \"#utility.yul\":15565:15585   */\n      tag_244\n      jump\t// in\n    tag_448:\n        /* \"#utility.yul\":15560:15585   */\n      swap3\n      pop\n        /* \"#utility.yul\":15620:15621   */\n      dup3\n        /* \"#utility.yul\":15617:15618   */\n      dup3\n        /* \"#utility.yul\":15613:15622   */\n      mul\n        /* \"#utility.yul\":15642:15672   */\n      tag_449\n        /* \"#utility.yul\":15660:15671   */\n      dup2\n        /* \"#utility.yul\":15642:15672   */\n      tag_244\n      jump\t// in\n    tag_449:\n        /* \"#utility.yul\":15631:15672   */\n      swap2\n      pop\n        /* \"#utility.yul\":15821:15822   */\n      dup3\n        /* \"#utility.yul\":15812:15819   */\n      dup3\n        /* \"#utility.yul\":15808:15823   */\n      div\n        /* \"#utility.yul\":15805:15806   */\n      dup5\n        /* \"#utility.yul\":15802:15824   */\n      eq\n        /* \"#utility.yul\":15782:15783   */\n      dup4\n        /* \"#utility.yul\":15775:15784   */\n      iszero\n        /* \"#utility.yul\":15755:15838   */\n      or\n        /* \"#utility.yul\":15732:15871   */\n      tag_450\n      jumpi\n        /* \"#utility.yul\":15851:15869   */\n      tag_451\n      tag_278\n      jump\t// in\n    tag_451:\n        /* \"#utility.yul\":15732:15871   */\n    tag_450:\n        /* \"#utility.yul\":15516:15878   */\n      pop\n        /* \"#utility.yul\":15468:15878   */\n      swap3\n      swap2\n      pop\n      pop\n      jump\t// out\n        /* \"#utility.yul\":15884:16054   */\n    tag_280:\n        /* \"#utility.yul\":16024:16046   */\n      0x506c616e7420646f6573206e6f74206578697374000000000000000000000000\n        /* \"#utility.yul\":16020:16021   */\n      0x00\n        /* \"#utility.yul\":16012:16018   */\n      dup3\n        /* \"#utility.yul\":16008:16022   */\n      add\n        /* \"#utility.yul\":16001:16047   */\n      mstore\n        /* \"#utility.yul\":15884:16054   */\n      pop\n      jump\t// out\n        /* \"#utility.yul\":16060:16426   */\n    tag_281:\n        /* \"#utility.yul\":16202:16205   */\n      0x00\n        /* \"#utility.yul\":16223:16290   */\n      tag_454\n        /* \"#utility.yul\":16287:16289   */\n      0x14\n        /* \"#utility.yul\":16282:16285   */\n      dup4\n        /* \"#utility.yul\":16223:16290   */\n      tag_266\n      jump\t// in\n    tag_454:\n        /* \"#utility.yul\":16216:16290   */\n      swap2\n      pop\n        /* \"#utility.yul\":16299:16392   */\n      tag_455\n        /* \"#utility.yul\":16388:16391   */\n      dup3\n        /* \"#utility.yul\":16299:16392   */\n      tag_280\n      jump\t// in\n    tag_455:\n        /* \"#utility.yul\":16417:16419   */\n      0x20\n        /* \"#utility.yul\":16412:16415   */\n      dup3\n        /* \"#utility.yul\":16408:16420   */\n      add\n        /* \"#utility.yul\":16401:16420   */\n      swap1\n      pop\n        /* \"#utility.yul\":16060:16426   */\n      swap2\n      swap1\n      pop\n      jump\t// out\n        /* \"#utility.yul\":16432:16851   */\n    tag_144:\n        /* \"#utility.yul\":16598:16602   */\n      0x00\n        /* \"#utility.yul\":16636:16638   */\n      0x20\n        /* \"#utility.yul\":16625:16634   */\n      dup3\n        /* \"#utility.yul\":16621:16639   */\n      add\n        /* \"#utility.yul\":16613:16639   */\n      swap1\n      pop\n        /* \"#utility.yul\":16685:16694   */\n      dup2\n        /* \"#utility.yul\":16679:16683   */\n      dup2\n        /* \"#utility.yul\":16675:16695   */\n      sub\n        /* \"#utility.yul\":16671:16672   */\n      0x00\n        /* \"#utility.yul\":16660:16669   */\n      dup4\n        /* \"#utility.yul\":16656:16673   */\n      add\n        /* \"#utility.yul\":16649:16696   */\n      mstore\n        /* \"#utility.yul\":16713:16844   */\n      tag_457\n        /* \"#utility.yul\":16839:16843   */\n      dup2\n        /* \"#utility.yul\":16713:16844   */\n      tag_281\n      jump\t// in\n    tag_457:\n        /* \"#utility.yul\":16705:16844   */\n      swap1\n      pop\n        /* \"#utility.yul\":16432:16851   */\n      swap2\n      swap1\n      pop\n      jump\t// out\n        /* \"#utility.yul\":16857:17027   */\n    tag_282:\n        /* \"#utility.yul\":16997:17019   */\n      0x4f6e6c79206f776e65722063616e207761746572000000000000000000000000\n        /* \"#utility.yul\":16993:16994   */\n      0x00\n        /* \"#utility.yul\":16985:16991   */\n      dup3\n        /* \"#utility.yul\":16981:16995   */\n      add\n        /* \"#utility.yul\":16974:17020   */\n      mstore\n        /* \"#utility.yul\":16857:17027   */\n      pop\n      jump\t// out\n        /* \"#utility.yul\":17033:17399   */\n    tag_283:\n        /* \"#utility.yul\":17175:17178   */\n      0x00\n        /* \"#utility.yul\":17196:17263   */\n      tag_460\n        /* \"#utility.yul\":17260:17262   */\n      0x14\n        /* \"#utility.yul\":17255:17258   */\n      dup4\n        /* \"#utility.yul\":17196:17263   */\n      tag_266\n      jump\t// in\n    tag_460:\n        /* \"#utility.yul\":17189:17263   */\n      swap2\n      pop\n        /* \"#utility.yul\":17272:17365   */\n      tag_461\n        /* \"#utility.yul\":17361:17364   */\n      dup3\n        /* \"#utility.yul\":17272:17365   */\n      tag_282\n      jump\t// in\n    tag_461:\n        /* \"#utility.yul\":17390:17392   */\n      0x20\n        /* \"#utility.yul\":17385:17388   */\n      dup3\n        /* \"#utility.yul\":17381:17393   */\n      add\n        /* \"#utility.yul\":17374:17393   */\n      swap1\n      pop\n        /* \"#utility.yul\":17033:17399   */\n      swap2\n      swap1\n      pop\n      jump\t// out\n        /* \"#utility.yul\":17405:17824   */\n    tag_147:\n        /* \"#utility.yul\":17571:17575   */\n      0x00\n        /* \"#utility.yul\":17609:17611   */\n      0x20\n        /* \"#utility.yul\":17598:17607   */\n      dup3\n        /* \"#utility.yul\":17594:17612   */\n      add\n        /* \"#utility.yul\":17586:17612   */\n      swap1\n      pop\n        /* \"#utility.yul\":17658:17667   */\n      dup2\n        /* \"#utility.yul\":17652:17656   */\n      dup2\n        /* \"#utility.yul\":17648:17668   */\n      sub\n        /* \"#utility.yul\":17644:17645   */\n      0x00\n        /* \"#utility.yul\":17633:17642   */\n      dup4\n        /* \"#utility.yul\":17629:17646   */\n      add\n        /* \"#utility.yul\":17622:17669   */\n      mstore\n        /* \"#utility.yul\":17686:17817   */\n      tag_463\n        /* \"#utility.yul\":17812:17816   */\n      dup2\n        /* \"#utility.yul\":17686:17817   */\n      tag_283\n      jump\t// in\n    tag_463:\n        /* \"#utility.yul\":17678:17817   */\n      swap1\n      pop\n        /* \"#utility.yul\":17405:17824   */\n      swap2\n      swap1\n      pop\n      jump\t// out\n        /* \"#utility.yul\":17830:17993   */\n    tag_284:\n        /* \"#utility.yul\":17970:17985   */\n      0x506c616e74206973206465616400000000000000000000000000000000000000\n        /* \"#utility.yul\":17966:17967   */\n      0x00\n        /* \"#utility.yul\":17958:17964   */\n      dup3\n        /* \"#utility.yul\":17954:17968   */\n      add\n        /* \"#utility.yul\":17947:17986   */\n      mstore\n        /* \"#utility.yul\":17830:17993   */\n      pop\n      jump\t// out\n        /* \"#utility.yul\":17999:18365   */\n    tag_285:\n        /* \"#utility.yul\":18141:18144   */\n      0x00\n        /* \"#utility.yul\":18162:18229   */\n      tag_466\n        /* \"#utility.yul\":18226:18228   */\n      0x0d\n        /* \"#utility.yul\":18221:18224   */\n      dup4\n        /* \"#utility.yul\":18162:18229   */\n      tag_266\n      jump\t// in\n    tag_466:\n        /* \"#utility.yul\":18155:18229   */\n      swap2\n      pop\n        /* \"#utility.yul\":18238:18331   */\n      tag_467\n        /* \"#utility.yul\":18327:18330   */\n      dup3\n        /* \"#utility.yul\":18238:18331   */\n      tag_284\n      jump\t// in\n    tag_467:\n        /* \"#utility.yul\":18356:18358   */\n      0x20\n        /* \"#utility.yul\":18351:18354   */\n      dup3\n        /* \"#utility.yul\":18347:18359   */\n      add\n        /* \"#utility.yul\":18340:18359   */\n      swap1\n      pop\n        /* \"#utility.yul\":17999:18365   */\n      swap2\n      swap1\n      pop\n      jump\t// out\n        /* \"#utility.yul\":18371:18790   */\n    tag_150:\n        /* \"#utility.yul\":18537:18541   */\n      0x00\n        /* \"#utility.yul\":18575:18577   */\n      0x20\n        /* \"#utility.yul\":18564:18573   */\n      dup3\n        /* \"#utility.yul\":18560:18578   */\n      add\n        /* \"#utility.yul\":18552:18578   */\n      swap1\n      pop\n        /* \"#utility.yul\":18624:18633   */\n      dup2\n        /* \"#utility.yul\":18618:18622   */\n      dup2\n        /* \"#utility.yul\":18614:18634   */\n      sub\n        /* \"#utility.yul\":18610:18611   */\n      0x00\n        /* \"#utility.yul\":18599:18608   */\n      dup4\n        /* \"#utility.yul\":18595:18612   */\n      add\n        /* \"#utility.yul\":18588:18635   */\n      mstore\n        /* \"#utility.yul\":18652:18783   */\n      tag_469\n        /* \"#utility.yul\":18778:18782   */\n      dup2\n        /* \"#utility.yul\":18652:18783   */\n      tag_285\n      jump\t// in\n    tag_469:\n        /* \"#utility.yul\":18644:18783   */\n      swap1\n      pop\n        /* \"#utility.yul\":18371:18790   */\n      swap2\n      swap1\n      pop\n      jump\t// out\n        /* \"#utility.yul\":18796:18972   */\n    tag_286:\n        /* \"#utility.yul\":18936:18964   */\n      0x506c616e742064696564206265666f7265207761746572696e67000000000000\n        /* \"#utility.yul\":18932:18933   */\n      0x00\n        /* \"#utility.yul\":18924:18930   */\n      dup3\n        /* \"#utility.yul\":18920:18934   */\n      add\n        /* \"#utility.yul\":18913:18965   */\n      mstore\n        /* \"#utility.yul\":18796:18972   */\n      pop\n      jump\t// out\n        /* \"#utility.yul\":18978:19344   */\n    tag_287:\n        /* \"#utility.yul\":19120:19123   */\n      0x00\n        /* \"#utility.yul\":19141:19208   */\n      tag_472\n        /* \"#utility.yul\":19205:19207   */\n      0x1a\n        /* \"#utility.yul\":19200:19203   */\n      dup4\n        /* \"#utility.yul\":19141:19208   */\n      tag_266\n      jump\t// in\n    tag_472:\n        /* \"#utility.yul\":19134:19208   */\n      swap2\n      pop\n        /* \"#utility.yul\":19217:19310   */\n      tag_473\n        /* \"#utility.yul\":19306:19309   */\n      dup3\n        /* \"#utility.yul\":19217:19310   */\n      tag_286\n      jump\t// in\n    tag_473:\n        /* \"#utility.yul\":19335:19337   */\n      0x20\n        /* \"#utility.yul\":19330:19333   */\n      dup3\n        /* \"#utility.yul\":19326:19338   */\n      add\n        /* \"#utility.yul\":19319:19338   */\n      swap1\n      pop\n        /* \"#utility.yul\":18978:19344   */\n      swap2\n      swap1\n      pop\n      jump\t// out\n        /* \"#utility.yul\":19350:19769   */\n    tag_155:\n        /* \"#utility.yul\":19516:19520   */\n      0x00\n        /* \"#utility.yul\":19554:19556   */\n      0x20\n        /* \"#utility.yul\":19543:19552   */\n      dup3\n        /* \"#utility.yul\":19539:19557   */\n      add\n        /* \"#utility.yul\":19531:19557   */\n      swap1\n      pop\n        /* \"#utility.yul\":19603:19612   */\n      dup2\n        /* \"#utility.yul\":19597:19601   */\n      dup2\n        /* \"#utility.yul\":19593:19613   */\n      sub\n        /* \"#utility.yul\":19589:19590   */\n      0x00\n        /* \"#utility.yul\":19578:19587   */\n      dup4\n        /* \"#utility.yul\":19574:19591   */\n      add\n        /* \"#utility.yul\":19567:19614   */\n      mstore\n        /* \"#utility.yul\":19631:19762   */\n      tag_475\n        /* \"#utility.yul\":19757:19761   */\n      dup2\n        /* \"#utility.yul\":19631:19762   */\n      tag_287\n      jump\t// in\n    tag_475:\n        /* \"#utility.yul\":19623:19762   */\n      swap1\n      pop\n        /* \"#utility.yul\":19350:19769   */\n      swap2\n      swap1\n      pop\n      jump\t// out\n        /* \"#utility.yul\":19775:20019   */\n    tag_172:\n        /* \"#utility.yul\":19879:19883   */\n      0x00\n        /* \"#utility.yul\":19917:19919   */\n      0x20\n        /* \"#utility.yul\":19906:19915   */\n      dup3\n        /* \"#utility.yul\":19902:19920   */\n      add\n        /* \"#utility.yul\":19894:19920   */\n      swap1\n      pop\n        /* \"#utility.yul\":19930:20012   */\n      tag_477\n        /* \"#utility.yul\":20009:20010   */\n      0x00\n        /* \"#utility.yul\":19998:20007   */\n      dup4\n        /* \"#utility.yul\":19994:20011   */\n      add\n        /* \"#utility.yul\":19985:19991   */\n      dup5\n        /* \"#utility.yul\":19930:20012   */\n      tag_260\n      jump\t// in\n    tag_477:\n        /* \"#utility.yul\":19775:20019   */\n      swap3\n      swap2\n      pop\n      pop\n      jump\t// out\n        /* \"#utility.yul\":20025:20197   */\n    tag_288:\n        /* \"#utility.yul\":20165:20189   */\n      0x4f6e6c79206f776e65722063616e206861727665737400000000000000000000\n        /* \"#utility.yul\":20161:20162   */\n      0x00\n        /* \"#utility.yul\":20153:20159   */\n      dup3\n        /* \"#utility.yul\":20149:20163   */\n      add\n        /* \"#utility.yul\":20142:20190   */\n      mstore\n        /* \"#utility.yul\":20025:20197   */\n      pop\n      jump\t// out\n        /* \"#utility.yul\":20203:20569   */\n    tag_289:\n        /* \"#utility.yul\":20345:20348   */\n      0x00\n        /* \"#utility.yul\":20366:20433   */\n      tag_480\n        /* \"#utility.yul\":20430:20432   */\n      0x16\n        /* \"#utility.yul\":20425:20428   */\n      dup4\n        /* \"#utility.yul\":20366:20433   */\n      tag_266\n      jump\t// in\n    tag_480:\n        /* \"#utility.yul\":20359:20433   */\n      swap2\n      pop\n        /* \"#utility.yul\":20442:20535   */\n      tag_481\n        /* \"#utility.yul\":20531:20534   */\n      dup3\n        /* \"#utility.yul\":20442:20535   */\n      tag_288\n      jump\t// in\n    tag_481:\n        /* \"#utility.yul\":20560:20562   */\n      0x20\n        /* \"#utility.yul\":20555:20558   */\n      dup3\n        /* \"#utility.yul\":20551:20563   */\n      add\n        /* \"#utility.yul\":20544:20563   */\n      swap1\n      pop\n        /* \"#utility.yul\":20203:20569   */\n      swap2\n      swap1\n      pop\n      jump\t// out\n        /* \"#utility.yul\":20575:20994   */\n    tag_189:\n        /* \"#utility.yul\":20741:20745   */\n      0x00\n        /* \"#utility.yul\":20779:20781   */\n      0x20\n        /* \"#utility.yul\":20768:20777   */\n      dup3\n        /* \"#utility.yul\":20764:20782   */\n      add\n        /* \"#utility.yul\":20756:20782   */\n      swap1\n      pop\n        /* \"#utility.yul\":20828:20837   */\n      dup2\n        /* \"#utility.yul\":20822:20826   */\n      dup2\n        /* \"#utility.yul\":20818:20838   */\n      sub\n        /* \"#utility.yul\":20814:20815   */\n      0x00\n        /* \"#utility.yul\":20803:20812   */\n      dup4\n        /* \"#utility.yul\":20799:20816   */\n      add\n        /* \"#utility.yul\":20792:20839   */\n      mstore\n        /* \"#utility.yul\":20856:20987   */\n      tag_483\n        /* \"#utility.yul\":20982:20986   */\n      dup2\n        /* \"#utility.yul\":20856:20987   */\n      tag_289\n      jump\t// in\n    tag_483:\n        /* \"#utility.yul\":20848:20987   */\n      swap1\n      pop\n        /* \"#utility.yul\":20575:20994   */\n      swap2\n      swap1\n      pop\n      jump\t// out\n        /* \"#utility.yul\":21000:21175   */\n    tag_290:\n        /* \"#utility.yul\":21140:21167   */\n      0x506c616e742064696564206265666f7265206861727665737400000000000000\n        /* \"#utility.yul\":21136:21137   */\n      0x00\n        /* \"#utility.yul\":21128:21134   */\n      dup3\n        /* \"#utility.yul\":21124:21138   */\n      add\n        /* \"#utility.yul\":21117:21168   */\n      mstore\n        /* \"#utility.yul\":21000:21175   */\n      pop\n      jump\t// out\n        /* \"#utility.yul\":21181:21547   */\n    tag_291:\n        /* \"#utility.yul\":21323:21326   */\n      0x00\n        /* \"#utility.yul\":21344:21411   */\n      tag_486\n        /* \"#utility.yul\":21408:21410   */\n      0x19\n        /* \"#utility.yul\":21403:21406   */\n      dup4\n        /* \"#utility.yul\":21344:21411   */\n      tag_266\n      jump\t// in\n    tag_486:\n        /* \"#utility.yul\":21337:21411   */\n      swap2\n      pop\n        /* \"#utility.yul\":21420:21513   */\n      tag_487\n        /* \"#utility.yul\":21509:21512   */\n      dup3\n        /* \"#utility.yul\":21420:21513   */\n      tag_290\n      jump\t// in\n    tag_487:\n        /* \"#utility.yul\":21538:21540   */\n      0x20\n        /* \"#utility.yul\":21533:21536   */\n      dup3\n        /* \"#utility.yul\":21529:21541   */\n      add\n        /* \"#utility.yul\":21522:21541   */\n      swap1\n      pop\n        /* \"#utility.yul\":21181:21547   */\n      swap2\n      swap1\n      pop\n      jump\t// out\n        /* \"#utility.yul\":21553:21972   */\n    tag_195:\n        /* \"#utility.yul\":21719:21723   */\n      0x00\n        /* \"#utility.yul\":21757:21759   */\n      0x20\n        /* \"#utility.yul\":21746:21755   */\n      dup3\n        /* \"#utility.yul\":21742:21760   */\n      add\n        /* \"#utility.yul\":21734:21760   */\n      swap1\n      pop\n        /* \"#utility.yul\":21806:21815   */\n      dup2\n        /* \"#utility.yul\":21800:21804   */\n      dup2\n        /* \"#utility.yul\":21796:21816   */\n      sub\n        /* \"#utility.yul\":21792:21793   */\n      0x00\n        /* \"#utility.yul\":21781:21790   */\n      dup4\n        /* \"#utility.yul\":21777:21794   */\n      add\n        /* \"#utility.yul\":21770:21817   */\n      mstore\n        /* \"#utility.yul\":21834:21965   */\n      tag_489\n        /* \"#utility.yul\":21960:21964   */\n      dup2\n        /* \"#utility.yul\":21834:21965   */\n      tag_291\n      jump\t// in\n    tag_489:\n        /* \"#utility.yul\":21826:21965   */\n      swap1\n      pop\n        /* \"#utility.yul\":21553:21972   */\n      swap2\n      swap1\n      pop\n      jump\t// out\n        /* \"#utility.yul\":21978:22150   */\n    tag_292:\n        /* \"#utility.yul\":22118:22142   */\n      0x506c616e74206e6f7420626c6f6f6d696e672079657400000000000000000000\n        /* \"#utility.yul\":22114:22115   */\n      0x00\n        /* \"#utility.yul\":22106:22112   */\n      dup3\n        /* \"#utility.yul\":22102:22116   */\n      add\n        /* \"#utility.yul\":22095:22143   */\n      mstore\n        /* \"#utility.yul\":21978:22150   */\n      pop\n      jump\t// out\n        /* \"#utility.yul\":22156:22522   */\n    tag_293:\n        /* \"#utility.yul\":22298:22301   */\n      0x00\n        /* \"#utility.yul\":22319:22386   */\n      tag_492\n        /* \"#utility.yul\":22383:22385   */\n      0x16\n        /* \"#utility.yul\":22378:22381   */\n      dup4\n        /* \"#utility.yul\":22319:22386   */\n      tag_266\n      jump\t// in\n    tag_492:\n        /* \"#utility.yul\":22312:22386   */\n      swap2\n      pop\n        /* \"#utility.yul\":22395:22488   */\n      tag_493\n        /* \"#utility.yul\":22484:22487   */\n      dup3\n        /* \"#utility.yul\":22395:22488   */\n      tag_292\n      jump\t// in\n    tag_493:\n        /* \"#utility.yul\":22513:22515   */\n      0x20\n        /* \"#utility.yul\":22508:22511   */\n      dup3\n        /* \"#utility.yul\":22504:22516   */\n      add\n        /* \"#utility.yul\":22497:22516   */\n      swap1\n      pop\n        /* \"#utility.yul\":22156:22522   */\n      swap2\n      swap1\n      pop\n      jump\t// out\n        /* \"#utility.yul\":22528:22947   */\n    tag_203:\n        /* \"#utility.yul\":22694:22698   */\n      0x00\n        /* \"#utility.yul\":22732:22734   */\n      0x20\n        /* \"#utility.yul\":22721:22730   */\n      dup3\n        /* \"#utility.yul\":22717:22735   */\n      add\n        /* \"#utility.yul\":22709:22735   */\n      swap1\n      pop\n        /* \"#utility.yul\":22781:22790   */\n      dup2\n        /* \"#utility.yul\":22775:22779   */\n      dup2\n        /* \"#utility.yul\":22771:22791   */\n      sub\n        /* \"#utility.yul\":22767:22768   */\n      0x00\n        /* \"#utility.yul\":22756:22765   */\n      dup4\n        /* \"#utility.yul\":22752:22769   */\n      add\n        /* \"#utility.yul\":22745:22792   */\n      mstore\n        /* \"#utility.yul\":22809:22940   */\n      tag_495\n        /* \"#utility.yul\":22935:22939   */\n      dup2\n        /* \"#utility.yul\":22809:22940   */\n      tag_293\n      jump\t// in\n    tag_495:\n        /* \"#utility.yul\":22801:22940   */\n      swap1\n      pop\n        /* \"#utility.yul\":22528:22947   */\n      swap2\n      swap1\n      pop\n      jump\t// out\n        /* \"#utility.yul\":22953:23182   */\n    tag_294:\n        /* \"#utility.yul\":23093:23127   */\n      0x436f6e74726163742068617320696e73756666696369656e742066756e647320\n        /* \"#utility.yul\":23089:23090   */\n      0x00\n        /* \"#utility.yul\":23081:23087   */\n      dup3\n        /* \"#utility.yul\":23077:23091   */\n      add\n        /* \"#utility.yul\":23070:23128   */\n      mstore\n        /* \"#utility.yul\":23162:23174   */\n      0x666f722072657761726400000000000000000000000000000000000000000000\n        /* \"#utility.yul\":23157:23159   */\n      0x20\n        /* \"#utility.yul\":23149:23155   */\n      dup3\n        /* \"#utility.yul\":23145:23160   */\n      add\n        /* \"#utility.yul\":23138:23175   */\n      mstore\n        /* \"#utility.yul\":22953:23182   */\n      pop\n      jump\t// out\n        /* \"#utility.yul\":23188:23554   */\n    tag_295:\n        /* \"#utility.yul\":23330:23333   */\n      0x00\n        /* \"#utility.yul\":23351:23418   */\n      tag_498\n        /* \"#utility.yul\":23415:23417   */\n      0x2a\n        /* \"#utility.yul\":23410:23413   */\n      dup4\n        /* \"#utility.yul\":23351:23418   */\n      tag_266\n      jump\t// in\n    tag_498:\n        /* \"#utility.yul\":23344:23418   */\n      swap2\n      pop\n        /* \"#utility.yul\":23427:23520   */\n      tag_499\n        /* \"#utility.yul\":23516:23519   */\n      dup3\n        /* \"#utility.yul\":23427:23520   */\n      tag_294\n      jump\t// in\n    tag_499:\n        /* \"#utility.yul\":23545:23547   */\n      0x40\n        /* \"#utility.yul\":23540:23543   */\n      dup3\n        /* \"#utility.yul\":23536:23548   */\n      add\n        /* \"#utility.yul\":23529:23548   */\n      swap1\n      pop\n        /* \"#utility.yul\":23188:23554   */\n      swap2\n      swap1\n      pop\n      jump\t// out\n        /* \"#utility.yul\":23560:23979   */\n    tag_207:\n        /* \"#utility.yul\":23726:23730   */\n      0x00\n        /* \"#utility.yul\":23764:23766   */\n      0x20\n        /* \"#utility.yul\":23753:23762   */\n      dup3\n        /* \"#utility.yul\":23749:23767   */\n      add\n        /* \"#utility.yul\":23741:23767   */\n      swap1\n      pop\n        /* \"#utility.yul\":23813:23822   */\n      dup2\n        /* \"#utility.yul\":23807:23811   */\n      dup2\n        /* \"#utility.yul\":23803:23823   */\n      sub\n        /* \"#utility.yul\":23799:23800   */\n      0x00\n        /* \"#utility.yul\":23788:23797   */\n      dup4\n        /* \"#utility.yul\":23784:23801   */\n      add\n        /* \"#utility.yul\":23777:23824   */\n      mstore\n        /* \"#utility.yul\":23841:23972   */\n      tag_501\n        /* \"#utility.yul\":23967:23971   */\n      dup2\n        /* \"#utility.yul\":23841:23972   */\n      tag_295\n      jump\t// in\n    tag_501:\n        /* \"#utility.yul\":23833:23972   */\n      swap1\n      pop\n        /* \"#utility.yul\":23560:23979   */\n      swap2\n      swap1\n      pop\n      jump\t// out\n        /* \"#utility.yul\":23985:24160   */\n    tag_296:\n        /* \"#utility.yul\":24125:24152   */\n      0x4661696c656420746f207472616e736665722072657761726400000000000000\n        /* \"#utility.yul\":24121:24122   */\n      0x00\n        /* \"#utility.yul\":24113:24119   */\n      dup3\n        /* \"#utility.yul\":24109:24123   */\n      add\n        /* \"#utility.yul\":24102:24153   */\n      mstore\n        /* \"#utility.yul\":23985:24160   */\n      pop\n      jump\t// out\n        /* \"#utility.yul\":24166:24532   */\n    tag_297:\n        /* \"#utility.yul\":24308:24311   */\n      0x00\n        /* \"#utility.yul\":24329:24396   */\n      tag_504\n        /* \"#utility.yul\":24393:24395   */\n      0x19\n        /* \"#utility.yul\":24388:24391   */\n      dup4\n        /* \"#utility.yul\":24329:24396   */\n      tag_266\n      jump\t// in\n    tag_504:\n        /* \"#utility.yul\":24322:24396   */\n      swap2\n      pop\n        /* \"#utility.yul\":24405:24498   */\n      tag_505\n        /* \"#utility.yul\":24494:24497   */\n      dup3\n        /* \"#utility.yul\":24405:24498   */\n      tag_296\n      jump\t// in\n    tag_505:\n        /* \"#utility.yul\":24523:24525   */\n      0x20\n        /* \"#utility.yul\":24518:24521   */\n      dup3\n        /* \"#utility.yul\":24514:24526   */\n      add\n        /* \"#utility.yul\":24507:24526   */\n      swap1\n      pop\n        /* \"#utility.yul\":24166:24532   */\n      swap2\n      swap1\n      pop\n      jump\t// out\n        /* \"#utility.yul\":24538:24957   */\n    tag_214:\n        /* \"#utility.yul\":24704:24708   */\n      0x00\n        /* \"#utility.yul\":24742:24744   */\n      0x20\n        /* \"#utility.yul\":24731:24740   */\n      dup3\n        /* \"#utility.yul\":24727:24745   */\n      add\n        /* \"#utility.yul\":24719:24745   */\n      swap1\n      pop\n        /* \"#utility.yul\":24791:24800   */\n      dup2\n        /* \"#utility.yul\":24785:24789   */\n      dup2\n        /* \"#utility.yul\":24781:24801   */\n      sub\n        /* \"#utility.yul\":24777:24778   */\n      0x00\n        /* \"#utility.yul\":24766:24775   */\n      dup4\n        /* \"#utility.yul\":24762:24779   */\n      add\n        /* \"#utility.yul\":24755:24802   */\n      mstore\n        /* \"#utility.yul\":24819:24950   */\n      tag_507\n        /* \"#utility.yul\":24945:24949   */\n      dup2\n        /* \"#utility.yul\":24819:24950   */\n      tag_297\n      jump\t// in\n    tag_507:\n        /* \"#utility.yul\":24811:24950   */\n      swap1\n      pop\n        /* \"#utility.yul\":24538:24957   */\n      swap2\n      swap1\n      pop\n      jump\t// out\n\n    auxdata: 0xa26469706673582212209906d264dcd4e7249ab0a0586534ba46ec30531bc1574dd4ca98cd054483b96564736f6c634300081e0033\n}\n",
				"bytecode": {
					"linkReferences": {},
					"object": "6080604052348015600e575f5ffd5b503360035f6101000a81548173ffffffffffffffffffffffffffffffffffffffff021916908373ffffffffffffffffffffffffffffffffffffffff1602179055505f6002819055506120c5806100635f395ff3fe6080604052600436106100f6575f3560e01c80638dd2361c11610089578063cfc9a5f811610058578063cfc9a5f814610314578063ddd425961461033e578063e38f844814610366578063ed0b1f5f1461038e576100fd565b80638dd2361c146102555780639886bcfa146102985780639c471749146102c0578063bacb5ebd146102ea576100fd565b8063754e150d116100c5578063754e150d1461019b5780637ed4c5be146101d7578063891c0785146102015780638da5cb5b1461022b576100fd565b806330cec0eb146101015780633ccfd60b1461013d57806351f9efde1461015357806374119a381461017d576100fd565b366100fd57005b5f5ffd5b34801561010c575f5ffd5b50610127600480360381019061012291906115a3565b6103ca565b604051610134919061168e565b60405180910390f35b348015610148575f5ffd5b5061015161045d565b005b34801561015e575f5ffd5b506101676105ff565b60405161017491906116bd565b60405180910390f35b610185610604565b60405161019291906116bd565b60405180910390f35b3480156101a6575f5ffd5b506101c160048036038101906101bc9190611700565b610890565b6040516101ce9190611746565b60405180910390f35b3480156101e2575f5ffd5b506101eb610982565b6040516101f891906116bd565b60405180910390f35b34801561020c575f5ffd5b50610215610987565b60405161022291906116bd565b60405180910390f35b348015610236575f5ffd5b5061023f610992565b60405161024c919061176e565b60405180910390f35b348015610260575f5ffd5b5061027b60048036038101906102769190611700565b6109b7565b60405161028f989796959493929190611814565b60405180910390f35b3480156102a3575f5ffd5b506102be60048036038101906102b99190611700565b610a4c565b005b3480156102cb575f5ffd5b506102d4610c67565b6040516102e191906116bd565b60405180910390f35b3480156102f5575f5ffd5b506102fe610c6d565b60405161030b9190611746565b60405180910390f35b34801561031f575f5ffd5b50610328610c72565b60405161033591906116bd565b60405180910390f35b348015610349575f5ffd5b50610364600480360381019061035f9190611700565b610c7d565b005b348015610371575f5ffd5b5061038c60048036038101906103879190611700565b610e81565b005b348015610399575f5ffd5b506103b460048036038101906103af9190611700565b61122d565b6040516103c1919061196c565b60405180910390f35b606060015f8373ffffffffffffffffffffffffffffffffffffffff1673ffffffffffffffffffffffffffffffffffffffff1681526020019081526020015f2080548060200260200160405190810160405280929190818152602001828054801561045157602002820191905f5260205f20905b81548152602001906001019080831161043d575b50505050509050919050565b60035f9054906101000a900473ffffffffffffffffffffffffffffffffffffffff1673ffffffffffffffffffffffffffffffffffffffff163373ffffffffffffffffffffffffffffffffffffffff16146104ec576040517f08c379a00000000000000000000000000000000000000000000000000000000081526004016104e3906119e0565b60405180910390fd5b5f4790505f8111610532576040517f08c379a000000000000000000000000000000000000000000000000000000000815260040161052990611a48565b60405180910390fd5b5f60035f9054906101000a900473ffffffffffffffffffffffffffffffffffffffff1673ffffffffffffffffffffffffffffffffffffffff168260405161057890611a93565b5f6040518083038185875af1925050503d805f81146105b2576040519150601f19603f3d011682016040523d82523d5f602084013e6105b7565b606091505b50509050806105fb576040517f08c379a00000000000000000000000000000000000000000000000000000000081526004016105f290611af1565b60405180910390fd5b5050565b603c81565b5f66038d7ea4c6800034101561064f576040517f08c379a000000000000000000000000000000000000000000000000000000000815260040161064690611b59565b60405180910390fd5b600160025f8282546106619190611ba4565b925050819055505f60025490505f6040518061010001604052808381526020013373ffffffffffffffffffffffffffffffffffffffff1681526020016001151581526020016001151581526020015f60038111156106c2576106c16117a1565b5b8152602001428152602001428152602001606460ff168152509050805f5f8481526020019081526020015f205f820151815f01556020820151816001015f6101000a81548173ffffffffffffffffffffffffffffffffffffffff021916908373ffffffffffffffffffffffffffffffffffffffff16021790555060408201518160010160146101000a81548160ff02191690831515021790555060608201518160010160156101000a81548160ff02191690831515021790555060808201518160010160166101000a81548160ff021916908360038111156107a7576107a66117a1565b5b021790555060a0820151816002015560c0820151816003015560e0820151816004015f6101000a81548160ff021916908360ff16021790555090505060015f3373ffffffffffffffffffffffffffffffffffffffff1673ffffffffffffffffffffffffffffffffffffffff1681526020019081526020015f2082908060018154018082558091505060019003905f5260205f20015f9091909190915055813373ffffffffffffffffffffffffffffffffffffffff167f4f5b22082ac57121703b0b6c1203ef527cfbfa5069616fee6deb979d124adbf060405160405180910390a3819250505090565b5f5f5f5f8481526020019081526020015f2090508060010160149054906101000a900460ff1615806108d157508060010160159054906101000a900460ff16155b156108df575f91505061097d565b5f8160030154426108f09190611bd7565b90505f601e826109009190611c37565b90505f600260ff16826109139190611c67565b9050836004015f9054906101000a900460ff1660ff16811061093b575f94505050505061097d565b5f81856004015f9054906101000a900460ff1660ff1661095b9190611bd7565b905060648111156109745760649550505050505061097d565b80955050505050505b919050565b601e81565b660aa87bee53800081565b60035f9054906101000a900473ffffffffffffffffffffffffffffffffffffffff1681565b5f602052805f5260405f205f91509050805f015490806001015f9054906101000a900473ffffffffffffffffffffffffffffffffffffffff16908060010160149054906101000a900460ff16908060010160159054906101000a900460ff16908060010160169054906101000a900460ff1690806002015490806003015490806004015f9054906101000a900460ff16905088565b5f5f5f8381526020019081526020015f2090508060010160149054906101000a900460ff16610ab0576040517f08c379a0000000000000000000000000000000000000000000000000000000008152600401610aa790611cf2565b60405180910390fd5b3373ffffffffffffffffffffffffffffffffffffffff16816001015f9054906101000a900473ffffffffffffffffffffffffffffffffffffffff1673ffffffffffffffffffffffffffffffffffffffff1614610b41576040517f08c379a0000000000000000000000000000000000000000000000000000000008152600401610b3890611d5a565b60405180910390fd5b8060010160159054906101000a900460ff16610b92576040517f08c379a0000000000000000000000000000000000000000000000000000000008152600401610b8990611dc2565b60405180910390fd5b610b9b826113f0565b8060010160159054906101000a900460ff16610bec576040517f08c379a0000000000000000000000000000000000000000000000000000000008152600401610be390611e2a565b60405180910390fd5b6064816004015f6101000a81548160ff021916908360ff160217905550428160030181905550817fd4b742b9ba48fffa1f14267075a7793851770764117c423fd0a6550dfc8cb574826004015f9054906101000a900460ff16604051610c529190611746565b60405180910390a2610c6382610c7d565b5050565b60025481565b600281565b66038d7ea4c6800081565b5f5f5f8381526020019081526020015f2090508060010160149054906101000a900460ff161580610cbd57508060010160159054906101000a900460ff16155b15610cc85750610e7e565b5f816002015442610cd99190611bd7565b90505f603c82610ce99190611c37565b905060038110610dae57600380811115610d0657610d056117a1565b5b8360010160169054906101000a900460ff166003811115610d2a57610d296117a1565b5b14610da65760038360010160166101000a81548160ff02191690836003811115610d5757610d566117a1565b5b0217905550837f338b8976706f9da67298dddfa1ea4ff7d99cce68b9ca39c4f348994f8e2124a88460010160169054906101000a900460ff16604051610d9d9190611e48565b60405180910390a25b505050610e7e565b5f8160ff166003811115610dc557610dc46117a1565b5b90508360010160169054906101000a900460ff166003811115610deb57610dea6117a1565b5b816003811115610dfe57610dfd6117a1565b5b14610e7957808460010160166101000a81548160ff02191690836003811115610e2a57610e296117a1565b5b0217905550847f338b8976706f9da67298dddfa1ea4ff7d99cce68b9ca39c4f348994f8e2124a88560010160169054906101000a900460ff16604051610e709190611e48565b60405180910390a25b505050505b50565b5f5f5f8381526020019081526020015f2090508060010160149054906101000a900460ff16610ee5576040517f08c379a0000000000000000000000000000000000000000000000000000000008152600401610edc90611cf2565b60405180910390fd5b3373ffffffffffffffffffffffffffffffffffffffff16816001015f9054906101000a900473ffffffffffffffffffffffffffffffffffffffff1673ffffffffffffffffffffffffffffffffffffffff1614610f76576040517f08c379a0000000000000000000000000000000000000000000000000000000008152600401610f6d90611eab565b60405180910390fd5b8060010160159054906101000a900460ff16610fc7576040517f08c379a0000000000000000000000000000000000000000000000000000000008152600401610fbe90611dc2565b60405180910390fd5b610fd0826113f0565b8060010160159054906101000a900460ff16611021576040517f08c379a000000000000000000000000000000000000000000000000000000000815260040161101890611f13565b60405180910390fd5b61102a82610c7d565b60038081111561103d5761103c6117a1565b5b8160010160169054906101000a900460ff166003811115611061576110606117a1565b5b146110a1576040517f08c379a000000000000000000000000000000000000000000000000000000000815260040161109890611f7b565b60405180910390fd5b5f8160010160146101000a81548160ff0219169083151502179055505f8160010160156101000a81548160ff0219169083151502179055503373ffffffffffffffffffffffffffffffffffffffff16827f79f2138ea100070ff95b59c265da7aa3c7a0f61595fe1bb2f5fda2762f398847660aa87bee53800060405161112791906116bd565b60405180910390a3660aa87bee538000471015611179576040517f08c379a000000000000000000000000000000000000000000000000000000000815260040161117090612009565b60405180910390fd5b5f3373ffffffffffffffffffffffffffffffffffffffff16660aa87bee5380006040516111a590611a93565b5f6040518083038185875af1925050503d805f81146111df576040519150601f19603f3d011682016040523d82523d5f602084013e6111e4565b606091505b5050905080611228576040517f08c379a000000000000000000000000000000000000000000000000000000000815260040161121f90612071565b60405180910390fd5b505050565b6112356114d9565b5f5f5f8481526020019081526020015f2090505f815f015414158061126f5750600115158160010160149054906101000a900460ff161515145b8061127e57505f816003015414155b6112bd576040517f08c379a00000000000000000000000000000000000000000000000000000000081526004016112b490611cf2565b60405180910390fd5b5f81604051806101000160405290815f8201548152602001600182015f9054906101000a900473ffffffffffffffffffffffffffffffffffffffff1673ffffffffffffffffffffffffffffffffffffffff1673ffffffffffffffffffffffffffffffffffffffff1681526020016001820160149054906101000a900460ff161515151581526020016001820160159054906101000a900460ff161515151581526020016001820160169054906101000a900460ff166003811115611384576113836117a1565b5b6003811115611396576113956117a1565b5b81526020016002820154815260200160038201548152602001600482015f9054906101000a900460ff1660ff1660ff168152505090506113d584610890565b8160e0019060ff16908160ff16815250508092505050919050565b5f5f5f8381526020019081526020015f2090508060010160149054906101000a900460ff16158061143057508060010160159054906101000a900460ff16155b1561143b57506114d6565b5f61144583610890565b905080826004015f6101000a81548160ff021916908360ff1602179055505f8160ff16036114d3575f8260010160156101000a81548160ff0219169083151502179055505f8260010160146101000a81548160ff021916908315150217905550827fcc296a21951f3e57f21afb08547d835a0a9f0f06cc2867009cbe0cae44d36be960405160405180910390a25b50505b50565b6040518061010001604052805f81526020015f73ffffffffffffffffffffffffffffffffffffffff1681526020015f151581526020015f151581526020015f600381111561152a576115296117a1565b5b81526020015f81526020015f81526020015f60ff1681525090565b5f5ffd5b5f73ffffffffffffffffffffffffffffffffffffffff82169050919050565b5f61157282611549565b9050919050565b61158281611568565b811461158c575f5ffd5b50565b5f8135905061159d81611579565b92915050565b5f602082840312156115b8576115b7611545565b5b5f6115c58482850161158f565b91505092915050565b5f81519050919050565b5f82825260208201905092915050565b5f819050602082019050919050565b5f819050919050565b611609816115f7565b82525050565b5f61161a8383611600565b60208301905092915050565b5f602082019050919050565b5f61163c826115ce565b61164681856115d8565b9350611651836115e8565b805f5b83811015611681578151611668888261160f565b975061167383611626565b925050600181019050611654565b5085935050505092915050565b5f6020820190508181035f8301526116a68184611632565b905092915050565b6116b7816115f7565b82525050565b5f6020820190506116d05f8301846116ae565b92915050565b6116df816115f7565b81146116e9575f5ffd5b50565b5f813590506116fa816116d6565b92915050565b5f6020828403121561171557611714611545565b5b5f611722848285016116ec565b91505092915050565b5f60ff82169050919050565b6117408161172b565b82525050565b5f6020820190506117595f830184611737565b92915050565b61176881611568565b82525050565b5f6020820190506117815f83018461175f565b92915050565b5f8115159050919050565b61179b81611787565b82525050565b7f4e487b71000000000000000000000000000000000000000000000000000000005f52602160045260245ffd5b600481106117df576117de6117a1565b5b50565b5f8190506117ef826117ce565b919050565b5f6117fe826117e2565b9050919050565b61180e816117f4565b82525050565b5f610100820190506118285f83018b6116ae565b611835602083018a61175f565b6118426040830189611792565b61184f6060830188611792565b61185c6080830187611805565b61186960a08301866116ae565b61187660c08301856116ae565b61188360e0830184611737565b9998505050505050505050565b61189981611568565b82525050565b6118a881611787565b82525050565b6118b7816117f4565b82525050565b6118c68161172b565b82525050565b61010082015f8201516118e15f850182611600565b5060208201516118f46020850182611890565b506040820151611907604085018261189f565b50606082015161191a606085018261189f565b50608082015161192d60808501826118ae565b5060a082015161194060a0850182611600565b5060c082015161195360c0850182611600565b5060e082015161196660e08501826118bd565b50505050565b5f610100820190506119805f8301846118cc565b92915050565b5f82825260208201905092915050565b7f4f6e6c79206f776e6572000000000000000000000000000000000000000000005f82015250565b5f6119ca600a83611986565b91506119d582611996565b602082019050919050565b5f6020820190508181035f8301526119f7816119be565b9050919050565b7f4e6f2066756e647320746f2077697468647261770000000000000000000000005f82015250565b5f611a32601483611986565b9150611a3d826119fe565b602082019050919050565b5f6020820190508181035f830152611a5f81611a26565b9050919050565b5f81905092915050565b50565b5f611a7e5f83611a66565b9150611a8982611a70565b5f82019050919050565b5f611a9d82611a73565b9150819050919050565b7f5769746864726177206661696c656400000000000000000000000000000000005f82015250565b5f611adb600f83611986565b9150611ae682611aa7565b602082019050919050565b5f6020820190508181035f830152611b0881611acf565b9050919050565b7f4e6f7420656e6f7567682045544820746f20706c616e740000000000000000005f82015250565b5f611b43601783611986565b9150611b4e82611b0f565b602082019050919050565b5f6020820190508181035f830152611b7081611b37565b9050919050565b7f4e487b71000000000000000000000000000000000000000000000000000000005f52601160045260245ffd5b5f611bae826115f7565b9150611bb9836115f7565b9250828201905080821115611bd157611bd0611b77565b5b92915050565b5f611be1826115f7565b9150611bec836115f7565b9250828203905081811115611c0457611c03611b77565b5b92915050565b7f4e487b71000000000000000000000000000000000000000000000000000000005f52601260045260245ffd5b5f611c41826115f7565b9150611c4c836115f7565b925082611c5c57611c5b611c0a565b5b828204905092915050565b5f611c71826115f7565b9150611c7c836115f7565b9250828202611c8a816115f7565b91508282048414831517611ca157611ca0611b77565b5b5092915050565b7f506c616e7420646f6573206e6f742065786973740000000000000000000000005f82015250565b5f611cdc601483611986565b9150611ce782611ca8565b602082019050919050565b5f6020820190508181035f830152611d0981611cd0565b9050919050565b7f4f6e6c79206f776e65722063616e2077617465720000000000000000000000005f82015250565b5f611d44601483611986565b9150611d4f82611d10565b602082019050919050565b5f6020820190508181035f830152611d7181611d38565b9050919050565b7f506c616e742069732064656164000000000000000000000000000000000000005f82015250565b5f611dac600d83611986565b9150611db782611d78565b602082019050919050565b5f6020820190508181035f830152611dd981611da0565b9050919050565b7f506c616e742064696564206265666f7265207761746572696e670000000000005f82015250565b5f611e14601a83611986565b9150611e1f82611de0565b602082019050919050565b5f6020820190508181035f830152611e4181611e08565b9050919050565b5f602082019050611e5b5f830184611805565b92915050565b7f4f6e6c79206f776e65722063616e2068617276657374000000000000000000005f82015250565b5f611e95601683611986565b9150611ea082611e61565b602082019050919050565b5f6020820190508181035f830152611ec281611e89565b9050919050565b7f506c616e742064696564206265666f72652068617276657374000000000000005f82015250565b5f611efd601983611986565b9150611f0882611ec9565b602082019050919050565b5f6020820190508181035f830152611f2a81611ef1565b9050919050565b7f506c616e74206e6f7420626c6f6f6d696e6720796574000000000000000000005f82015250565b5f611f65601683611986565b9150611f7082611f31565b602082019050919050565b5f6020820190508181035f830152611f9281611f59565b9050919050565b7f436f6e74726163742068617320696e73756666696369656e742066756e6473205f8201527f666f722072657761726400000000000000000000000000000000000000000000602082015250565b5f611ff3602a83611986565b9150611ffe82611f99565b604082019050919050565b5f6020820190508181035f83015261202081611fe7565b9050919050565b7f4661696c656420746f207472616e7366657220726577617264000000000000005f82015250565b5f61205b601983611986565b915061206682612027565b602082019050919050565b5f6020820190508181035f8301526120888161204f565b905091905056fea26469706673582212209906d264dcd4e7249ab0a0586534ba46ec30531bc1574dd4ca98cd054483b96564736f6c634300081e0033",
					"opcodes": "PUSH1 0x80 PUSH1 0x40 MSTORE CALLVALUE DUP1 ISZERO PUSH1 0xE JUMPI PUSH0 PUSH0 REVERT JUMPDEST POP CALLER PUSH1 0x3 PUSH0 PUSH2 0x100 EXP DUP2 SLOAD DUP2 PUSH20 0xFFFFFFFFFFFFFFFFFFFFFFFFFFFFFFFFFFFFFFFF MUL NOT AND SWAP1 DUP4 PUSH20 0xFFFFFFFFFFFFFFFFFFFFFFFFFFFFFFFFFFFFFFFF AND MUL OR SWAP1 SSTORE POP PUSH0 PUSH1 0x2 DUP2 SWAP1 SSTORE POP PUSH2 0x20C5 DUP1 PUSH2 0x63 PUSH0 CODECOPY PUSH0 RETURN INVALID PUSH1 0x80 PUSH1 0x40 MSTORE PUSH1 0x4 CALLDATASIZE LT PUSH2 0xF6 JUMPI PUSH0 CALLDATALOAD PUSH1 0xE0 SHR DUP1 PUSH4 0x8DD2361C GT PUSH2 0x89 JUMPI DUP1 PUSH4 0xCFC9A5F8 GT PUSH2 0x58 JUMPI DUP1 PUSH4 0xCFC9A5F8 EQ PUSH2 0x314 JUMPI DUP1 PUSH4 0xDDD42596 EQ PUSH2 0x33E JUMPI DUP1 PUSH4 0xE38F8448 EQ PUSH2 0x366 JUMPI DUP1 PUSH4 0xED0B1F5F EQ PUSH2 0x38E JUMPI PUSH2 0xFD JUMP JUMPDEST DUP1 PUSH4 0x8DD2361C EQ PUSH2 0x255 JUMPI DUP1 PUSH4 0x9886BCFA EQ PUSH2 0x298 JUMPI DUP1 PUSH4 0x9C471749 EQ PUSH2 0x2C0 JUMPI DUP1 PUSH4 0xBACB5EBD EQ PUSH2 0x2EA JUMPI PUSH2 0xFD JUMP JUMPDEST DUP1 PUSH4 0x754E150D GT PUSH2 0xC5 JUMPI DUP1 PUSH4 0x754E150D EQ PUSH2 0x19B JUMPI DUP1 PUSH4 0x7ED4C5BE EQ PUSH2 0x1D7 JUMPI DUP1 PUSH4 0x891C0785 EQ PUSH2 0x201 JUMPI DUP1 PUSH4 0x8DA5CB5B EQ PUSH2 0x22B JUMPI PUSH2 0xFD JUMP JUMPDEST DUP1 PUSH4 0x30CEC0EB EQ PUSH2 0x101 JUMPI DUP1 PUSH4 0x3CCFD60B EQ PUSH2 0x13D JUMPI DUP1 PUSH4 0x51F9EFDE EQ PUSH2 0x153 JUMPI DUP1 PUSH4 0x74119A38 EQ PUSH2 0x17D JUMPI PUSH2 0xFD JUMP JUMPDEST CALLDATASIZE PUSH2 0xFD JUMPI STOP JUMPDEST PUSH0 PUSH0 REVERT JUMPDEST CALLVALUE DUP1 ISZERO PUSH2 0x10C JUMPI PUSH0 PUSH0 REVERT JUMPDEST POP PUSH2 0x127 PUSH1 0x4 DUP1 CALLDATASIZE SUB DUP2 ADD SWAP1 PUSH2 0x122 SWAP2 SWAP1 PUSH2 0x15A3 JUMP JUMPDEST PUSH2 0x3CA JUMP JUMPDEST PUSH1 0x40 MLOAD PUSH2 0x134 SWAP2 SWAP1 PUSH2 0x168E JUMP JUMPDEST PUSH1 0x40 MLOAD DUP1 SWAP2 SUB SWAP1 RETURN JUMPDEST CALLVALUE DUP1 ISZERO PUSH2 0x148 JUMPI PUSH0 PUSH0 REVERT JUMPDEST POP PUSH2 0x151 PUSH2 0x45D JUMP JUMPDEST STOP JUMPDEST CALLVALUE DUP1 ISZERO PUSH2 0x15E JUMPI PUSH0 PUSH0 REVERT JUMPDEST POP PUSH2 0x167 PUSH2 0x5FF JUMP JUMPDEST PUSH1 0x40 MLOAD PUSH2 0x174 SWAP2 SWAP1 PUSH2 0x16BD JUMP JUMPDEST PUSH1 0x40 MLOAD DUP1 SWAP2 SUB SWAP1 RETURN JUMPDEST PUSH2 0x185 PUSH2 0x604 JUMP JUMPDEST PUSH1 0x40 MLOAD PUSH2 0x192 SWAP2 SWAP1 PUSH2 0x16BD JUMP JUMPDEST PUSH1 0x40 MLOAD DUP1 SWAP2 SUB SWAP1 RETURN JUMPDEST CALLVALUE DUP1 ISZERO PUSH2 0x1A6 JUMPI PUSH0 PUSH0 REVERT JUMPDEST POP PUSH2 0x1C1 PUSH1 0x4 DUP1 CALLDATASIZE SUB DUP2 ADD SWAP1 PUSH2 0x1BC SWAP2 SWAP1 PUSH2 0x1700 JUMP JUMPDEST PUSH2 0x890 JUMP JUMPDEST PUSH1 0x40 MLOAD PUSH2 0x1CE SWAP2 SWAP1 PUSH2 0x1746 JUMP JUMPDEST PUSH1 0x40 MLOAD DUP1 SWAP2 SUB SWAP1 RETURN JUMPDEST CALLVALUE DUP1 ISZERO PUSH2 0x1E2 JUMPI PUSH0 PUSH0 REVERT JUMPDEST POP PUSH2 0x1EB PUSH2 0x982 JUMP JUMPDEST PUSH1 0x40 MLOAD PUSH2 0x1F8 SWAP2 SWAP1 PUSH2 0x16BD JUMP JUMPDEST PUSH1 0x40 MLOAD DUP1 SWAP2 SUB SWAP1 RETURN JUMPDEST CALLVALUE DUP1 ISZERO PUSH2 0x20C JUMPI PUSH0 PUSH0 REVERT JUMPDEST POP PUSH2 0x215 PUSH2 0x987 JUMP JUMPDEST PUSH1 0x40 MLOAD PUSH2 0x222 SWAP2 SWAP1 PUSH2 0x16BD JUMP JUMPDEST PUSH1 0x40 MLOAD DUP1 SWAP2 SUB SWAP1 RETURN JUMPDEST CALLVALUE DUP1 ISZERO PUSH2 0x236 JUMPI PUSH0 PUSH0 REVERT JUMPDEST POP PUSH2 0x23F PUSH2 0x992 JUMP JUMPDEST PUSH1 0x40 MLOAD PUSH2 0x24C SWAP2 SWAP1 PUSH2 0x176E JUMP JUMPDEST PUSH1 0x40 MLOAD DUP1 SWAP2 SUB SWAP1 RETURN JUMPDEST CALLVALUE DUP1 ISZERO PUSH2 0x260 JUMPI PUSH0 PUSH0 REVERT JUMPDEST POP PUSH2 0x27B PUSH1 0x4 DUP1 CALLDATASIZE SUB DUP2 ADD SWAP1 PUSH2 0x276 SWAP2 SWAP1 PUSH2 0x1700 JUMP JUMPDEST PUSH2 0x9B7 JUMP JUMPDEST PUSH1 0x40 MLOAD PUSH2 0x28F SWAP9 SWAP8 SWAP7 SWAP6 SWAP5 SWAP4 SWAP3 SWAP2 SWAP1 PUSH2 0x1814 JUMP JUMPDEST PUSH1 0x40 MLOAD DUP1 SWAP2 SUB SWAP1 RETURN JUMPDEST CALLVALUE DUP1 ISZERO PUSH2 0x2A3 JUMPI PUSH0 PUSH0 REVERT JUMPDEST POP PUSH2 0x2BE PUSH1 0x4 DUP1 CALLDATASIZE SUB DUP2 ADD SWAP1 PUSH2 0x2B9 SWAP2 SWAP1 PUSH2 0x1700 JUMP JUMPDEST PUSH2 0xA4C JUMP JUMPDEST STOP JUMPDEST CALLVALUE DUP1 ISZERO PUSH2 0x2CB JUMPI PUSH0 PUSH0 REVERT JUMPDEST POP PUSH2 0x2D4 PUSH2 0xC67 JUMP JUMPDEST PUSH1 0x40 MLOAD PUSH2 0x2E1 SWAP2 SWAP1 PUSH2 0x16BD JUMP JUMPDEST PUSH1 0x40 MLOAD DUP1 SWAP2 SUB SWAP1 RETURN JUMPDEST CALLVALUE DUP1 ISZERO PUSH2 0x2F5 JUMPI PUSH0 PUSH0 REVERT JUMPDEST POP PUSH2 0x2FE PUSH2 0xC6D JUMP JUMPDEST PUSH1 0x40 MLOAD PUSH2 0x30B SWAP2 SWAP1 PUSH2 0x1746 JUMP JUMPDEST PUSH1 0x40 MLOAD DUP1 SWAP2 SUB SWAP1 RETURN JUMPDEST CALLVALUE DUP1 ISZERO PUSH2 0x31F JUMPI PUSH0 PUSH0 REVERT JUMPDEST POP PUSH2 0x328 PUSH2 0xC72 JUMP JUMPDEST PUSH1 0x40 MLOAD PUSH2 0x335 SWAP2 SWAP1 PUSH2 0x16BD JUMP JUMPDEST PUSH1 0x40 MLOAD DUP1 SWAP2 SUB SWAP1 RETURN JUMPDEST CALLVALUE DUP1 ISZERO PUSH2 0x349 JUMPI PUSH0 PUSH0 REVERT JUMPDEST POP PUSH2 0x364 PUSH1 0x4 DUP1 CALLDATASIZE SUB DUP2 ADD SWAP1 PUSH2 0x35F SWAP2 SWAP1 PUSH2 0x1700 JUMP JUMPDEST PUSH2 0xC7D JUMP JUMPDEST STOP JUMPDEST CALLVALUE DUP1 ISZERO PUSH2 0x371 JUMPI PUSH0 PUSH0 REVERT JUMPDEST POP PUSH2 0x38C PUSH1 0x4 DUP1 CALLDATASIZE SUB DUP2 ADD SWAP1 PUSH2 0x387 SWAP2 SWAP1 PUSH2 0x1700 JUMP JUMPDEST PUSH2 0xE81 JUMP JUMPDEST STOP JUMPDEST CALLVALUE DUP1 ISZERO PUSH2 0x399 JUMPI PUSH0 PUSH0 REVERT JUMPDEST POP PUSH2 0x3B4 PUSH1 0x4 DUP1 CALLDATASIZE SUB DUP2 ADD SWAP1 PUSH2 0x3AF SWAP2 SWAP1 PUSH2 0x1700 JUMP JUMPDEST PUSH2 0x122D JUMP JUMPDEST PUSH1 0x40 MLOAD PUSH2 0x3C1 SWAP2 SWAP1 PUSH2 0x196C JUMP JUMPDEST PUSH1 0x40 MLOAD DUP1 SWAP2 SUB SWAP1 RETURN JUMPDEST PUSH1 0x60 PUSH1 0x1 PUSH0 DUP4 PUSH20 0xFFFFFFFFFFFFFFFFFFFFFFFFFFFFFFFFFFFFFFFF AND PUSH20 0xFFFFFFFFFFFFFFFFFFFFFFFFFFFFFFFFFFFFFFFF AND DUP2 MSTORE PUSH1 0x20 ADD SWAP1 DUP2 MSTORE PUSH1 0x20 ADD PUSH0 KECCAK256 DUP1 SLOAD DUP1 PUSH1 0x20 MUL PUSH1 0x20 ADD PUSH1 0x40 MLOAD SWAP1 DUP2 ADD PUSH1 0x40 MSTORE DUP1 SWAP3 SWAP2 SWAP1 DUP2 DUP2 MSTORE PUSH1 0x20 ADD DUP3 DUP1 SLOAD DUP1 ISZERO PUSH2 0x451 JUMPI PUSH1 0x20 MUL DUP3 ADD SWAP2 SWAP1 PUSH0 MSTORE PUSH1 0x20 PUSH0 KECCAK256 SWAP1 JUMPDEST DUP2 SLOAD DUP2 MSTORE PUSH1 0x20 ADD SWAP1 PUSH1 0x1 ADD SWAP1 DUP1 DUP4 GT PUSH2 0x43D JUMPI JUMPDEST POP POP POP POP POP SWAP1 POP SWAP2 SWAP1 POP JUMP JUMPDEST PUSH1 0x3 PUSH0 SWAP1 SLOAD SWAP1 PUSH2 0x100 EXP SWAP1 DIV PUSH20 0xFFFFFFFFFFFFFFFFFFFFFFFFFFFFFFFFFFFFFFFF AND PUSH20 0xFFFFFFFFFFFFFFFFFFFFFFFFFFFFFFFFFFFFFFFF AND CALLER PUSH20 0xFFFFFFFFFFFFFFFFFFFFFFFFFFFFFFFFFFFFFFFF AND EQ PUSH2 0x4EC JUMPI PUSH1 0x40 MLOAD PUSH32 0x8C379A000000000000000000000000000000000000000000000000000000000 DUP2 MSTORE PUSH1 0x4 ADD PUSH2 0x4E3 SWAP1 PUSH2 0x19E0 JUMP JUMPDEST PUSH1 0x40 MLOAD DUP1 SWAP2 SUB SWAP1 REVERT JUMPDEST PUSH0 SELFBALANCE SWAP1 POP PUSH0 DUP2 GT PUSH2 0x532 JUMPI PUSH1 0x40 MLOAD PUSH32 0x8C379A000000000000000000000000000000000000000000000000000000000 DUP2 MSTORE PUSH1 0x4 ADD PUSH2 0x529 SWAP1 PUSH2 0x1A48 JUMP JUMPDEST PUSH1 0x40 MLOAD DUP1 SWAP2 SUB SWAP1 REVERT JUMPDEST PUSH0 PUSH1 0x3 PUSH0 SWAP1 SLOAD SWAP1 PUSH2 0x100 EXP SWAP1 DIV PUSH20 0xFFFFFFFFFFFFFFFFFFFFFFFFFFFFFFFFFFFFFFFF AND PUSH20 0xFFFFFFFFFFFFFFFFFFFFFFFFFFFFFFFFFFFFFFFF AND DUP3 PUSH1 0x40 MLOAD PUSH2 0x578 SWAP1 PUSH2 0x1A93 JUMP JUMPDEST PUSH0 PUSH1 0x40 MLOAD DUP1 DUP4 SUB DUP2 DUP6 DUP8 GAS CALL SWAP3 POP POP POP RETURNDATASIZE DUP1 PUSH0 DUP2 EQ PUSH2 0x5B2 JUMPI PUSH1 0x40 MLOAD SWAP2 POP PUSH1 0x1F NOT PUSH1 0x3F RETURNDATASIZE ADD AND DUP3 ADD PUSH1 0x40 MSTORE RETURNDATASIZE DUP3 MSTORE RETURNDATASIZE PUSH0 PUSH1 0x20 DUP5 ADD RETURNDATACOPY PUSH2 0x5B7 JUMP JUMPDEST PUSH1 0x60 SWAP2 POP JUMPDEST POP POP SWAP1 POP DUP1 PUSH2 0x5FB JUMPI PUSH1 0x40 MLOAD PUSH32 0x8C379A000000000000000000000000000000000000000000000000000000000 DUP2 MSTORE PUSH1 0x4 ADD PUSH2 0x5F2 SWAP1 PUSH2 0x1AF1 JUMP JUMPDEST PUSH1 0x40 MLOAD DUP1 SWAP2 SUB SWAP1 REVERT JUMPDEST POP POP JUMP JUMPDEST PUSH1 0x3C DUP2 JUMP JUMPDEST PUSH0 PUSH7 0x38D7EA4C68000 CALLVALUE LT ISZERO PUSH2 0x64F JUMPI PUSH1 0x40 MLOAD PUSH32 0x8C379A000000000000000000000000000000000000000000000000000000000 DUP2 MSTORE PUSH1 0x4 ADD PUSH2 0x646 SWAP1 PUSH2 0x1B59 JUMP JUMPDEST PUSH1 0x40 MLOAD DUP1 SWAP2 SUB SWAP1 REVERT JUMPDEST PUSH1 0x1 PUSH1 0x2 PUSH0 DUP3 DUP3 SLOAD PUSH2 0x661 SWAP2 SWAP1 PUSH2 0x1BA4 JUMP JUMPDEST SWAP3 POP POP DUP2 SWAP1 SSTORE POP PUSH0 PUSH1 0x2 SLOAD SWAP1 POP PUSH0 PUSH1 0x40 MLOAD DUP1 PUSH2 0x100 ADD PUSH1 0x40 MSTORE DUP1 DUP4 DUP2 MSTORE PUSH1 0x20 ADD CALLER PUSH20 0xFFFFFFFFFFFFFFFFFFFFFFFFFFFFFFFFFFFFFFFF AND DUP2 MSTORE PUSH1 0x20 ADD PUSH1 0x1 ISZERO ISZERO DUP2 MSTORE PUSH1 0x20 ADD PUSH1 0x1 ISZERO ISZERO DUP2 MSTORE PUSH1 0x20 ADD PUSH0 PUSH1 0x3 DUP2 GT ISZERO PUSH2 0x6C2 JUMPI PUSH2 0x6C1 PUSH2 0x17A1 JUMP JUMPDEST JUMPDEST DUP2 MSTORE PUSH1 0x20 ADD TIMESTAMP DUP2 MSTORE PUSH1 0x20 ADD TIMESTAMP DUP2 MSTORE PUSH1 0x20 ADD PUSH1 0x64 PUSH1 0xFF AND DUP2 MSTORE POP SWAP1 POP DUP1 PUSH0 PUSH0 DUP5 DUP2 MSTORE PUSH1 0x20 ADD SWAP1 DUP2 MSTORE PUSH1 0x20 ADD PUSH0 KECCAK256 PUSH0 DUP3 ADD MLOAD DUP2 PUSH0 ADD SSTORE PUSH1 0x20 DUP3 ADD MLOAD DUP2 PUSH1 0x1 ADD PUSH0 PUSH2 0x100 EXP DUP2 SLOAD DUP2 PUSH20 0xFFFFFFFFFFFFFFFFFFFFFFFFFFFFFFFFFFFFFFFF MUL NOT AND SWAP1 DUP4 PUSH20 0xFFFFFFFFFFFFFFFFFFFFFFFFFFFFFFFFFFFFFFFF AND MUL OR SWAP1 SSTORE POP PUSH1 0x40 DUP3 ADD MLOAD DUP2 PUSH1 0x1 ADD PUSH1 0x14 PUSH2 0x100 EXP DUP2 SLOAD DUP2 PUSH1 0xFF MUL NOT AND SWAP1 DUP4 ISZERO ISZERO MUL OR SWAP1 SSTORE POP PUSH1 0x60 DUP3 ADD MLOAD DUP2 PUSH1 0x1 ADD PUSH1 0x15 PUSH2 0x100 EXP DUP2 SLOAD DUP2 PUSH1 0xFF MUL NOT AND SWAP1 DUP4 ISZERO ISZERO MUL OR SWAP1 SSTORE POP PUSH1 0x80 DUP3 ADD MLOAD DUP2 PUSH1 0x1 ADD PUSH1 0x16 PUSH2 0x100 EXP DUP2 SLOAD DUP2 PUSH1 0xFF MUL NOT AND SWAP1 DUP4 PUSH1 0x3 DUP2 GT ISZERO PUSH2 0x7A7 JUMPI PUSH2 0x7A6 PUSH2 0x17A1 JUMP JUMPDEST JUMPDEST MUL OR SWAP1 SSTORE POP PUSH1 0xA0 DUP3 ADD MLOAD DUP2 PUSH1 0x2 ADD SSTORE PUSH1 0xC0 DUP3 ADD MLOAD DUP2 PUSH1 0x3 ADD SSTORE PUSH1 0xE0 DUP3 ADD MLOAD DUP2 PUSH1 0x4 ADD PUSH0 PUSH2 0x100 EXP DUP2 SLOAD DUP2 PUSH1 0xFF MUL NOT AND SWAP1 DUP4 PUSH1 0xFF AND MUL OR SWAP1 SSTORE POP SWAP1 POP POP PUSH1 0x1 PUSH0 CALLER PUSH20 0xFFFFFFFFFFFFFFFFFFFFFFFFFFFFFFFFFFFFFFFF AND PUSH20 0xFFFFFFFFFFFFFFFFFFFFFFFFFFFFFFFFFFFFFFFF AND DUP2 MSTORE PUSH1 0x20 ADD SWAP1 DUP2 MSTORE PUSH1 0x20 ADD PUSH0 KECCAK256 DUP3 SWAP1 DUP1 PUSH1 0x1 DUP2 SLOAD ADD DUP1 DUP3 SSTORE DUP1 SWAP2 POP POP PUSH1 0x1 SWAP1 SUB SWAP1 PUSH0 MSTORE PUSH1 0x20 PUSH0 KECCAK256 ADD PUSH0 SWAP1 SWAP2 SWAP1 SWAP2 SWAP1 SWAP2 POP SSTORE DUP2 CALLER PUSH20 0xFFFFFFFFFFFFFFFFFFFFFFFFFFFFFFFFFFFFFFFF AND PUSH32 0x4F5B22082AC57121703B0B6C1203EF527CFBFA5069616FEE6DEB979D124ADBF0 PUSH1 0x40 MLOAD PUSH1 0x40 MLOAD DUP1 SWAP2 SUB SWAP1 LOG3 DUP2 SWAP3 POP POP POP SWAP1 JUMP JUMPDEST PUSH0 PUSH0 PUSH0 PUSH0 DUP5 DUP2 MSTORE PUSH1 0x20 ADD SWAP1 DUP2 MSTORE PUSH1 0x20 ADD PUSH0 KECCAK256 SWAP1 POP DUP1 PUSH1 0x1 ADD PUSH1 0x14 SWAP1 SLOAD SWAP1 PUSH2 0x100 EXP SWAP1 DIV PUSH1 0xFF AND ISZERO DUP1 PUSH2 0x8D1 JUMPI POP DUP1 PUSH1 0x1 ADD PUSH1 0x15 SWAP1 SLOAD SWAP1 PUSH2 0x100 EXP SWAP1 DIV PUSH1 0xFF AND ISZERO JUMPDEST ISZERO PUSH2 0x8DF JUMPI PUSH0 SWAP2 POP POP PUSH2 0x97D JUMP JUMPDEST PUSH0 DUP2 PUSH1 0x3 ADD SLOAD TIMESTAMP PUSH2 0x8F0 SWAP2 SWAP1 PUSH2 0x1BD7 JUMP JUMPDEST SWAP1 POP PUSH0 PUSH1 0x1E DUP3 PUSH2 0x900 SWAP2 SWAP1 PUSH2 0x1C37 JUMP JUMPDEST SWAP1 POP PUSH0 PUSH1 0x2 PUSH1 0xFF AND DUP3 PUSH2 0x913 SWAP2 SWAP1 PUSH2 0x1C67 JUMP JUMPDEST SWAP1 POP DUP4 PUSH1 0x4 ADD PUSH0 SWAP1 SLOAD SWAP1 PUSH2 0x100 EXP SWAP1 DIV PUSH1 0xFF AND PUSH1 0xFF AND DUP2 LT PUSH2 0x93B JUMPI PUSH0 SWAP5 POP POP POP POP POP PUSH2 0x97D JUMP JUMPDEST PUSH0 DUP2 DUP6 PUSH1 0x4 ADD PUSH0 SWAP1 SLOAD SWAP1 PUSH2 0x100 EXP SWAP1 DIV PUSH1 0xFF AND PUSH1 0xFF AND PUSH2 0x95B SWAP2 SWAP1 PUSH2 0x1BD7 JUMP JUMPDEST SWAP1 POP PUSH1 0x64 DUP2 GT ISZERO PUSH2 0x974 JUMPI PUSH1 0x64 SWAP6 POP POP POP POP POP POP PUSH2 0x97D JUMP JUMPDEST DUP1 SWAP6 POP POP POP POP POP POP JUMPDEST SWAP2 SWAP1 POP JUMP JUMPDEST PUSH1 0x1E DUP2 JUMP JUMPDEST PUSH7 0xAA87BEE538000 DUP2 JUMP JUMPDEST PUSH1 0x3 PUSH0 SWAP1 SLOAD SWAP1 PUSH2 0x100 EXP SWAP1 DIV PUSH20 0xFFFFFFFFFFFFFFFFFFFFFFFFFFFFFFFFFFFFFFFF AND DUP2 JUMP JUMPDEST PUSH0 PUSH1 0x20 MSTORE DUP1 PUSH0 MSTORE PUSH1 0x40 PUSH0 KECCAK256 PUSH0 SWAP2 POP SWAP1 POP DUP1 PUSH0 ADD SLOAD SWAP1 DUP1 PUSH1 0x1 ADD PUSH0 SWAP1 SLOAD SWAP1 PUSH2 0x100 EXP SWAP1 DIV PUSH20 0xFFFFFFFFFFFFFFFFFFFFFFFFFFFFFFFFFFFFFFFF AND SWAP1 DUP1 PUSH1 0x1 ADD PUSH1 0x14 SWAP1 SLOAD SWAP1 PUSH2 0x100 EXP SWAP1 DIV PUSH1 0xFF AND SWAP1 DUP1 PUSH1 0x1 ADD PUSH1 0x15 SWAP1 SLOAD SWAP1 PUSH2 0x100 EXP SWAP1 DIV PUSH1 0xFF AND SWAP1 DUP1 PUSH1 0x1 ADD PUSH1 0x16 SWAP1 SLOAD SWAP1 PUSH2 0x100 EXP SWAP1 DIV PUSH1 0xFF AND SWAP1 DUP1 PUSH1 0x2 ADD SLOAD SWAP1 DUP1 PUSH1 0x3 ADD SLOAD SWAP1 DUP1 PUSH1 0x4 ADD PUSH0 SWAP1 SLOAD SWAP1 PUSH2 0x100 EXP SWAP1 DIV PUSH1 0xFF AND SWAP1 POP DUP9 JUMP JUMPDEST PUSH0 PUSH0 PUSH0 DUP4 DUP2 MSTORE PUSH1 0x20 ADD SWAP1 DUP2 MSTORE PUSH1 0x20 ADD PUSH0 KECCAK256 SWAP1 POP DUP1 PUSH1 0x1 ADD PUSH1 0x14 SWAP1 SLOAD SWAP1 PUSH2 0x100 EXP SWAP1 DIV PUSH1 0xFF AND PUSH2 0xAB0 JUMPI PUSH1 0x40 MLOAD PUSH32 0x8C379A000000000000000000000000000000000000000000000000000000000 DUP2 MSTORE PUSH1 0x4 ADD PUSH2 0xAA7 SWAP1 PUSH2 0x1CF2 JUMP JUMPDEST PUSH1 0x40 MLOAD DUP1 SWAP2 SUB SWAP1 REVERT JUMPDEST CALLER PUSH20 0xFFFFFFFFFFFFFFFFFFFFFFFFFFFFFFFFFFFFFFFF AND DUP2 PUSH1 0x1 ADD PUSH0 SWAP1 SLOAD SWAP1 PUSH2 0x100 EXP SWAP1 DIV PUSH20 0xFFFFFFFFFFFFFFFFFFFFFFFFFFFFFFFFFFFFFFFF AND PUSH20 0xFFFFFFFFFFFFFFFFFFFFFFFFFFFFFFFFFFFFFFFF AND EQ PUSH2 0xB41 JUMPI PUSH1 0x40 MLOAD PUSH32 0x8C379A000000000000000000000000000000000000000000000000000000000 DUP2 MSTORE PUSH1 0x4 ADD PUSH2 0xB38 SWAP1 PUSH2 0x1D5A JUMP JUMPDEST PUSH1 0x40 MLOAD DUP1 SWAP2 SUB SWAP1 REVERT JUMPDEST DUP1 PUSH1 0x1 ADD PUSH1 0x15 SWAP1 SLOAD SWAP1 PUSH2 0x100 EXP SWAP1 DIV PUSH1 0xFF AND PUSH2 0xB92 JUMPI PUSH1 0x40 MLOAD PUSH32 0x8C379A000000000000000000000000000000000000000000000000000000000 DUP2 MSTORE PUSH1 0x4 ADD PUSH2 0xB89 SWAP1 PUSH2 0x1DC2 JUMP JUMPDEST PUSH1 0x40 MLOAD DUP1 SWAP2 SUB SWAP1 REVERT JUMPDEST PUSH2 0xB9B DUP3 PUSH2 0x13F0 JUMP JUMPDEST DUP1 PUSH1 0x1 ADD PUSH1 0x15 SWAP1 SLOAD SWAP1 PUSH2 0x100 EXP SWAP1 DIV PUSH1 0xFF AND PUSH2 0xBEC JUMPI PUSH1 0x40 MLOAD PUSH32 0x8C379A000000000000000000000000000000000000000000000000000000000 DUP2 MSTORE PUSH1 0x4 ADD PUSH2 0xBE3 SWAP1 PUSH2 0x1E2A JUMP JUMPDEST PUSH1 0x40 MLOAD DUP1 SWAP2 SUB SWAP1 REVERT JUMPDEST PUSH1 0x64 DUP2 PUSH1 0x4 ADD PUSH0 PUSH2 0x100 EXP DUP2 SLOAD DUP2 PUSH1 0xFF MUL NOT AND SWAP1 DUP4 PUSH1 0xFF AND MUL OR SWAP1 SSTORE POP TIMESTAMP DUP2 PUSH1 0x3 ADD DUP2 SWAP1 SSTORE POP DUP2 PUSH32 0xD4B742B9BA48FFFA1F14267075A7793851770764117C423FD0A6550DFC8CB574 DUP3 PUSH1 0x4 ADD PUSH0 SWAP1 SLOAD SWAP1 PUSH2 0x100 EXP SWAP1 DIV PUSH1 0xFF AND PUSH1 0x40 MLOAD PUSH2 0xC52 SWAP2 SWAP1 PUSH2 0x1746 JUMP JUMPDEST PUSH1 0x40 MLOAD DUP1 SWAP2 SUB SWAP1 LOG2 PUSH2 0xC63 DUP3 PUSH2 0xC7D JUMP JUMPDEST POP POP JUMP JUMPDEST PUSH1 0x2 SLOAD DUP2 JUMP JUMPDEST PUSH1 0x2 DUP2 JUMP JUMPDEST PUSH7 0x38D7EA4C68000 DUP2 JUMP JUMPDEST PUSH0 PUSH0 PUSH0 DUP4 DUP2 MSTORE PUSH1 0x20 ADD SWAP1 DUP2 MSTORE PUSH1 0x20 ADD PUSH0 KECCAK256 SWAP1 POP DUP1 PUSH1 0x1 ADD PUSH1 0x14 SWAP1 SLOAD SWAP1 PUSH2 0x100 EXP SWAP1 DIV PUSH1 0xFF AND ISZERO DUP1 PUSH2 0xCBD JUMPI POP DUP1 PUSH1 0x1 ADD PUSH1 0x15 SWAP1 SLOAD SWAP1 PUSH2 0x100 EXP SWAP1 DIV PUSH1 0xFF AND ISZERO JUMPDEST ISZERO PUSH2 0xCC8 JUMPI POP PUSH2 0xE7E JUMP JUMPDEST PUSH0 DUP2 PUSH1 0x2 ADD SLOAD TIMESTAMP PUSH2 0xCD9 SWAP2 SWAP1 PUSH2 0x1BD7 JUMP JUMPDEST SWAP1 POP PUSH0 PUSH1 0x3C DUP3 PUSH2 0xCE9 SWAP2 SWAP1 PUSH2 0x1C37 JUMP JUMPDEST SWAP1 POP PUSH1 0x3 DUP2 LT PUSH2 0xDAE JUMPI PUSH1 0x3 DUP1 DUP2 GT ISZERO PUSH2 0xD06 JUMPI PUSH2 0xD05 PUSH2 0x17A1 JUMP JUMPDEST JUMPDEST DUP4 PUSH1 0x1 ADD PUSH1 0x16 SWAP1 SLOAD SWAP1 PUSH2 0x100 EXP SWAP1 DIV PUSH1 0xFF AND PUSH1 0x3 DUP2 GT ISZERO PUSH2 0xD2A JUMPI PUSH2 0xD29 PUSH2 0x17A1 JUMP JUMPDEST JUMPDEST EQ PUSH2 0xDA6 JUMPI PUSH1 0x3 DUP4 PUSH1 0x1 ADD PUSH1 0x16 PUSH2 0x100 EXP DUP2 SLOAD DUP2 PUSH1 0xFF MUL NOT AND SWAP1 DUP4 PUSH1 0x3 DUP2 GT ISZERO PUSH2 0xD57 JUMPI PUSH2 0xD56 PUSH2 0x17A1 JUMP JUMPDEST JUMPDEST MUL OR SWAP1 SSTORE POP DUP4 PUSH32 0x338B8976706F9DA67298DDDFA1EA4FF7D99CCE68B9CA39C4F348994F8E2124A8 DUP5 PUSH1 0x1 ADD PUSH1 0x16 SWAP1 SLOAD SWAP1 PUSH2 0x100 EXP SWAP1 DIV PUSH1 0xFF AND PUSH1 0x40 MLOAD PUSH2 0xD9D SWAP2 SWAP1 PUSH2 0x1E48 JUMP JUMPDEST PUSH1 0x40 MLOAD DUP1 SWAP2 SUB SWAP1 LOG2 JUMPDEST POP POP POP PUSH2 0xE7E JUMP JUMPDEST PUSH0 DUP2 PUSH1 0xFF AND PUSH1 0x3 DUP2 GT ISZERO PUSH2 0xDC5 JUMPI PUSH2 0xDC4 PUSH2 0x17A1 JUMP JUMPDEST JUMPDEST SWAP1 POP DUP4 PUSH1 0x1 ADD PUSH1 0x16 SWAP1 SLOAD SWAP1 PUSH2 0x100 EXP SWAP1 DIV PUSH1 0xFF AND PUSH1 0x3 DUP2 GT ISZERO PUSH2 0xDEB JUMPI PUSH2 0xDEA PUSH2 0x17A1 JUMP JUMPDEST JUMPDEST DUP2 PUSH1 0x3 DUP2 GT ISZERO PUSH2 0xDFE JUMPI PUSH2 0xDFD PUSH2 0x17A1 JUMP JUMPDEST JUMPDEST EQ PUSH2 0xE79 JUMPI DUP1 DUP5 PUSH1 0x1 ADD PUSH1 0x16 PUSH2 0x100 EXP DUP2 SLOAD DUP2 PUSH1 0xFF MUL NOT AND SWAP1 DUP4 PUSH1 0x3 DUP2 GT ISZERO PUSH2 0xE2A JUMPI PUSH2 0xE29 PUSH2 0x17A1 JUMP JUMPDEST JUMPDEST MUL OR SWAP1 SSTORE POP DUP5 PUSH32 0x338B8976706F9DA67298DDDFA1EA4FF7D99CCE68B9CA39C4F348994F8E2124A8 DUP6 PUSH1 0x1 ADD PUSH1 0x16 SWAP1 SLOAD SWAP1 PUSH2 0x100 EXP SWAP1 DIV PUSH1 0xFF AND PUSH1 0x40 MLOAD PUSH2 0xE70 SWAP2 SWAP1 PUSH2 0x1E48 JUMP JUMPDEST PUSH1 0x40 MLOAD DUP1 SWAP2 SUB SWAP1 LOG2 JUMPDEST POP POP POP POP JUMPDEST POP JUMP JUMPDEST PUSH0 PUSH0 PUSH0 DUP4 DUP2 MSTORE PUSH1 0x20 ADD SWAP1 DUP2 MSTORE PUSH1 0x20 ADD PUSH0 KECCAK256 SWAP1 POP DUP1 PUSH1 0x1 ADD PUSH1 0x14 SWAP1 SLOAD SWAP1 PUSH2 0x100 EXP SWAP1 DIV PUSH1 0xFF AND PUSH2 0xEE5 JUMPI PUSH1 0x40 MLOAD PUSH32 0x8C379A000000000000000000000000000000000000000000000000000000000 DUP2 MSTORE PUSH1 0x4 ADD PUSH2 0xEDC SWAP1 PUSH2 0x1CF2 JUMP JUMPDEST PUSH1 0x40 MLOAD DUP1 SWAP2 SUB SWAP1 REVERT JUMPDEST CALLER PUSH20 0xFFFFFFFFFFFFFFFFFFFFFFFFFFFFFFFFFFFFFFFF AND DUP2 PUSH1 0x1 ADD PUSH0 SWAP1 SLOAD SWAP1 PUSH2 0x100 EXP SWAP1 DIV PUSH20 0xFFFFFFFFFFFFFFFFFFFFFFFFFFFFFFFFFFFFFFFF AND PUSH20 0xFFFFFFFFFFFFFFFFFFFFFFFFFFFFFFFFFFFFFFFF AND EQ PUSH2 0xF76 JUMPI PUSH1 0x40 MLOAD PUSH32 0x8C379A000000000000000000000000000000000000000000000000000000000 DUP2 MSTORE PUSH1 0x4 ADD PUSH2 0xF6D SWAP1 PUSH2 0x1EAB JUMP JUMPDEST PUSH1 0x40 MLOAD DUP1 SWAP2 SUB SWAP1 REVERT JUMPDEST DUP1 PUSH1 0x1 ADD PUSH1 0x15 SWAP1 SLOAD SWAP1 PUSH2 0x100 EXP SWAP1 DIV PUSH1 0xFF AND PUSH2 0xFC7 JUMPI PUSH1 0x40 MLOAD PUSH32 0x8C379A000000000000000000000000000000000000000000000000000000000 DUP2 MSTORE PUSH1 0x4 ADD PUSH2 0xFBE SWAP1 PUSH2 0x1DC2 JUMP JUMPDEST PUSH1 0x40 MLOAD DUP1 SWAP2 SUB SWAP1 REVERT JUMPDEST PUSH2 0xFD0 DUP3 PUSH2 0x13F0 JUMP JUMPDEST DUP1 PUSH1 0x1 ADD PUSH1 0x15 SWAP1 SLOAD SWAP1 PUSH2 0x100 EXP SWAP1 DIV PUSH1 0xFF AND PUSH2 0x1021 JUMPI PUSH1 0x40 MLOAD PUSH32 0x8C379A000000000000000000000000000000000000000000000000000000000 DUP2 MSTORE PUSH1 0x4 ADD PUSH2 0x1018 SWAP1 PUSH2 0x1F13 JUMP JUMPDEST PUSH1 0x40 MLOAD DUP1 SWAP2 SUB SWAP1 REVERT JUMPDEST PUSH2 0x102A DUP3 PUSH2 0xC7D JUMP JUMPDEST PUSH1 0x3 DUP1 DUP2 GT ISZERO PUSH2 0x103D JUMPI PUSH2 0x103C PUSH2 0x17A1 JUMP JUMPDEST JUMPDEST DUP2 PUSH1 0x1 ADD PUSH1 0x16 SWAP1 SLOAD SWAP1 PUSH2 0x100 EXP SWAP1 DIV PUSH1 0xFF AND PUSH1 0x3 DUP2 GT ISZERO PUSH2 0x1061 JUMPI PUSH2 0x1060 PUSH2 0x17A1 JUMP JUMPDEST JUMPDEST EQ PUSH2 0x10A1 JUMPI PUSH1 0x40 MLOAD PUSH32 0x8C379A000000000000000000000000000000000000000000000000000000000 DUP2 MSTORE PUSH1 0x4 ADD PUSH2 0x1098 SWAP1 PUSH2 0x1F7B JUMP JUMPDEST PUSH1 0x40 MLOAD DUP1 SWAP2 SUB SWAP1 REVERT JUMPDEST PUSH0 DUP2 PUSH1 0x1 ADD PUSH1 0x14 PUSH2 0x100 EXP DUP2 SLOAD DUP2 PUSH1 0xFF MUL NOT AND SWAP1 DUP4 ISZERO ISZERO MUL OR SWAP1 SSTORE POP PUSH0 DUP2 PUSH1 0x1 ADD PUSH1 0x15 PUSH2 0x100 EXP DUP2 SLOAD DUP2 PUSH1 0xFF MUL NOT AND SWAP1 DUP4 ISZERO ISZERO MUL OR SWAP1 SSTORE POP CALLER PUSH20 0xFFFFFFFFFFFFFFFFFFFFFFFFFFFFFFFFFFFFFFFF AND DUP3 PUSH32 0x79F2138EA100070FF95B59C265DA7AA3C7A0F61595FE1BB2F5FDA2762F398847 PUSH7 0xAA87BEE538000 PUSH1 0x40 MLOAD PUSH2 0x1127 SWAP2 SWAP1 PUSH2 0x16BD JUMP JUMPDEST PUSH1 0x40 MLOAD DUP1 SWAP2 SUB SWAP1 LOG3 PUSH7 0xAA87BEE538000 SELFBALANCE LT ISZERO PUSH2 0x1179 JUMPI PUSH1 0x40 MLOAD PUSH32 0x8C379A000000000000000000000000000000000000000000000000000000000 DUP2 MSTORE PUSH1 0x4 ADD PUSH2 0x1170 SWAP1 PUSH2 0x2009 JUMP JUMPDEST PUSH1 0x40 MLOAD DUP1 SWAP2 SUB SWAP1 REVERT JUMPDEST PUSH0 CALLER PUSH20 0xFFFFFFFFFFFFFFFFFFFFFFFFFFFFFFFFFFFFFFFF AND PUSH7 0xAA87BEE538000 PUSH1 0x40 MLOAD PUSH2 0x11A5 SWAP1 PUSH2 0x1A93 JUMP JUMPDEST PUSH0 PUSH1 0x40 MLOAD DUP1 DUP4 SUB DUP2 DUP6 DUP8 GAS CALL SWAP3 POP POP POP RETURNDATASIZE DUP1 PUSH0 DUP2 EQ PUSH2 0x11DF JUMPI PUSH1 0x40 MLOAD SWAP2 POP PUSH1 0x1F NOT PUSH1 0x3F RETURNDATASIZE ADD AND DUP3 ADD PUSH1 0x40 MSTORE RETURNDATASIZE DUP3 MSTORE RETURNDATASIZE PUSH0 PUSH1 0x20 DUP5 ADD RETURNDATACOPY PUSH2 0x11E4 JUMP JUMPDEST PUSH1 0x60 SWAP2 POP JUMPDEST POP POP SWAP1 POP DUP1 PUSH2 0x1228 JUMPI PUSH1 0x40 MLOAD PUSH32 0x8C379A000000000000000000000000000000000000000000000000000000000 DUP2 MSTORE PUSH1 0x4 ADD PUSH2 0x121F SWAP1 PUSH2 0x2071 JUMP JUMPDEST PUSH1 0x40 MLOAD DUP1 SWAP2 SUB SWAP1 REVERT JUMPDEST POP POP POP JUMP JUMPDEST PUSH2 0x1235 PUSH2 0x14D9 JUMP JUMPDEST PUSH0 PUSH0 PUSH0 DUP5 DUP2 MSTORE PUSH1 0x20 ADD SWAP1 DUP2 MSTORE PUSH1 0x20 ADD PUSH0 KECCAK256 SWAP1 POP PUSH0 DUP2 PUSH0 ADD SLOAD EQ ISZERO DUP1 PUSH2 0x126F JUMPI POP PUSH1 0x1 ISZERO ISZERO DUP2 PUSH1 0x1 ADD PUSH1 0x14 SWAP1 SLOAD SWAP1 PUSH2 0x100 EXP SWAP1 DIV PUSH1 0xFF AND ISZERO ISZERO EQ JUMPDEST DUP1 PUSH2 0x127E JUMPI POP PUSH0 DUP2 PUSH1 0x3 ADD SLOAD EQ ISZERO JUMPDEST PUSH2 0x12BD JUMPI PUSH1 0x40 MLOAD PUSH32 0x8C379A000000000000000000000000000000000000000000000000000000000 DUP2 MSTORE PUSH1 0x4 ADD PUSH2 0x12B4 SWAP1 PUSH2 0x1CF2 JUMP JUMPDEST PUSH1 0x40 MLOAD DUP1 SWAP2 SUB SWAP1 REVERT JUMPDEST PUSH0 DUP2 PUSH1 0x40 MLOAD DUP1 PUSH2 0x100 ADD PUSH1 0x40 MSTORE SWAP1 DUP2 PUSH0 DUP3 ADD SLOAD DUP2 MSTORE PUSH1 0x20 ADD PUSH1 0x1 DUP3 ADD PUSH0 SWAP1 SLOAD SWAP1 PUSH2 0x100 EXP SWAP1 DIV PUSH20 0xFFFFFFFFFFFFFFFFFFFFFFFFFFFFFFFFFFFFFFFF AND PUSH20 0xFFFFFFFFFFFFFFFFFFFFFFFFFFFFFFFFFFFFFFFF AND PUSH20 0xFFFFFFFFFFFFFFFFFFFFFFFFFFFFFFFFFFFFFFFF AND DUP2 MSTORE PUSH1 0x20 ADD PUSH1 0x1 DUP3 ADD PUSH1 0x14 SWAP1 SLOAD SWAP1 PUSH2 0x100 EXP SWAP1 DIV PUSH1 0xFF AND ISZERO ISZERO ISZERO ISZERO DUP2 MSTORE PUSH1 0x20 ADD PUSH1 0x1 DUP3 ADD PUSH1 0x15 SWAP1 SLOAD SWAP1 PUSH2 0x100 EXP SWAP1 DIV PUSH1 0xFF AND ISZERO ISZERO ISZERO ISZERO DUP2 MSTORE PUSH1 0x20 ADD PUSH1 0x1 DUP3 ADD PUSH1 0x16 SWAP1 SLOAD SWAP1 PUSH2 0x100 EXP SWAP1 DIV PUSH1 0xFF AND PUSH1 0x3 DUP2 GT ISZERO PUSH2 0x1384 JUMPI PUSH2 0x1383 PUSH2 0x17A1 JUMP JUMPDEST JUMPDEST PUSH1 0x3 DUP2 GT ISZERO PUSH2 0x1396 JUMPI PUSH2 0x1395 PUSH2 0x17A1 JUMP JUMPDEST JUMPDEST DUP2 MSTORE PUSH1 0x20 ADD PUSH1 0x2 DUP3 ADD SLOAD DUP2 MSTORE PUSH1 0x20 ADD PUSH1 0x3 DUP3 ADD SLOAD DUP2 MSTORE PUSH1 0x20 ADD PUSH1 0x4 DUP3 ADD PUSH0 SWAP1 SLOAD SWAP1 PUSH2 0x100 EXP SWAP1 DIV PUSH1 0xFF AND PUSH1 0xFF AND PUSH1 0xFF AND DUP2 MSTORE POP POP SWAP1 POP PUSH2 0x13D5 DUP5 PUSH2 0x890 JUMP JUMPDEST DUP2 PUSH1 0xE0 ADD SWAP1 PUSH1 0xFF AND SWAP1 DUP2 PUSH1 0xFF AND DUP2 MSTORE POP POP DUP1 SWAP3 POP POP POP SWAP2 SWAP1 POP JUMP JUMPDEST PUSH0 PUSH0 PUSH0 DUP4 DUP2 MSTORE PUSH1 0x20 ADD SWAP1 DUP2 MSTORE PUSH1 0x20 ADD PUSH0 KECCAK256 SWAP1 POP DUP1 PUSH1 0x1 ADD PUSH1 0x14 SWAP1 SLOAD SWAP1 PUSH2 0x100 EXP SWAP1 DIV PUSH1 0xFF AND ISZERO DUP1 PUSH2 0x1430 JUMPI POP DUP1 PUSH1 0x1 ADD PUSH1 0x15 SWAP1 SLOAD SWAP1 PUSH2 0x100 EXP SWAP1 DIV PUSH1 0xFF AND ISZERO JUMPDEST ISZERO PUSH2 0x143B JUMPI POP PUSH2 0x14D6 JUMP JUMPDEST PUSH0 PUSH2 0x1445 DUP4 PUSH2 0x890 JUMP JUMPDEST SWAP1 POP DUP1 DUP3 PUSH1 0x4 ADD PUSH0 PUSH2 0x100 EXP DUP2 SLOAD DUP2 PUSH1 0xFF MUL NOT AND SWAP1 DUP4 PUSH1 0xFF AND MUL OR SWAP1 SSTORE POP PUSH0 DUP2 PUSH1 0xFF AND SUB PUSH2 0x14D3 JUMPI PUSH0 DUP3 PUSH1 0x1 ADD PUSH1 0x15 PUSH2 0x100 EXP DUP2 SLOAD DUP2 PUSH1 0xFF MUL NOT AND SWAP1 DUP4 ISZERO ISZERO MUL OR SWAP1 SSTORE POP PUSH0 DUP3 PUSH1 0x1 ADD PUSH1 0x14 PUSH2 0x100 EXP DUP2 SLOAD DUP2 PUSH1 0xFF MUL NOT AND SWAP1 DUP4 ISZERO ISZERO MUL OR SWAP1 SSTORE POP DUP3 PUSH32 0xCC296A21951F3E57F21AFB08547D835A0A9F0F06CC2867009CBE0CAE44D36BE9 PUSH1 0x40 MLOAD PUSH1 0x40 MLOAD DUP1 SWAP2 SUB SWAP1 LOG2 JUMPDEST POP POP JUMPDEST POP JUMP JUMPDEST PUSH1 0x40 MLOAD DUP1 PUSH2 0x100 ADD PUSH1 0x40 MSTORE DUP1 PUSH0 DUP2 MSTORE PUSH1 0x20 ADD PUSH0 PUSH20 0xFFFFFFFFFFFFFFFFFFFFFFFFFFFFFFFFFFFFFFFF AND DUP2 MSTORE PUSH1 0x20 ADD PUSH0 ISZERO ISZERO DUP2 MSTORE PUSH1 0x20 ADD PUSH0 ISZERO ISZERO DUP2 MSTORE PUSH1 0x20 ADD PUSH0 PUSH1 0x3 DUP2 GT ISZERO PUSH2 0x152A JUMPI PUSH2 0x1529 PUSH2 0x17A1 JUMP JUMPDEST JUMPDEST DUP2 MSTORE PUSH1 0x20 ADD PUSH0 DUP2 MSTORE PUSH1 0x20 ADD PUSH0 DUP2 MSTORE PUSH1 0x20 ADD PUSH0 PUSH1 0xFF AND DUP2 MSTORE POP SWAP1 JUMP JUMPDEST PUSH0 PUSH0 REVERT JUMPDEST PUSH0 PUSH20 0xFFFFFFFFFFFFFFFFFFFFFFFFFFFFFFFFFFFFFFFF DUP3 AND SWAP1 POP SWAP2 SWAP1 POP JUMP JUMPDEST PUSH0 PUSH2 0x1572 DUP3 PUSH2 0x1549 JUMP JUMPDEST SWAP1 POP SWAP2 SWAP1 POP JUMP JUMPDEST PUSH2 0x1582 DUP2 PUSH2 0x1568 JUMP JUMPDEST DUP2 EQ PUSH2 0x158C JUMPI PUSH0 PUSH0 REVERT JUMPDEST POP JUMP JUMPDEST PUSH0 DUP2 CALLDATALOAD SWAP1 POP PUSH2 0x159D DUP2 PUSH2 0x1579 JUMP JUMPDEST SWAP3 SWAP2 POP POP JUMP JUMPDEST PUSH0 PUSH1 0x20 DUP3 DUP5 SUB SLT ISZERO PUSH2 0x15B8 JUMPI PUSH2 0x15B7 PUSH2 0x1545 JUMP JUMPDEST JUMPDEST PUSH0 PUSH2 0x15C5 DUP5 DUP3 DUP6 ADD PUSH2 0x158F JUMP JUMPDEST SWAP2 POP POP SWAP3 SWAP2 POP POP JUMP JUMPDEST PUSH0 DUP2 MLOAD SWAP1 POP SWAP2 SWAP1 POP JUMP JUMPDEST PUSH0 DUP3 DUP3 MSTORE PUSH1 0x20 DUP3 ADD SWAP1 POP SWAP3 SWAP2 POP POP JUMP JUMPDEST PUSH0 DUP2 SWAP1 POP PUSH1 0x20 DUP3 ADD SWAP1 POP SWAP2 SWAP1 POP JUMP JUMPDEST PUSH0 DUP2 SWAP1 POP SWAP2 SWAP1 POP JUMP JUMPDEST PUSH2 0x1609 DUP2 PUSH2 0x15F7 JUMP JUMPDEST DUP3 MSTORE POP POP JUMP JUMPDEST PUSH0 PUSH2 0x161A DUP4 DUP4 PUSH2 0x1600 JUMP JUMPDEST PUSH1 0x20 DUP4 ADD SWAP1 POP SWAP3 SWAP2 POP POP JUMP JUMPDEST PUSH0 PUSH1 0x20 DUP3 ADD SWAP1 POP SWAP2 SWAP1 POP JUMP JUMPDEST PUSH0 PUSH2 0x163C DUP3 PUSH2 0x15CE JUMP JUMPDEST PUSH2 0x1646 DUP2 DUP6 PUSH2 0x15D8 JUMP JUMPDEST SWAP4 POP PUSH2 0x1651 DUP4 PUSH2 0x15E8 JUMP JUMPDEST DUP1 PUSH0 JUMPDEST DUP4 DUP2 LT ISZERO PUSH2 0x1681 JUMPI DUP2 MLOAD PUSH2 0x1668 DUP9 DUP3 PUSH2 0x160F JUMP JUMPDEST SWAP8 POP PUSH2 0x1673 DUP4 PUSH2 0x1626 JUMP JUMPDEST SWAP3 POP POP PUSH1 0x1 DUP2 ADD SWAP1 POP PUSH2 0x1654 JUMP JUMPDEST POP DUP6 SWAP4 POP POP POP POP SWAP3 SWAP2 POP POP JUMP JUMPDEST PUSH0 PUSH1 0x20 DUP3 ADD SWAP1 POP DUP2 DUP2 SUB PUSH0 DUP4 ADD MSTORE PUSH2 0x16A6 DUP2 DUP5 PUSH2 0x1632 JUMP JUMPDEST SWAP1 POP SWAP3 SWAP2 POP POP JUMP JUMPDEST PUSH2 0x16B7 DUP2 PUSH2 0x15F7 JUMP JUMPDEST DUP3 MSTORE POP POP JUMP JUMPDEST PUSH0 PUSH1 0x20 DUP3 ADD SWAP1 POP PUSH2 0x16D0 PUSH0 DUP4 ADD DUP5 PUSH2 0x16AE JUMP JUMPDEST SWAP3 SWAP2 POP POP JUMP JUMPDEST PUSH2 0x16DF DUP2 PUSH2 0x15F7 JUMP JUMPDEST DUP2 EQ PUSH2 0x16E9 JUMPI PUSH0 PUSH0 REVERT JUMPDEST POP JUMP JUMPDEST PUSH0 DUP2 CALLDATALOAD SWAP1 POP PUSH2 0x16FA DUP2 PUSH2 0x16D6 JUMP JUMPDEST SWAP3 SWAP2 POP POP JUMP JUMPDEST PUSH0 PUSH1 0x20 DUP3 DUP5 SUB SLT ISZERO PUSH2 0x1715 JUMPI PUSH2 0x1714 PUSH2 0x1545 JUMP JUMPDEST JUMPDEST PUSH0 PUSH2 0x1722 DUP5 DUP3 DUP6 ADD PUSH2 0x16EC JUMP JUMPDEST SWAP2 POP POP SWAP3 SWAP2 POP POP JUMP JUMPDEST PUSH0 PUSH1 0xFF DUP3 AND SWAP1 POP SWAP2 SWAP1 POP JUMP JUMPDEST PUSH2 0x1740 DUP2 PUSH2 0x172B JUMP JUMPDEST DUP3 MSTORE POP POP JUMP JUMPDEST PUSH0 PUSH1 0x20 DUP3 ADD SWAP1 POP PUSH2 0x1759 PUSH0 DUP4 ADD DUP5 PUSH2 0x1737 JUMP JUMPDEST SWAP3 SWAP2 POP POP JUMP JUMPDEST PUSH2 0x1768 DUP2 PUSH2 0x1568 JUMP JUMPDEST DUP3 MSTORE POP POP JUMP JUMPDEST PUSH0 PUSH1 0x20 DUP3 ADD SWAP1 POP PUSH2 0x1781 PUSH0 DUP4 ADD DUP5 PUSH2 0x175F JUMP JUMPDEST SWAP3 SWAP2 POP POP JUMP JUMPDEST PUSH0 DUP2 ISZERO ISZERO SWAP1 POP SWAP2 SWAP1 POP JUMP JUMPDEST PUSH2 0x179B DUP2 PUSH2 0x1787 JUMP JUMPDEST DUP3 MSTORE POP POP JUMP JUMPDEST PUSH32 0x4E487B7100000000000000000000000000000000000000000000000000000000 PUSH0 MSTORE PUSH1 0x21 PUSH1 0x4 MSTORE PUSH1 0x24 PUSH0 REVERT JUMPDEST PUSH1 0x4 DUP2 LT PUSH2 0x17DF JUMPI PUSH2 0x17DE PUSH2 0x17A1 JUMP JUMPDEST JUMPDEST POP JUMP JUMPDEST PUSH0 DUP2 SWAP1 POP PUSH2 0x17EF DUP3 PUSH2 0x17CE JUMP JUMPDEST SWAP2 SWAP1 POP JUMP JUMPDEST PUSH0 PUSH2 0x17FE DUP3 PUSH2 0x17E2 JUMP JUMPDEST SWAP1 POP SWAP2 SWAP1 POP JUMP JUMPDEST PUSH2 0x180E DUP2 PUSH2 0x17F4 JUMP JUMPDEST DUP3 MSTORE POP POP JUMP JUMPDEST PUSH0 PUSH2 0x100 DUP3 ADD SWAP1 POP PUSH2 0x1828 PUSH0 DUP4 ADD DUP12 PUSH2 0x16AE JUMP JUMPDEST PUSH2 0x1835 PUSH1 0x20 DUP4 ADD DUP11 PUSH2 0x175F JUMP JUMPDEST PUSH2 0x1842 PUSH1 0x40 DUP4 ADD DUP10 PUSH2 0x1792 JUMP JUMPDEST PUSH2 0x184F PUSH1 0x60 DUP4 ADD DUP9 PUSH2 0x1792 JUMP JUMPDEST PUSH2 0x185C PUSH1 0x80 DUP4 ADD DUP8 PUSH2 0x1805 JUMP JUMPDEST PUSH2 0x1869 PUSH1 0xA0 DUP4 ADD DUP7 PUSH2 0x16AE JUMP JUMPDEST PUSH2 0x1876 PUSH1 0xC0 DUP4 ADD DUP6 PUSH2 0x16AE JUMP JUMPDEST PUSH2 0x1883 PUSH1 0xE0 DUP4 ADD DUP5 PUSH2 0x1737 JUMP JUMPDEST SWAP10 SWAP9 POP POP POP POP POP POP POP POP POP JUMP JUMPDEST PUSH2 0x1899 DUP2 PUSH2 0x1568 JUMP JUMPDEST DUP3 MSTORE POP POP JUMP JUMPDEST PUSH2 0x18A8 DUP2 PUSH2 0x1787 JUMP JUMPDEST DUP3 MSTORE POP POP JUMP JUMPDEST PUSH2 0x18B7 DUP2 PUSH2 0x17F4 JUMP JUMPDEST DUP3 MSTORE POP POP JUMP JUMPDEST PUSH2 0x18C6 DUP2 PUSH2 0x172B JUMP JUMPDEST DUP3 MSTORE POP POP JUMP JUMPDEST PUSH2 0x100 DUP3 ADD PUSH0 DUP3 ADD MLOAD PUSH2 0x18E1 PUSH0 DUP6 ADD DUP3 PUSH2 0x1600 JUMP JUMPDEST POP PUSH1 0x20 DUP3 ADD MLOAD PUSH2 0x18F4 PUSH1 0x20 DUP6 ADD DUP3 PUSH2 0x1890 JUMP JUMPDEST POP PUSH1 0x40 DUP3 ADD MLOAD PUSH2 0x1907 PUSH1 0x40 DUP6 ADD DUP3 PUSH2 0x189F JUMP JUMPDEST POP PUSH1 0x60 DUP3 ADD MLOAD PUSH2 0x191A PUSH1 0x60 DUP6 ADD DUP3 PUSH2 0x189F JUMP JUMPDEST POP PUSH1 0x80 DUP3 ADD MLOAD PUSH2 0x192D PUSH1 0x80 DUP6 ADD DUP3 PUSH2 0x18AE JUMP JUMPDEST POP PUSH1 0xA0 DUP3 ADD MLOAD PUSH2 0x1940 PUSH1 0xA0 DUP6 ADD DUP3 PUSH2 0x1600 JUMP JUMPDEST POP PUSH1 0xC0 DUP3 ADD MLOAD PUSH2 0x1953 PUSH1 0xC0 DUP6 ADD DUP3 PUSH2 0x1600 JUMP JUMPDEST POP PUSH1 0xE0 DUP3 ADD MLOAD PUSH2 0x1966 PUSH1 0xE0 DUP6 ADD DUP3 PUSH2 0x18BD JUMP JUMPDEST POP POP POP POP JUMP JUMPDEST PUSH0 PUSH2 0x100 DUP3 ADD SWAP1 POP PUSH2 0x1980 PUSH0 DUP4 ADD DUP5 PUSH2 0x18CC JUMP JUMPDEST SWAP3 SWAP2 POP POP JUMP JUMPDEST PUSH0 DUP3 DUP3 MSTORE PUSH1 0x20 DUP3 ADD SWAP1 POP SWAP3 SWAP2 POP POP JUMP JUMPDEST PUSH32 0x4F6E6C79206F776E657200000000000000000000000000000000000000000000 PUSH0 DUP3 ADD MSTORE POP JUMP JUMPDEST PUSH0 PUSH2 0x19CA PUSH1 0xA DUP4 PUSH2 0x1986 JUMP JUMPDEST SWAP2 POP PUSH2 0x19D5 DUP3 PUSH2 0x1996 JUMP JUMPDEST PUSH1 0x20 DUP3 ADD SWAP1 POP SWAP2 SWAP1 POP JUMP JUMPDEST PUSH0 PUSH1 0x20 DUP3 ADD SWAP1 POP DUP2 DUP2 SUB PUSH0 DUP4 ADD MSTORE PUSH2 0x19F7 DUP2 PUSH2 0x19BE JUMP JUMPDEST SWAP1 POP SWAP2 SWAP1 POP JUMP JUMPDEST PUSH32 0x4E6F2066756E647320746F207769746864726177000000000000000000000000 PUSH0 DUP3 ADD MSTORE POP JUMP JUMPDEST PUSH0 PUSH2 0x1A32 PUSH1 0x14 DUP4 PUSH2 0x1986 JUMP JUMPDEST SWAP2 POP PUSH2 0x1A3D DUP3 PUSH2 0x19FE JUMP JUMPDEST PUSH1 0x20 DUP3 ADD SWAP1 POP SWAP2 SWAP1 POP JUMP JUMPDEST PUSH0 PUSH1 0x20 DUP3 ADD SWAP1 POP DUP2 DUP2 SUB PUSH0 DUP4 ADD MSTORE PUSH2 0x1A5F DUP2 PUSH2 0x1A26 JUMP JUMPDEST SWAP1 POP SWAP2 SWAP1 POP JUMP JUMPDEST PUSH0 DUP2 SWAP1 POP SWAP3 SWAP2 POP POP JUMP JUMPDEST POP JUMP JUMPDEST PUSH0 PUSH2 0x1A7E PUSH0 DUP4 PUSH2 0x1A66 JUMP JUMPDEST SWAP2 POP PUSH2 0x1A89 DUP3 PUSH2 0x1A70 JUMP JUMPDEST PUSH0 DUP3 ADD SWAP1 POP SWAP2 SWAP1 POP JUMP JUMPDEST PUSH0 PUSH2 0x1A9D DUP3 PUSH2 0x1A73 JUMP JUMPDEST SWAP2 POP DUP2 SWAP1 POP SWAP2 SWAP1 POP JUMP JUMPDEST PUSH32 0x5769746864726177206661696C65640000000000000000000000000000000000 PUSH0 DUP3 ADD MSTORE POP JUMP JUMPDEST PUSH0 PUSH2 0x1ADB PUSH1 0xF DUP4 PUSH2 0x1986 JUMP JUMPDEST SWAP2 POP PUSH2 0x1AE6 DUP3 PUSH2 0x1AA7 JUMP JUMPDEST PUSH1 0x20 DUP3 ADD SWAP1 POP SWAP2 SWAP1 POP JUMP JUMPDEST PUSH0 PUSH1 0x20 DUP3 ADD SWAP1 POP DUP2 DUP2 SUB PUSH0 DUP4 ADD MSTORE PUSH2 0x1B08 DUP2 PUSH2 0x1ACF JUMP JUMPDEST SWAP1 POP SWAP2 SWAP1 POP JUMP JUMPDEST PUSH32 0x4E6F7420656E6F7567682045544820746F20706C616E74000000000000000000 PUSH0 DUP3 ADD MSTORE POP JUMP JUMPDEST PUSH0 PUSH2 0x1B43 PUSH1 0x17 DUP4 PUSH2 0x1986 JUMP JUMPDEST SWAP2 POP PUSH2 0x1B4E DUP3 PUSH2 0x1B0F JUMP JUMPDEST PUSH1 0x20 DUP3 ADD SWAP1 POP SWAP2 SWAP1 POP JUMP JUMPDEST PUSH0 PUSH1 0x20 DUP3 ADD SWAP1 POP DUP2 DUP2 SUB PUSH0 DUP4 ADD MSTORE PUSH2 0x1B70 DUP2 PUSH2 0x1B37 JUMP JUMPDEST SWAP1 POP SWAP2 SWAP1 POP JUMP JUMPDEST PUSH32 0x4E487B7100000000000000000000000000000000000000000000000000000000 PUSH0 MSTORE PUSH1 0x11 PUSH1 0x4 MSTORE PUSH1 0x24 PUSH0 REVERT JUMPDEST PUSH0 PUSH2 0x1BAE DUP3 PUSH2 0x15F7 JUMP JUMPDEST SWAP2 POP PUSH2 0x1BB9 DUP4 PUSH2 0x15F7 JUMP JUMPDEST SWAP3 POP DUP3 DUP3 ADD SWAP1 POP DUP1 DUP3 GT ISZERO PUSH2 0x1BD1 JUMPI PUSH2 0x1BD0 PUSH2 0x1B77 JUMP JUMPDEST JUMPDEST SWAP3 SWAP2 POP POP JUMP JUMPDEST PUSH0 PUSH2 0x1BE1 DUP3 PUSH2 0x15F7 JUMP JUMPDEST SWAP2 POP PUSH2 0x1BEC DUP4 PUSH2 0x15F7 JUMP JUMPDEST SWAP3 POP DUP3 DUP3 SUB SWAP1 POP DUP2 DUP2 GT ISZERO PUSH2 0x1C04 JUMPI PUSH2 0x1C03 PUSH2 0x1B77 JUMP JUMPDEST JUMPDEST SWAP3 SWAP2 POP POP JUMP JUMPDEST PUSH32 0x4E487B7100000000000000000000000000000000000000000000000000000000 PUSH0 MSTORE PUSH1 0x12 PUSH1 0x4 MSTORE PUSH1 0x24 PUSH0 REVERT JUMPDEST PUSH0 PUSH2 0x1C41 DUP3 PUSH2 0x15F7 JUMP JUMPDEST SWAP2 POP PUSH2 0x1C4C DUP4 PUSH2 0x15F7 JUMP JUMPDEST SWAP3 POP DUP3 PUSH2 0x1C5C JUMPI PUSH2 0x1C5B PUSH2 0x1C0A JUMP JUMPDEST JUMPDEST DUP3 DUP3 DIV SWAP1 POP SWAP3 SWAP2 POP POP JUMP JUMPDEST PUSH0 PUSH2 0x1C71 DUP3 PUSH2 0x15F7 JUMP JUMPDEST SWAP2 POP PUSH2 0x1C7C DUP4 PUSH2 0x15F7 JUMP JUMPDEST SWAP3 POP DUP3 DUP3 MUL PUSH2 0x1C8A DUP2 PUSH2 0x15F7 JUMP JUMPDEST SWAP2 POP DUP3 DUP3 DIV DUP5 EQ DUP4 ISZERO OR PUSH2 0x1CA1 JUMPI PUSH2 0x1CA0 PUSH2 0x1B77 JUMP JUMPDEST JUMPDEST POP SWAP3 SWAP2 POP POP JUMP JUMPDEST PUSH32 0x506C616E7420646F6573206E6F74206578697374000000000000000000000000 PUSH0 DUP3 ADD MSTORE POP JUMP JUMPDEST PUSH0 PUSH2 0x1CDC PUSH1 0x14 DUP4 PUSH2 0x1986 JUMP JUMPDEST SWAP2 POP PUSH2 0x1CE7 DUP3 PUSH2 0x1CA8 JUMP JUMPDEST PUSH1 0x20 DUP3 ADD SWAP1 POP SWAP2 SWAP1 POP JUMP JUMPDEST PUSH0 PUSH1 0x20 DUP3 ADD SWAP1 POP DUP2 DUP2 SUB PUSH0 DUP4 ADD MSTORE PUSH2 0x1D09 DUP2 PUSH2 0x1CD0 JUMP JUMPDEST SWAP1 POP SWAP2 SWAP1 POP JUMP JUMPDEST PUSH32 0x4F6E6C79206F776E65722063616E207761746572000000000000000000000000 PUSH0 DUP3 ADD MSTORE POP JUMP JUMPDEST PUSH0 PUSH2 0x1D44 PUSH1 0x14 DUP4 PUSH2 0x1986 JUMP JUMPDEST SWAP2 POP PUSH2 0x1D4F DUP3 PUSH2 0x1D10 JUMP JUMPDEST PUSH1 0x20 DUP3 ADD SWAP1 POP SWAP2 SWAP1 POP JUMP JUMPDEST PUSH0 PUSH1 0x20 DUP3 ADD SWAP1 POP DUP2 DUP2 SUB PUSH0 DUP4 ADD MSTORE PUSH2 0x1D71 DUP2 PUSH2 0x1D38 JUMP JUMPDEST SWAP1 POP SWAP2 SWAP1 POP JUMP JUMPDEST PUSH32 0x506C616E74206973206465616400000000000000000000000000000000000000 PUSH0 DUP3 ADD MSTORE POP JUMP JUMPDEST PUSH0 PUSH2 0x1DAC PUSH1 0xD DUP4 PUSH2 0x1986 JUMP JUMPDEST SWAP2 POP PUSH2 0x1DB7 DUP3 PUSH2 0x1D78 JUMP JUMPDEST PUSH1 0x20 DUP3 ADD SWAP1 POP SWAP2 SWAP1 POP JUMP JUMPDEST PUSH0 PUSH1 0x20 DUP3 ADD SWAP1 POP DUP2 DUP2 SUB PUSH0 DUP4 ADD MSTORE PUSH2 0x1DD9 DUP2 PUSH2 0x1DA0 JUMP JUMPDEST SWAP1 POP SWAP2 SWAP1 POP JUMP JUMPDEST PUSH32 0x506C616E742064696564206265666F7265207761746572696E67000000000000 PUSH0 DUP3 ADD MSTORE POP JUMP JUMPDEST PUSH0 PUSH2 0x1E14 PUSH1 0x1A DUP4 PUSH2 0x1986 JUMP JUMPDEST SWAP2 POP PUSH2 0x1E1F DUP3 PUSH2 0x1DE0 JUMP JUMPDEST PUSH1 0x20 DUP3 ADD SWAP1 POP SWAP2 SWAP1 POP JUMP JUMPDEST PUSH0 PUSH1 0x20 DUP3 ADD SWAP1 POP DUP2 DUP2 SUB PUSH0 DUP4 ADD MSTORE PUSH2 0x1E41 DUP2 PUSH2 0x1E08 JUMP JUMPDEST SWAP1 POP SWAP2 SWAP1 POP JUMP JUMPDEST PUSH0 PUSH1 0x20 DUP3 ADD SWAP1 POP PUSH2 0x1E5B PUSH0 DUP4 ADD DUP5 PUSH2 0x1805 JUMP JUMPDEST SWAP3 SWAP2 POP POP JUMP JUMPDEST PUSH32 0x4F6E6C79206F776E65722063616E206861727665737400000000000000000000 PUSH0 DUP3 ADD MSTORE POP JUMP JUMPDEST PUSH0 PUSH2 0x1E95 PUSH1 0x16 DUP4 PUSH2 0x1986 JUMP JUMPDEST SWAP2 POP PUSH2 0x1EA0 DUP3 PUSH2 0x1E61 JUMP JUMPDEST PUSH1 0x20 DUP3 ADD SWAP1 POP SWAP2 SWAP1 POP JUMP JUMPDEST PUSH0 PUSH1 0x20 DUP3 ADD SWAP1 POP DUP2 DUP2 SUB PUSH0 DUP4 ADD MSTORE PUSH2 0x1EC2 DUP2 PUSH2 0x1E89 JUMP JUMPDEST SWAP1 POP SWAP2 SWAP1 POP JUMP JUMPDEST PUSH32 0x506C616E742064696564206265666F7265206861727665737400000000000000 PUSH0 DUP3 ADD MSTORE POP JUMP JUMPDEST PUSH0 PUSH2 0x1EFD PUSH1 0x19 DUP4 PUSH2 0x1986 JUMP JUMPDEST SWAP2 POP PUSH2 0x1F08 DUP3 PUSH2 0x1EC9 JUMP JUMPDEST PUSH1 0x20 DUP3 ADD SWAP1 POP SWAP2 SWAP1 POP JUMP JUMPDEST PUSH0 PUSH1 0x20 DUP3 ADD SWAP1 POP DUP2 DUP2 SUB PUSH0 DUP4 ADD MSTORE PUSH2 0x1F2A DUP2 PUSH2 0x1EF1 JUMP JUMPDEST SWAP1 POP SWAP2 SWAP1 POP JUMP JUMPDEST PUSH32 0x506C616E74206E6F7420626C6F6F6D696E672079657400000000000000000000 PUSH0 DUP3 ADD MSTORE POP JUMP JUMPDEST PUSH0 PUSH2 0x1F65 PUSH1 0x16 DUP4 PUSH2 0x1986 JUMP JUMPDEST SWAP2 POP PUSH2 0x1F70 DUP3 PUSH2 0x1F31 JUMP JUMPDEST PUSH1 0x20 DUP3 ADD SWAP1 POP SWAP2 SWAP1 POP JUMP JUMPDEST PUSH0 PUSH1 0x20 DUP3 ADD SWAP1 POP DUP2 DUP2 SUB PUSH0 DUP4 ADD MSTORE PUSH2 0x1F92 DUP2 PUSH2 0x1F59 JUMP JUMPDEST SWAP1 POP SWAP2 SWAP1 POP JUMP JUMPDEST PUSH32 0x436F6E74726163742068617320696E73756666696369656E742066756E647320 PUSH0 DUP3 ADD MSTORE PUSH32 0x666F722072657761726400000000000000000000000000000000000000000000 PUSH1 0x20 DUP3 ADD MSTORE POP JUMP JUMPDEST PUSH0 PUSH2 0x1FF3 PUSH1 0x2A DUP4 PUSH2 0x1986 JUMP JUMPDEST SWAP2 POP PUSH2 0x1FFE DUP3 PUSH2 0x1F99 JUMP JUMPDEST PUSH1 0x40 DUP3 ADD SWAP1 POP SWAP2 SWAP1 POP JUMP JUMPDEST PUSH0 PUSH1 0x20 DUP3 ADD SWAP1 POP DUP2 DUP2 SUB PUSH0 DUP4 ADD MSTORE PUSH2 0x2020 DUP2 PUSH2 0x1FE7 JUMP JUMPDEST SWAP1 POP SWAP2 SWAP1 POP JUMP JUMPDEST PUSH32 0x4661696C656420746F207472616E736665722072657761726400000000000000 PUSH0 DUP3 ADD MSTORE POP JUMP JUMPDEST PUSH0 PUSH2 0x205B PUSH1 0x19 DUP4 PUSH2 0x1986 JUMP JUMPDEST SWAP2 POP PUSH2 0x2066 DUP3 PUSH2 0x2027 JUMP JUMPDEST PUSH1 0x20 DUP3 ADD SWAP1 POP SWAP2 SWAP1 POP JUMP JUMPDEST PUSH0 PUSH1 0x20 DUP3 ADD SWAP1 POP DUP2 DUP2 SUB PUSH0 DUP4 ADD MSTORE PUSH2 0x2088 DUP2 PUSH2 0x204F JUMP JUMPDEST SWAP1 POP SWAP2 SWAP1 POP JUMP INVALID LOG2 PUSH5 0x6970667358 0x22 SLT KECCAK256 SWAP10 MOD 0xD2 PUSH5 0xDCD4E7249A 0xB0 LOG0 PC PUSH6 0x34BA46EC3053 SHL 0xC1 JUMPI 0x4D 0xD4 0xCA SWAP9 0xCD SDIV PREVRANDAO DUP4 0xB9 PUSH6 0x64736F6C6343 STOP ADDMOD 0x1E STOP CALLER "
				},
				"gasEstimates": {
					"creation": {
						"codeDepositCost": "1677800",
						"executionCost": "31040",
						"totalCost": "1708840"
					},
					"external": {
						"HARVEST_REWARD()": "392",
						"PLANT_PRICE()": "347",
						"STAGE_DURATION()": "393",
						"WATER_DEPLETION_RATE()": "420",
						"WATER_DEPLETION_TIME()": "370",
						"calculateWaterLevel(uint256)": "infinite",
						"getPlant(uint256)": "infinite",
						"getUserPlants(address)": "infinite",
						"harvestPlant(uint256)": "infinite",
						"owner()": "2597",
						"plantCounter()": "2492",
						"plantSeed()": "infinite",
						"plants(uint256)": "infinite",
						"updatePlantStage(uint256)": "infinite",
						"waterPlant(uint256)": "infinite",
						"withdraw()": "infinite"
					},
					"internal": {
						"updateWaterLevel(uint256)": "infinite"
					}
				},
				"methodIdentifiers": {
					"HARVEST_REWARD()": "891c0785",
					"PLANT_PRICE()": "cfc9a5f8",
					"STAGE_DURATION()": "51f9efde",
					"WATER_DEPLETION_RATE()": "bacb5ebd",
					"WATER_DEPLETION_TIME()": "7ed4c5be",
					"calculateWaterLevel(uint256)": "754e150d",
					"getPlant(uint256)": "ed0b1f5f",
					"getUserPlants(address)": "30cec0eb",
					"harvestPlant(uint256)": "e38f8448",
					"owner()": "8da5cb5b",
					"plantCounter()": "9c471749",
					"plantSeed()": "74119a38",
					"plants(uint256)": "8dd2361c",
					"updatePlantStage(uint256)": "ddd42596",
					"waterPlant(uint256)": "9886bcfa",
					"withdraw()": "3ccfd60b"
				}
			},
			"storageLayout": {
				"storage": [
					{
						"astId": 29,
						"contract": "contracts/LiskGarden.sol:LiskGarden",
						"label": "plants",
						"offset": 0,
						"slot": "0",
						"type": "t_mapping(t_uint256,t_struct(Plant)24_storage)"
					},
					{
						"astId": 34,
						"contract": "contracts/LiskGarden.sol:LiskGarden",
						"label": "userPlants",
						"offset": 0,
						"slot": "1",
						"type": "t_mapping(t_address,t_array(t_uint256)dyn_storage)"
					},
					{
						"astId": 36,
						"contract": "contracts/LiskGarden.sol:LiskGarden",
						"label": "plantCounter",
						"offset": 0,
						"slot": "2",
						"type": "t_uint256"
					},
					{
						"astId": 38,
						"contract": "contracts/LiskGarden.sol:LiskGarden",
						"label": "owner",
						"offset": 0,
						"slot": "3",
						"type": "t_address"
					}
				],
				"types": {
					"t_address": {
						"encoding": "inplace",
						"label": "address",
						"numberOfBytes": "20"
					},
					"t_array(t_uint256)dyn_storage": {
						"base": "t_uint256",
						"encoding": "dynamic_array",
						"label": "uint256[]",
						"numberOfBytes": "32"
					},
					"t_bool": {
						"encoding": "inplace",
						"label": "bool",
						"numberOfBytes": "1"
					},
					"t_enum(GrowthStage)6": {
						"encoding": "inplace",
						"label": "enum LiskGarden.GrowthStage",
						"numberOfBytes": "1"
					},
					"t_mapping(t_address,t_array(t_uint256)dyn_storage)": {
						"encoding": "mapping",
						"key": "t_address",
						"label": "mapping(address => uint256[])",
						"numberOfBytes": "32",
						"value": "t_array(t_uint256)dyn_storage"
					},
					"t_mapping(t_uint256,t_struct(Plant)24_storage)": {
						"encoding": "mapping",
						"key": "t_uint256",
						"label": "mapping(uint256 => struct LiskGarden.Plant)",
						"numberOfBytes": "32",
						"value": "t_struct(Plant)24_storage"
					},
					"t_struct(Plant)24_storage": {
						"encoding": "inplace",
						"label": "struct LiskGarden.Plant",
						"members": [
							{
								"astId": 8,
								"contract": "contracts/LiskGarden.sol:LiskGarden",
								"label": "id",
								"offset": 0,
								"slot": "0",
								"type": "t_uint256"
							},
							{
								"astId": 10,
								"contract": "contracts/LiskGarden.sol:LiskGarden",
								"label": "owner",
								"offset": 0,
								"slot": "1",
								"type": "t_address"
							},
							{
								"astId": 12,
								"contract": "contracts/LiskGarden.sol:LiskGarden",
								"label": "exists",
								"offset": 20,
								"slot": "1",
								"type": "t_bool"
							},
							{
								"astId": 14,
								"contract": "contracts/LiskGarden.sol:LiskGarden",
								"label": "isAlive",
								"offset": 21,
								"slot": "1",
								"type": "t_bool"
							},
							{
								"astId": 17,
								"contract": "contracts/LiskGarden.sol:LiskGarden",
								"label": "stage",
								"offset": 22,
								"slot": "1",
								"type": "t_enum(GrowthStage)6"
							},
							{
								"astId": 19,
								"contract": "contracts/LiskGarden.sol:LiskGarden",
								"label": "plantedTime",
								"offset": 0,
								"slot": "2",
								"type": "t_uint256"
							},
							{
								"astId": 21,
								"contract": "contracts/LiskGarden.sol:LiskGarden",
								"label": "lastWatered",
								"offset": 0,
								"slot": "3",
								"type": "t_uint256"
							},
							{
								"astId": 23,
								"contract": "contracts/LiskGarden.sol:LiskGarden",
								"label": "waterLevel",
								"offset": 0,
								"slot": "4",
								"type": "t_uint8"
							}
						],
						"numberOfBytes": "160"
					},
					"t_uint256": {
						"encoding": "inplace",
						"label": "uint256",
						"numberOfBytes": "32"
					},
					"t_uint8": {
						"encoding": "inplace",
						"label": "uint8",
						"numberOfBytes": "1"
					}
				}
			},
			"userdoc": {
				"kind": "user",
				"methods": {
					"getUserPlants(address)": {
						"notice": "Return list of plantIds owned by a user"
					},
					"withdraw()": {
						"notice": "Owner withdraw contract balance"
					}
				},
				"version": 1
			}
		}
	}
}